{
  "_format": "hh-sol-artifact-1",
  "contractName": "SimpleLiquidityPool",
  "sourceName": "contracts/liquidity-pool-factory.sol",
  "abi": [
    {
      "inputs": [
        {
          "internalType": "address",
          "name": "_token",
          "type": "address"
        }
      ],
      "stateMutability": "nonpayable",
      "type": "constructor"
    },
    {
      "inputs": [],
      "name": "ReentrancyGuardReentrantCall",
      "type": "error"
    },
    {
      "anonymous": false,
      "inputs": [
        {
          "indexed": true,
          "internalType": "address",
          "name": "user",
          "type": "address"
        },
        {
          "indexed": false,
          "internalType": "uint256",
          "name": "tokenAmount",
          "type": "uint256"
        },
        {
          "indexed": false,
          "internalType": "uint256",
          "name": "sAmount",
          "type": "uint256"
        },
        {
          "indexed": false,
          "internalType": "uint256",
          "name": "lpAmount",
          "type": "uint256"
        }
      ],
      "name": "AddLiquidity",
      "type": "event"
    },
    {
      "anonymous": false,
      "inputs": [
        {
          "indexed": true,
          "internalType": "address",
          "name": "user",
          "type": "address"
        },
        {
          "indexed": false,
          "internalType": "uint256",
          "name": "tokenAmount",
          "type": "uint256"
        },
        {
          "indexed": false,
          "internalType": "uint256",
          "name": "sAmount",
          "type": "uint256"
        },
        {
          "indexed": false,
          "internalType": "uint256",
          "name": "lpAmount",
          "type": "uint256"
        }
      ],
      "name": "RemoveLiquidity",
      "type": "event"
    },
    {
      "anonymous": false,
      "inputs": [
        {
          "indexed": true,
          "internalType": "address",
          "name": "user",
          "type": "address"
        },
        {
          "indexed": false,
          "internalType": "bool",
          "name": "isBuy",
          "type": "bool"
        },
        {
          "indexed": false,
          "internalType": "uint256",
          "name": "tokenAmount",
          "type": "uint256"
        },
        {
          "indexed": false,
          "internalType": "uint256",
          "name": "sAmount",
          "type": "uint256"
        }
      ],
      "name": "Swap",
      "type": "event"
    },
    {
      "inputs": [],
      "name": "FEE",
      "outputs": [
        {
          "internalType": "uint256",
          "name": "",
          "type": "uint256"
        }
      ],
      "stateMutability": "view",
      "type": "function"
    },
    {
      "inputs": [],
      "name": "FEE_DENOMINATOR",
      "outputs": [
        {
          "internalType": "uint256",
          "name": "",
          "type": "uint256"
        }
      ],
      "stateMutability": "view",
      "type": "function"
    },
    {
      "inputs": [],
      "name": "addLiquidity",
      "outputs": [
        {
          "internalType": "uint256",
          "name": "lpAmount",
          "type": "uint256"
        }
      ],
      "stateMutability": "payable",
      "type": "function"
    },
    {
      "inputs": [],
      "name": "factory",
      "outputs": [
        {
          "internalType": "address",
          "name": "",
          "type": "address"
        }
      ],
      "stateMutability": "view",
      "type": "function"
    },
    {
      "inputs": [
        {
          "internalType": "address",
          "name": "_user",
          "type": "address"
        }
      ],
      "name": "getLpBalance",
      "outputs": [
        {
          "internalType": "uint256",
          "name": "",
          "type": "uint256"
        }
      ],
      "stateMutability": "view",
      "type": "function"
    },
    {
      "inputs": [],
      "name": "getReserves",
      "outputs": [
        {
          "internalType": "uint256",
          "name": "",
          "type": "uint256"
        },
        {
          "internalType": "uint256",
          "name": "",
          "type": "uint256"
        }
      ],
      "stateMutability": "view",
      "type": "function"
    },
    {
      "inputs": [],
      "name": "getTokenPrice",
      "outputs": [
        {
          "internalType": "uint256",
          "name": "",
          "type": "uint256"
        }
      ],
      "stateMutability": "view",
      "type": "function"
    },
    {
      "inputs": [
        {
          "internalType": "uint256",
          "name": "_tokenAmount",
          "type": "uint256"
        }
      ],
      "name": "initialize",
      "outputs": [],
      "stateMutability": "payable",
      "type": "function"
    },
    {
      "inputs": [
        {
          "internalType": "address",
          "name": "",
          "type": "address"
        }
      ],
      "name": "lpBalances",
      "outputs": [
        {
          "internalType": "uint256",
          "name": "",
          "type": "uint256"
        }
      ],
      "stateMutability": "view",
      "type": "function"
    },
    {
      "inputs": [
        {
          "internalType": "uint256",
          "name": "_lpAmount",
          "type": "uint256"
        }
      ],
      "name": "removeLiquidity",
      "outputs": [
        {
          "internalType": "uint256",
          "name": "tokenAmount",
          "type": "uint256"
        },
        {
          "internalType": "uint256",
          "name": "sAmount",
          "type": "uint256"
        }
      ],
      "stateMutability": "nonpayable",
      "type": "function"
    },
    {
      "inputs": [],
      "name": "sReserve",
      "outputs": [
        {
          "internalType": "uint256",
          "name": "",
          "type": "uint256"
        }
      ],
      "stateMutability": "view",
      "type": "function"
    },
    {
      "inputs": [],
      "name": "swapSToToken",
      "outputs": [
        {
          "internalType": "uint256",
          "name": "tokenAmount",
          "type": "uint256"
        }
      ],
      "stateMutability": "payable",
      "type": "function"
    },
    {
      "inputs": [
        {
          "internalType": "uint256",
          "name": "_tokenAmount",
          "type": "uint256"
        }
      ],
      "name": "swapTokenToS",
      "outputs": [
        {
          "internalType": "uint256",
          "name": "sAmount",
          "type": "uint256"
        }
      ],
      "stateMutability": "nonpayable",
      "type": "function"
    },
    {
      "inputs": [],
      "name": "token",
      "outputs": [
        {
          "internalType": "contract IERC20",
          "name": "",
          "type": "address"
        }
      ],
      "stateMutability": "view",
      "type": "function"
    },
    {
      "inputs": [],
      "name": "tokenReserve",
      "outputs": [
        {
          "internalType": "uint256",
          "name": "",
          "type": "uint256"
        }
      ],
      "stateMutability": "view",
      "type": "function"
    },
    {
      "inputs": [],
      "name": "totalLpSupply",
      "outputs": [
        {
          "internalType": "uint256",
          "name": "",
          "type": "uint256"
        }
      ],
      "stateMutability": "view",
      "type": "function"
    },
    {
      "stateMutability": "payable",
      "type": "receive"
    }
  ],
  "bytecode": "0x608060405234801561001057600080fd5b50604051611f5e380380611f5e83398181016040528101906100329190610125565b600160008190555080600160006101000a81548173ffffffffffffffffffffffffffffffffffffffff021916908373ffffffffffffffffffffffffffffffffffffffff16021790555033600460006101000a81548173ffffffffffffffffffffffffffffffffffffffff021916908373ffffffffffffffffffffffffffffffffffffffff16021790555050610152565b600080fd5b600073ffffffffffffffffffffffffffffffffffffffff82169050919050565b60006100f2826100c7565b9050919050565b610102816100e7565b811461010d57600080fd5b50565b60008151905061011f816100f9565b92915050565b60006020828403121561013b5761013a6100c2565b5b600061014984828501610110565b91505092915050565b611dfd806101616000396000f3fe6080604052600436106100f75760003560e01c8063aa381fc61161008a578063d73792a911610059578063d73792a9146103d4578063e8078d94146103ff578063fc0c546a1461041d578063fe4b84df146104485761018e565b8063aa381fc614610316578063c45a015514610353578063c57981b51461037e578063cbcb3171146103a95761018e565b80636aedea73116100c65780636aedea73146102455780638969461d14610270578063948f616c146102ad5780639c8f9f23146102d85761018e565b8063050d58d6146101935780630902f1ac146101b15780630b65092d146101dd5780634b94f50e1461021a5761018e565b3661018e57600460009054906101000a900473ffffffffffffffffffffffffffffffffffffffff1673ffffffffffffffffffffffffffffffffffffffff163373ffffffffffffffffffffffffffffffffffffffff161461018c576040517f08c379a00000000000000000000000000000000000000000000000000000000081526004016101839061149e565b60405180910390fd5b005b600080fd5b61019b610464565b6040516101a891906114d7565b60405180910390f35b3480156101bd57600080fd5b506101c661074e565b6040516101d49291906114f2565b60405180910390f35b3480156101e957600080fd5b5061020460048036038101906101ff919061157e565b61075f565b60405161021191906114d7565b60405180910390f35b34801561022657600080fd5b5061022f610777565b60405161023c91906114d7565b60405180910390f35b34801561025157600080fd5b5061025a6107f3565b60405161026791906114d7565b60405180910390f35b34801561027c57600080fd5b50610297600480360381019061029291906115d7565b6107f9565b6040516102a491906114d7565b60405180910390f35b3480156102b957600080fd5b506102c2610b2e565b6040516102cf91906114d7565b60405180910390f35b3480156102e457600080fd5b506102ff60048036038101906102fa91906115d7565b610b34565b60405161030d9291906114f2565b60405180910390f35b34801561032257600080fd5b5061033d6004803603810190610338919061157e565b610eb3565b60405161034a91906114d7565b60405180910390f35b34801561035f57600080fd5b50610368610efc565b6040516103759190611613565b60405180910390f35b34801561038a57600080fd5b50610393610f22565b6040516103a091906114d7565b60405180910390f35b3480156103b557600080fd5b506103be610f27565b6040516103cb91906114d7565b60405180910390f35b3480156103e057600080fd5b506103e9610f2d565b6040516103f691906114d7565b60405180910390f35b610407610f33565b60405161041491906114d7565b60405180910390f35b34801561042957600080fd5b50610432611232565b60405161043f919061168d565b60405180910390f35b610462600480360381019061045d91906115d7565b611258565b005b600061046e6113f1565b600034116104b1576040517f08c379a00000000000000000000000000000000000000000000000000000000081526004016104a8906116f4565b60405180910390fd5b60006002541180156104c557506000600354115b610504576040517f08c379a00000000000000000000000000000000000000000000000000000000081526004016104fb90611760565b60405180910390fd5b6000601e61271061051591906117af565b3461052091906117e3565b90508061271060035461053391906117e3565b61053d9190611825565b8160025461054b91906117e3565b6105559190611888565b91506000821161059a576040517f08c379a000000000000000000000000000000000000000000000000000000000815260040161059190611905565b60405180910390fd5b60025482106105de576040517f08c379a00000000000000000000000000000000000000000000000000000000081526004016105d590611971565b60405180910390fd5b34600360008282546105f09190611825565b92505081905550816002600082825461060991906117af565b92505081905550600160009054906101000a900473ffffffffffffffffffffffffffffffffffffffff1673ffffffffffffffffffffffffffffffffffffffff1663a9059cbb33846040518363ffffffff1660e01b815260040161066d929190611991565b6020604051808303816000875af115801561068c573d6000803e3d6000fd5b505050506040513d601f19601f820116820180604052508101906106b091906119f2565b6106ef576040517f08c379a00000000000000000000000000000000000000000000000000000000081526004016106e690611a6b565b60405180910390fd5b3373ffffffffffffffffffffffffffffffffffffffff167fbfd50a04f1e6e4aee344f5d0e7f15d74d0dbb58cd1f711daa6463094ca9508cd6001843460405161073a93929190611a9a565b60405180910390a25061074b611437565b90565b600080600254600354915091509091565b60056020528060005260406000206000915090505481565b60008060025411801561078c57506000600354115b6107cb576040517f08c379a00000000000000000000000000000000000000000000000000000000081526004016107c290611760565b60405180910390fd5b600254670de0b6b3a76400006003546107e491906117e3565b6107ee9190611888565b905090565b60065481565b60006108036113f1565b60008211610846576040517f08c379a000000000000000000000000000000000000000000000000000000000815260040161083d90611905565b60405180910390fd5b600060025411801561085a57506000600354115b610899576040517f08c379a000000000000000000000000000000000000000000000000000000000815260040161089090611760565b60405180910390fd5b6000601e6127106108aa91906117af565b836108b591906117e3565b9050806127106002546108c891906117e3565b6108d29190611825565b816003546108e091906117e3565b6108ea9190611888565b91506000821161092f576040517f08c379a0000000000000000000000000000000000000000000000000000000008152600401610926906116f4565b60405180910390fd5b6003548210610973576040517f08c379a000000000000000000000000000000000000000000000000000000000815260040161096a90611b1d565b60405180910390fd5b82600260008282546109859190611825565b92505081905550816003600082825461099e91906117af565b92505081905550600160009054906101000a900473ffffffffffffffffffffffffffffffffffffffff1673ffffffffffffffffffffffffffffffffffffffff166323b872dd3330866040518463ffffffff1660e01b8152600401610a0493929190611b3d565b6020604051808303816000875af1158015610a23573d6000803e3d6000fd5b505050506040513d601f19601f82011682018060405250810190610a4791906119f2565b610a86576040517f08c379a0000000000000000000000000000000000000000000000000000000008152600401610a7d90611a6b565b60405180910390fd5b3373ffffffffffffffffffffffffffffffffffffffff166108fc839081150290604051600060405180830381858888f19350505050158015610acc573d6000803e3d6000fd5b503373ffffffffffffffffffffffffffffffffffffffff167fbfd50a04f1e6e4aee344f5d0e7f15d74d0dbb58cd1f711daa6463094ca9508cd60008585604051610b1893929190611a9a565b60405180910390a250610b29611437565b919050565b60035481565b600080610b3f6113f1565b60008311610b82576040517f08c379a0000000000000000000000000000000000000000000000000000000008152600401610b7990611bc0565b60405180910390fd5b82600560003373ffffffffffffffffffffffffffffffffffffffff1673ffffffffffffffffffffffffffffffffffffffff168152602001908152602001600020541015610c04576040517f08c379a0000000000000000000000000000000000000000000000000000000008152600401610bfb90611c2c565b60405180910390fd5b60065460025484610c1591906117e3565b610c1f9190611888565b915060065460035484610c3291906117e3565b610c3c9190611888565b9050600082118015610c4e5750600081115b610c8d576040517f08c379a0000000000000000000000000000000000000000000000000000000008152600401610c8490611c98565b60405180910390fd5b8160026000828254610c9f91906117af565b925050819055508060036000828254610cb891906117af565b925050819055508260066000828254610cd191906117af565b9250508190555082600560003373ffffffffffffffffffffffffffffffffffffffff1673ffffffffffffffffffffffffffffffffffffffff1681526020019081526020016000206000828254610d2791906117af565b92505081905550600160009054906101000a900473ffffffffffffffffffffffffffffffffffffffff1673ffffffffffffffffffffffffffffffffffffffff1663a9059cbb33846040518363ffffffff1660e01b8152600401610d8b929190611991565b6020604051808303816000875af1158015610daa573d6000803e3d6000fd5b505050506040513d601f19601f82011682018060405250810190610dce91906119f2565b610e0d576040517f08c379a0000000000000000000000000000000000000000000000000000000008152600401610e0490611a6b565b60405180910390fd5b3373ffffffffffffffffffffffffffffffffffffffff166108fc829081150290604051600060405180830381858888f19350505050158015610e53573d6000803e3d6000fd5b503373ffffffffffffffffffffffffffffffffffffffff167f59c3a0b60c6ab7deb62e1440c9e72441db6db7dfe514dba8cb18e60c0d896efa838386604051610e9e93929190611cb8565b60405180910390a2610eae611437565b915091565b6000600560008373ffffffffffffffffffffffffffffffffffffffff1673ffffffffffffffffffffffffffffffffffffffff168152602001908152602001600020549050919050565b600460009054906101000a900473ffffffffffffffffffffffffffffffffffffffff1681565b601e81565b60025481565b61271081565b6000610f3d6113f1565b6000600254118015610f5157506000600354115b610f90576040517f08c379a0000000000000000000000000000000000000000000000000000000008152600401610f8790611760565b60405180910390fd5b60003411610fd3576040517f08c379a0000000000000000000000000000000000000000000000000000000008152600401610fca906116f4565b60405180910390fd5b600060035460025434610fe691906117e3565b610ff09190611888565b905060008111611035576040517f08c379a000000000000000000000000000000000000000000000000000000000815260040161102c90611905565b60405180910390fd5b6003546006543461104691906117e3565b6110509190611888565b915034600360008282546110649190611825565b92505081905550806002600082825461107d9190611825565b9250508190555081600660008282546110969190611825565b9250508190555081600560003373ffffffffffffffffffffffffffffffffffffffff1673ffffffffffffffffffffffffffffffffffffffff16815260200190815260200160002060008282546110ec9190611825565b92505081905550600160009054906101000a900473ffffffffffffffffffffffffffffffffffffffff1673ffffffffffffffffffffffffffffffffffffffff166323b872dd3330846040518463ffffffff1660e01b815260040161115293929190611b3d565b6020604051808303816000875af1158015611171573d6000803e3d6000fd5b505050506040513d601f19601f8201168201806040525081019061119591906119f2565b6111d4576040517f08c379a00000000000000000000000000000000000000000000000000000000081526004016111cb90611a6b565b60405180910390fd5b3373ffffffffffffffffffffffffffffffffffffffff167fbeb3885786d637a474cbc287c0a44587231633a077f0bd30354d5a4b18996fce82348560405161121e93929190611cb8565b60405180910390a25061122f611437565b90565b600160009054906101000a900473ffffffffffffffffffffffffffffffffffffffff1681565b600460009054906101000a900473ffffffffffffffffffffffffffffffffffffffff1673ffffffffffffffffffffffffffffffffffffffff163373ffffffffffffffffffffffffffffffffffffffff16146112e8576040517f08c379a00000000000000000000000000000000000000000000000000000000081526004016112df90611d3b565b60405180910390fd5b60006002541480156112fc57506000600354145b61133b576040517f08c379a000000000000000000000000000000000000000000000000000000000815260040161133290611da7565b60405180910390fd5b60008111801561134b5750600034115b61138a576040517f08c379a000000000000000000000000000000000000000000000000000000000815260040161138190611c98565b60405180910390fd5b8060028190555034600381905550683635c9adc5dea00000600681905550600654600560003373ffffffffffffffffffffffffffffffffffffffff1673ffffffffffffffffffffffffffffffffffffffff1681526020019081526020016000208190555050565b60026000540361142d576040517f3ee5aeb500000000000000000000000000000000000000000000000000000000815260040160405180910390fd5b6002600081905550565b6001600081905550565b600082825260208201905092915050565b7f4469726563742053207472616e7366657273206e6f7420616c6c6f7765640000600082015250565b6000611488601e83611441565b915061149382611452565b602082019050919050565b600060208201905081810360008301526114b78161147b565b9050919050565b6000819050919050565b6114d1816114be565b82525050565b60006020820190506114ec60008301846114c8565b92915050565b600060408201905061150760008301856114c8565b61151460208301846114c8565b9392505050565b600080fd5b600073ffffffffffffffffffffffffffffffffffffffff82169050919050565b600061154b82611520565b9050919050565b61155b81611540565b811461156657600080fd5b50565b60008135905061157881611552565b92915050565b6000602082840312156115945761159361151b565b5b60006115a284828501611569565b91505092915050565b6115b4816114be565b81146115bf57600080fd5b50565b6000813590506115d1816115ab565b92915050565b6000602082840312156115ed576115ec61151b565b5b60006115fb848285016115c2565b91505092915050565b61160d81611540565b82525050565b60006020820190506116286000830184611604565b92915050565b6000819050919050565b600061165361164e61164984611520565b61162e565b611520565b9050919050565b600061166582611638565b9050919050565b60006116778261165a565b9050919050565b6116878161166c565b82525050565b60006020820190506116a2600083018461167e565b92915050565b7f5a65726f205320616d6f756e7400000000000000000000000000000000000000600082015250565b60006116de600d83611441565b91506116e9826116a8565b602082019050919050565b6000602082019050818103600083015261170d816116d1565b9050919050565b7f456d707479207265736572766573000000000000000000000000000000000000600082015250565b600061174a600e83611441565b915061175582611714565b602082019050919050565b600060208201905081810360008301526117798161173d565b9050919050565b7f4e487b7100000000000000000000000000000000000000000000000000000000600052601160045260246000fd5b60006117ba826114be565b91506117c5836114be565b92508282039050818111156117dd576117dc611780565b5b92915050565b60006117ee826114be565b91506117f9836114be565b9250828202611807816114be565b9150828204841483151761181e5761181d611780565b5b5092915050565b6000611830826114be565b915061183b836114be565b925082820190508082111561185357611852611780565b5b92915050565b7f4e487b7100000000000000000000000000000000000000000000000000000000600052601260045260246000fd5b6000611893826114be565b915061189e836114be565b9250826118ae576118ad611859565b5b828204905092915050565b7f5a65726f20746f6b656e20616d6f756e74000000000000000000000000000000600082015250565b60006118ef601183611441565b91506118fa826118b9565b602082019050919050565b6000602082019050818103600083015261191e816118e2565b9050919050565b7f4e6f7420656e6f75676820746f6b656e7320696e207265736572766500000000600082015250565b600061195b601c83611441565b915061196682611925565b602082019050919050565b6000602082019050818103600083015261198a8161194e565b9050919050565b60006040820190506119a66000830185611604565b6119b360208301846114c8565b9392505050565b60008115159050919050565b6119cf816119ba565b81146119da57600080fd5b50565b6000815190506119ec816119c6565b92915050565b600060208284031215611a0857611a0761151b565b5b6000611a16848285016119dd565b91505092915050565b7f546f6b656e207472616e73666572206661696c65640000000000000000000000600082015250565b6000611a55601583611441565b9150611a6082611a1f565b602082019050919050565b60006020820190508181036000830152611a8481611a48565b9050919050565b611a94816119ba565b82525050565b6000606082019050611aaf6000830186611a8b565b611abc60208301856114c8565b611ac960408301846114c8565b949350505050565b7f4e6f7420656e6f756768205320696e2072657365727665000000000000000000600082015250565b6000611b07601783611441565b9150611b1282611ad1565b602082019050919050565b60006020820190508181036000830152611b3681611afa565b9050919050565b6000606082019050611b526000830186611604565b611b5f6020830185611604565b611b6c60408301846114c8565b949350505050565b7f5a65726f204c5020616d6f756e74000000000000000000000000000000000000600082015250565b6000611baa600e83611441565b9150611bb582611b74565b602082019050919050565b60006020820190508181036000830152611bd981611b9d565b9050919050565b7f496e73756666696369656e74204c502062616c616e6365000000000000000000600082015250565b6000611c16601783611441565b9150611c2182611be0565b602082019050919050565b60006020820190508181036000830152611c4581611c09565b9050919050565b7f5a65726f20616d6f756e74730000000000000000000000000000000000000000600082015250565b6000611c82600c83611441565b9150611c8d82611c4c565b602082019050919050565b60006020820190508181036000830152611cb181611c75565b9050919050565b6000606082019050611ccd60008301866114c8565b611cda60208301856114c8565b611ce760408301846114c8565b949350505050565b7f4f6e6c7920666163746f72792063616e2063616c6c0000000000000000000000600082015250565b6000611d25601583611441565b9150611d3082611cef565b602082019050919050565b60006020820190508181036000830152611d5481611d18565b9050919050565b7f416c726561647920696e697469616c697a656400000000000000000000000000600082015250565b6000611d91601383611441565b9150611d9c82611d5b565b602082019050919050565b60006020820190508181036000830152611dc081611d84565b905091905056fea2646970667358221220745b6121e76111395ac2bf961f9ffef119e50f14408e0656b268f10f345fb4a664736f6c634300081c0033",
  "linkReferences": {},
  "deployedLinkReferences": {}
}