{
  "_format": "hh-sol-artifact-1",
  "contractName": "BondingCurve",
  "sourceName": "contracts/BondingCurve.sol",
  "abi": [
    {
      "inputs": [
        {
          "internalType": "address",
          "name": "_token100x",
          "type": "address"
        }
      ],
      "stateMutability": "nonpayable",
      "type": "constructor"
    },
    {
      "inputs": [],
      "name": "EnforcedPause",
      "type": "error"
    },
    {
      "inputs": [],
      "name": "ExpectedPause",
      "type": "error"
    },
    {
      "inputs": [
        {
          "internalType": "address",
          "name": "owner",
          "type": "address"
        }
      ],
      "name": "OwnableInvalidOwner",
      "type": "error"
    },
    {
      "inputs": [
        {
          "internalType": "address",
          "name": "account",
          "type": "address"
        }
      ],
      "name": "OwnableUnauthorizedAccount",
      "type": "error"
    },
    {
      "inputs": [],
      "name": "ReentrancyGuardReentrantCall",
      "type": "error"
    },
    {
      "anonymous": false,
      "inputs": [
        {
          "indexed": true,
          "internalType": "address",
          "name": "buyer",
          "type": "address"
        },
        {
          "indexed": false,
          "internalType": "uint256",
          "name": "tokenAmount",
          "type": "uint256"
        },
        {
          "indexed": false,
          "internalType": "uint256",
          "name": "sPaid",
          "type": "uint256"
        }
      ],
      "name": "Buy",
      "type": "event"
    },
    {
      "anonymous": false,
      "inputs": [
        {
          "indexed": false,
          "internalType": "uint256",
          "name": "newPrice",
          "type": "uint256"
        }
      ],
      "name": "FinalPriceUpdated",
      "type": "event"
    },
    {
      "anonymous": false,
      "inputs": [
        {
          "indexed": false,
          "internalType": "uint256",
          "name": "tokenAmount",
          "type": "uint256"
        },
        {
          "indexed": false,
          "internalType": "uint256",
          "name": "sAmount",
          "type": "uint256"
        }
      ],
      "name": "FullTimelockWithdrawExecuted",
      "type": "event"
    },
    {
      "anonymous": false,
      "inputs": [
        {
          "indexed": false,
          "internalType": "uint256",
          "name": "tokenAmount",
          "type": "uint256"
        },
        {
          "indexed": false,
          "internalType": "uint256",
          "name": "sAmount",
          "type": "uint256"
        },
        {
          "indexed": false,
          "internalType": "uint256",
          "name": "requestTime",
          "type": "uint256"
        }
      ],
      "name": "FullTimelockWithdrawRequested",
      "type": "event"
    },
    {
      "anonymous": false,
      "inputs": [
        {
          "indexed": false,
          "internalType": "uint256",
          "name": "newPrice",
          "type": "uint256"
        }
      ],
      "name": "InitialPriceUpdated",
      "type": "event"
    },
    {
      "anonymous": false,
      "inputs": [
        {
          "indexed": false,
          "internalType": "address",
          "name": "pool",
          "type": "address"
        },
        {
          "indexed": false,
          "internalType": "uint256",
          "name": "tokenAmount",
          "type": "uint256"
        },
        {
          "indexed": false,
          "internalType": "uint256",
          "name": "sAmount",
          "type": "uint256"
        }
      ],
      "name": "LiquidityPoolCreated",
      "type": "event"
    },
    {
      "anonymous": false,
      "inputs": [
        {
          "indexed": false,
          "internalType": "address",
          "name": "factory",
          "type": "address"
        }
      ],
      "name": "LiquidityPoolFactorySet",
      "type": "event"
    },
    {
      "anonymous": false,
      "inputs": [
        {
          "indexed": true,
          "internalType": "address",
          "name": "previousOwner",
          "type": "address"
        },
        {
          "indexed": true,
          "internalType": "address",
          "name": "newOwner",
          "type": "address"
        }
      ],
      "name": "OwnershipTransferred",
      "type": "event"
    },
    {
      "anonymous": false,
      "inputs": [
        {
          "indexed": false,
          "internalType": "address",
          "name": "account",
          "type": "address"
        }
      ],
      "name": "Paused",
      "type": "event"
    },
    {
      "anonymous": false,
      "inputs": [
        {
          "indexed": false,
          "internalType": "uint256",
          "name": "newSUsdPrice",
          "type": "uint256"
        }
      ],
      "name": "SUsdPriceUpdated",
      "type": "event"
    },
    {
      "anonymous": false,
      "inputs": [
        {
          "indexed": true,
          "internalType": "address",
          "name": "seller",
          "type": "address"
        },
        {
          "indexed": false,
          "internalType": "uint256",
          "name": "tokenAmount",
          "type": "uint256"
        },
        {
          "indexed": false,
          "internalType": "uint256",
          "name": "sReceived",
          "type": "uint256"
        }
      ],
      "name": "Sell",
      "type": "event"
    },
    {
      "anonymous": false,
      "inputs": [
        {
          "indexed": false,
          "internalType": "uint256",
          "name": "newFee",
          "type": "uint256"
        }
      ],
      "name": "SellFeeUpdated",
      "type": "event"
    },
    {
      "anonymous": false,
      "inputs": [
        {
          "indexed": true,
          "internalType": "address",
          "name": "pool",
          "type": "address"
        },
        {
          "indexed": false,
          "internalType": "uint256",
          "name": "tokenAmount",
          "type": "uint256"
        },
        {
          "indexed": false,
          "internalType": "uint256",
          "name": "sAmount",
          "type": "uint256"
        }
      ],
      "name": "SentToLiquidityPool",
      "type": "event"
    },
    {
      "anonymous": false,
      "inputs": [
        {
          "indexed": false,
          "internalType": "uint256",
          "name": "totalBought",
          "type": "uint256"
        },
        {
          "indexed": false,
          "internalType": "uint256",
          "name": "totalSoldBack",
          "type": "uint256"
        }
      ],
      "name": "ThresholdReached",
      "type": "event"
    },
    {
      "anonymous": false,
      "inputs": [
        {
          "indexed": false,
          "internalType": "uint256",
          "name": "amount",
          "type": "uint256"
        }
      ],
      "name": "TokenTransferred",
      "type": "event"
    },
    {
      "anonymous": false,
      "inputs": [
        {
          "indexed": false,
          "internalType": "address",
          "name": "account",
          "type": "address"
        }
      ],
      "name": "Unpaused",
      "type": "event"
    },
    {
      "inputs": [],
      "name": "MAX_TOKEN_AMOUNT_PER_TX",
      "outputs": [
        {
          "internalType": "uint256",
          "name": "",
          "type": "uint256"
        }
      ],
      "stateMutability": "view",
      "type": "function"
    },
    {
      "inputs": [],
      "name": "PRICE_DECIMALS",
      "outputs": [
        {
          "internalType": "uint256",
          "name": "",
          "type": "uint256"
        }
      ],
      "stateMutability": "view",
      "type": "function"
    },
    {
      "inputs": [],
      "name": "THRESHOLD",
      "outputs": [
        {
          "internalType": "uint256",
          "name": "",
          "type": "uint256"
        }
      ],
      "stateMutability": "view",
      "type": "function"
    },
    {
      "inputs": [],
      "name": "USD_PRICE_DECIMALS",
      "outputs": [
        {
          "internalType": "uint256",
          "name": "",
          "type": "uint256"
        }
      ],
      "stateMutability": "view",
      "type": "function"
    },
    {
      "inputs": [],
      "name": "WITHDRAW_DELAY",
      "outputs": [
        {
          "internalType": "uint256",
          "name": "",
          "type": "uint256"
        }
      ],
      "stateMutability": "view",
      "type": "function"
    },
    {
      "inputs": [
        {
          "internalType": "uint256",
          "name": "tokenAmount",
          "type": "uint256"
        }
      ],
      "name": "buy",
      "outputs": [],
      "stateMutability": "payable",
      "type": "function"
    },
    {
      "inputs": [
        {
          "internalType": "uint256",
          "name": "tokenAmount",
          "type": "uint256"
        }
      ],
      "name": "calculateBuyPrice",
      "outputs": [
        {
          "internalType": "uint256",
          "name": "",
          "type": "uint256"
        }
      ],
      "stateMutability": "view",
      "type": "function"
    },
    {
      "inputs": [
        {
          "internalType": "uint256",
          "name": "tokenAmount",
          "type": "uint256"
        }
      ],
      "name": "calculateSellPrice",
      "outputs": [
        {
          "internalType": "uint256",
          "name": "",
          "type": "uint256"
        }
      ],
      "stateMutability": "view",
      "type": "function"
    },
    {
      "inputs": [],
      "name": "cancelFullWithdraw",
      "outputs": [],
      "stateMutability": "nonpayable",
      "type": "function"
    },
    {
      "inputs": [],
      "name": "createLiquidityPoolManually",
      "outputs": [],
      "stateMutability": "nonpayable",
      "type": "function"
    },
    {
      "inputs": [],
      "name": "currentSUsdPrice",
      "outputs": [
        {
          "internalType": "uint256",
          "name": "",
          "type": "uint256"
        }
      ],
      "stateMutability": "view",
      "type": "function"
    },
    {
      "inputs": [
        {
          "internalType": "address",
          "name": "_recipient",
          "type": "address"
        }
      ],
      "name": "emergencyWithdrawLpTokens",
      "outputs": [],
      "stateMutability": "nonpayable",
      "type": "function"
    },
    {
      "inputs": [],
      "name": "executeFullTimelockWithdraw",
      "outputs": [],
      "stateMutability": "nonpayable",
      "type": "function"
    },
    {
      "inputs": [],
      "name": "finalPrice",
      "outputs": [
        {
          "internalType": "uint256",
          "name": "",
          "type": "uint256"
        }
      ],
      "stateMutability": "view",
      "type": "function"
    },
    {
      "inputs": [],
      "name": "fullTimelockWithdraw",
      "outputs": [],
      "stateMutability": "nonpayable",
      "type": "function"
    },
    {
      "inputs": [],
      "name": "getCurrentPrice",
      "outputs": [
        {
          "internalType": "uint256",
          "name": "",
          "type": "uint256"
        }
      ],
      "stateMutability": "view",
      "type": "function"
    },
    {
      "inputs": [],
      "name": "getPoolInfo",
      "outputs": [
        {
          "internalType": "uint256",
          "name": "accountingS",
          "type": "uint256"
        },
        {
          "internalType": "uint256",
          "name": "actualS",
          "type": "uint256"
        },
        {
          "internalType": "uint256",
          "name": "tokenBalance",
          "type": "uint256"
        }
      ],
      "stateMutability": "view",
      "type": "function"
    },
    {
      "inputs": [],
      "name": "getSupplyStats",
      "outputs": [
        {
          "internalType": "uint256",
          "name": "totalSupply",
          "type": "uint256"
        },
        {
          "internalType": "uint256",
          "name": "sold",
          "type": "uint256"
        },
        {
          "internalType": "uint256",
          "name": "available",
          "type": "uint256"
        },
        {
          "internalType": "uint256",
          "name": "percentageSold",
          "type": "uint256"
        }
      ],
      "stateMutability": "view",
      "type": "function"
    },
    {
      "inputs": [
        {
          "internalType": "uint256",
          "name": "tokenAmount",
          "type": "uint256"
        }
      ],
      "name": "getUsdBuyPrice",
      "outputs": [
        {
          "internalType": "uint256",
          "name": "",
          "type": "uint256"
        }
      ],
      "stateMutability": "view",
      "type": "function"
    },
    {
      "inputs": [
        {
          "internalType": "uint256",
          "name": "tokenAmount",
          "type": "uint256"
        }
      ],
      "name": "getUsdSellPrice",
      "outputs": [
        {
          "internalType": "uint256",
          "name": "",
          "type": "uint256"
        }
      ],
      "stateMutability": "view",
      "type": "function"
    },
    {
      "inputs": [],
      "name": "initialPrice",
      "outputs": [
        {
          "internalType": "uint256",
          "name": "",
          "type": "uint256"
        }
      ],
      "stateMutability": "view",
      "type": "function"
    },
    {
      "inputs": [],
      "name": "jackpotAddress",
      "outputs": [
        {
          "internalType": "address",
          "name": "",
          "type": "address"
        }
      ],
      "stateMutability": "view",
      "type": "function"
    },
    {
      "inputs": [],
      "name": "liquidityPool",
      "outputs": [
        {
          "internalType": "address",
          "name": "",
          "type": "address"
        }
      ],
      "stateMutability": "view",
      "type": "function"
    },
    {
      "inputs": [],
      "name": "liquidityPoolCreated",
      "outputs": [
        {
          "internalType": "bool",
          "name": "",
          "type": "bool"
        }
      ],
      "stateMutability": "view",
      "type": "function"
    },
    {
      "inputs": [],
      "name": "liquidityPoolFactory",
      "outputs": [
        {
          "internalType": "address",
          "name": "",
          "type": "address"
        }
      ],
      "stateMutability": "view",
      "type": "function"
    },
    {
      "inputs": [],
      "name": "owner",
      "outputs": [
        {
          "internalType": "address",
          "name": "",
          "type": "address"
        }
      ],
      "stateMutability": "view",
      "type": "function"
    },
    {
      "inputs": [],
      "name": "pause",
      "outputs": [],
      "stateMutability": "nonpayable",
      "type": "function"
    },
    {
      "inputs": [],
      "name": "paused",
      "outputs": [
        {
          "internalType": "bool",
          "name": "",
          "type": "bool"
        }
      ],
      "stateMutability": "view",
      "type": "function"
    },
    {
      "inputs": [],
      "name": "poolS",
      "outputs": [
        {
          "internalType": "uint256",
          "name": "",
          "type": "uint256"
        }
      ],
      "stateMutability": "view",
      "type": "function"
    },
    {
      "inputs": [],
      "name": "renounceOwnership",
      "outputs": [],
      "stateMutability": "nonpayable",
      "type": "function"
    },
    {
      "inputs": [
        {
          "internalType": "uint256",
          "name": "tokenAmount",
          "type": "uint256"
        }
      ],
      "name": "sell",
      "outputs": [
        {
          "internalType": "uint256",
          "name": "",
          "type": "uint256"
        }
      ],
      "stateMutability": "nonpayable",
      "type": "function"
    },
    {
      "inputs": [],
      "name": "sellFee",
      "outputs": [
        {
          "internalType": "uint256",
          "name": "",
          "type": "uint256"
        }
      ],
      "stateMutability": "view",
      "type": "function"
    },
    {
      "inputs": [
        {
          "internalType": "address",
          "name": "pool",
          "type": "address"
        },
        {
          "internalType": "uint256",
          "name": "tokenAmount",
          "type": "uint256"
        },
        {
          "internalType": "uint256",
          "name": "sAmount",
          "type": "uint256"
        }
      ],
      "name": "sendToLiquidityPool",
      "outputs": [],
      "stateMutability": "nonpayable",
      "type": "function"
    },
    {
      "inputs": [
        {
          "internalType": "uint256",
          "name": "_newPrice",
          "type": "uint256"
        }
      ],
      "name": "setFinalPrice",
      "outputs": [],
      "stateMutability": "nonpayable",
      "type": "function"
    },
    {
      "inputs": [
        {
          "internalType": "uint256",
          "name": "_newPrice",
          "type": "uint256"
        }
      ],
      "name": "setInitialPrice",
      "outputs": [],
      "stateMutability": "nonpayable",
      "type": "function"
    },
    {
      "inputs": [
        {
          "internalType": "address",
          "name": "_jackpotAddress",
          "type": "address"
        }
      ],
      "name": "setJackpotAddress",
      "outputs": [],
      "stateMutability": "nonpayable",
      "type": "function"
    },
    {
      "inputs": [
        {
          "internalType": "address",
          "name": "_factory",
          "type": "address"
        }
      ],
      "name": "setLiquidityPoolFactory",
      "outputs": [],
      "stateMutability": "nonpayable",
      "type": "function"
    },
    {
      "inputs": [
        {
          "internalType": "uint256",
          "name": "_newSUsdPrice",
          "type": "uint256"
        }
      ],
      "name": "setSUsdPrice",
      "outputs": [],
      "stateMutability": "nonpayable",
      "type": "function"
    },
    {
      "inputs": [
        {
          "internalType": "uint256",
          "name": "_fee",
          "type": "uint256"
        }
      ],
      "name": "setSellFee",
      "outputs": [],
      "stateMutability": "nonpayable",
      "type": "function"
    },
    {
      "inputs": [],
      "name": "token100x",
      "outputs": [
        {
          "internalType": "contract IERC20",
          "name": "",
          "type": "address"
        }
      ],
      "stateMutability": "view",
      "type": "function"
    },
    {
      "inputs": [],
      "name": "totalBought",
      "outputs": [
        {
          "internalType": "uint256",
          "name": "",
          "type": "uint256"
        }
      ],
      "stateMutability": "view",
      "type": "function"
    },
    {
      "inputs": [],
      "name": "totalSoldBack",
      "outputs": [
        {
          "internalType": "uint256",
          "name": "",
          "type": "uint256"
        }
      ],
      "stateMutability": "view",
      "type": "function"
    },
    {
      "inputs": [
        {
          "internalType": "address",
          "name": "newOwner",
          "type": "address"
        }
      ],
      "name": "transferOwnership",
      "outputs": [],
      "stateMutability": "nonpayable",
      "type": "function"
    },
    {
      "inputs": [],
      "name": "unpause",
      "outputs": [],
      "stateMutability": "nonpayable",
      "type": "function"
    },
    {
      "inputs": [],
      "name": "withdrawRequest",
      "outputs": [
        {
          "internalType": "uint256",
          "name": "tokenAmount",
          "type": "uint256"
        },
        {
          "internalType": "uint256",
          "name": "sAmount",
          "type": "uint256"
        },
        {
          "internalType": "uint256",
          "name": "requestTime",
          "type": "uint256"
        },
        {
          "internalType": "bool",
          "name": "active",
          "type": "bool"
        }
      ],
      "stateMutability": "view",
      "type": "function"
    },
    {
      "stateMutability": "payable",
      "type": "receive"
    }
  ],
  "bytecode": "0x60806040526101f460095534801561001657600080fd5b506040516154a13803806154a1833981810160405281019061003891906104e9565b336001600081905550600073ffffffffffffffffffffffffffffffffffffffff168173ffffffffffffffffffffffffffffffffffffffff16036100b35760006040517f1e4fbdf70000000000000000000000000000000000000000000000000000000081526004016100aa9190610525565b60405180910390fd5b6100c2816102ec60201b60201c565b506000600160146101000a81548160ff021916908315150217905550600073ffffffffffffffffffffffffffffffffffffffff168173ffffffffffffffffffffffffffffffffffffffff160361014d576040517f08c379a00000000000000000000000000000000000000000000000000000000081526004016101449061059d565b60405180910390fd5b80600260006101000a81548173ffffffffffffffffffffffffffffffffffffffff021916908373ffffffffffffffffffffffffffffffffffffffff160217905550659184e72a000060058190555065da475abf0000600681905550603260078190555033600a60006101000a81548173ffffffffffffffffffffffffffffffffffffffff021916908373ffffffffffffffffffffffffffffffffffffffff160217905550600260009054906101000a900473ffffffffffffffffffffffffffffffffffffffff1673ffffffffffffffffffffffffffffffffffffffff166323b872dd333065b5e620f480006040518463ffffffff1660e01b81526004016102569392919061060c565b6020604051808303816000875af1158015610275573d6000803e3d6000fd5b505050506040513d601f19601f82011682018060405250810190610299919061067b565b6102d8576040517f08c379a00000000000000000000000000000000000000000000000000000000081526004016102cf906106f4565b60405180910390fd5b6102e66103b260201b60201c565b50610714565b6000600160009054906101000a900473ffffffffffffffffffffffffffffffffffffffff16905081600160006101000a81548173ffffffffffffffffffffffffffffffffffffffff021916908373ffffffffffffffffffffffffffffffffffffffff1602179055508173ffffffffffffffffffffffffffffffffffffffff168173ffffffffffffffffffffffffffffffffffffffff167f8be0079c531659141344cd1fd0a4f28419497f9722a3daafe3b4186f6b6457e060405160405180910390a35050565b6103c061042060201b60201c565b60018060146101000a81548160ff0219169083151502179055507f62e78cea01bee320cd4e420270b5ea74000d11b0c9f74754ebdbfc544b05a25861040961046760201b60201c565b6040516104169190610525565b60405180910390a1565b61042e61046f60201b60201c565b15610465576040517fd93c066500000000000000000000000000000000000000000000000000000000815260040160405180910390fd5b565b600033905090565b6000600160149054906101000a900460ff16905090565b600080fd5b600073ffffffffffffffffffffffffffffffffffffffff82169050919050565b60006104b68261048b565b9050919050565b6104c6816104ab565b81146104d157600080fd5b50565b6000815190506104e3816104bd565b92915050565b6000602082840312156104ff576104fe610486565b5b600061050d848285016104d4565b91505092915050565b61051f816104ab565b82525050565b600060208201905061053a6000830184610516565b92915050565b600082825260208201905092915050565b7f496e76616c696420746f6b656e20616464726573730000000000000000000000600082015250565b6000610587601583610540565b915061059282610551565b602082019050919050565b600060208201905081810360008301526105b68161057a565b9050919050565b6000819050919050565b6000819050919050565b6000819050919050565b60006105f66105f16105ec846105bd565b6105d1565b6105c7565b9050919050565b610606816105db565b82525050565b60006060820190506106216000830186610516565b61062e6020830185610516565b61063b60408301846105fd565b949350505050565b60008115159050919050565b61065881610643565b811461066357600080fd5b50565b6000815190506106758161064f565b92915050565b60006020828403121561069157610690610486565b5b600061069f84828501610666565b91505092915050565b7f53656564207472616e73666572206661696c6564000000000000000000000000600082015250565b60006106de601483610540565b91506106e9826106a8565b602082019050919050565b6000602082019050818103600083015261070d816106d1565b9050919050565b614d7e806107236000396000f3fe6080604052600436106102765760003560e01c8063665a11ca1161014f5780638da5cb5b116100c1578063e4849b321161007a578063e4849b32146108ed578063e75d75d51461092a578063eb91d37e14610955578063ee7bdddf14610980578063f1a640f8146109ab578063f2fde38b146109d6576102b6565b80638da5cb5b146107fe5780639f4ba0ee14610829578063a6b513ee14610852578063bb55f25c1461087d578063becb92e3146108a6578063d96a094a146108d1576102b6565b8063785ffb3711610113578063785ffb371461070257806379551f0e1461072d578063831e39a61461075857806383642d82146107955780638456cb59146107be5780638b4cee08146107d5576102b6565b8063665a11ca146106535780636bc0b3ba1461067e578063715018a6146106a9578063770f6574146106c05780637852c193146106eb576102b6565b806335e78d75116101e85780634a3f7e30116101ac5780634a3f7e30146105535780634a91f1951461057c57806358b9a996146105a75780635c975abb146105e457806360246c881461060f578063613015891461063c576102b6565b806335e78d751461048c578063380e687a146104ba5780633f4ba83a146104e8578063409acbc7146104ff578063488544ae1461052a576102b6565b80631dfc83be1161023a5780631dfc83be146103905780631ef46d05146103cd578063233ed5cd146103e45780632b14ca561461040d5780632e5e2b3b1461043857806330affae214610475576102b6565b80630116e377146102bb57806304aa9908146102e65780630d5e5fff1461030f57806318e53f311461033a5780631d0806ae14610365576102b6565b366102b6576040517f08c379a00000000000000000000000000000000000000000000000000000000081526004016102ad90613965565b60405180910390fd5b600080fd5b3480156102c757600080fd5b506102d06109ff565b6040516102dd91906139a0565b60405180910390f35b3480156102f257600080fd5b5061030d60048036038101906103089190613a1e565b610a12565b005b34801561031b57600080fd5b50610324610e49565b6040516103319190613a64565b60405180910390f35b34801561034657600080fd5b5061034f610e50565b60405161035c9190613a64565b60405180910390f35b34801561037157600080fd5b5061037a610e56565b6040516103879190613a64565b60405180910390f35b34801561039c57600080fd5b506103b760048036038101906103b29190613aab565b610e5c565b6040516103c49190613a64565b60405180910390f35b3480156103d957600080fd5b506103e2610e8c565b005b3480156103f057600080fd5b5061040b60048036038101906104069190613aab565b611090565b005b34801561041957600080fd5b5061042261111c565b60405161042f9190613a64565b60405180910390f35b34801561044457600080fd5b5061045f600480360381019061045a9190613aab565b611122565b60405161046c9190613a64565b60405180910390f35b34801561048157600080fd5b5061048a611220565b005b34801561049857600080fd5b506104a161162b565b6040516104b19493929190613ad8565b60405180910390f35b3480156104c657600080fd5b506104cf61168a565b6040516104df9493929190613b1d565b60405180910390f35b3480156104f457600080fd5b506104fd6116b5565b005b34801561050b57600080fd5b506105146116c7565b6040516105219190613a64565b60405180910390f35b34801561053657600080fd5b50610551600480360381019061054c9190613a1e565b6116cd565b005b34801561055f57600080fd5b5061057a60048036038101906105759190613b62565b6117bf565b005b34801561058857600080fd5b50610591611b44565b60405161059e9190613a64565b60405180910390f35b3480156105b357600080fd5b506105ce60048036038101906105c99190613aab565b611b4a565b6040516105db9190613a64565b60405180910390f35b3480156105f057600080fd5b506105f9611c45565b60405161060691906139a0565b60405180910390f35b34801561061b57600080fd5b50610624611c5c565b60405161063393929190613bb5565b60405180910390f35b34801561064857600080fd5b50610651611d0c565b005b34801561065f57600080fd5b50610668611da7565b6040516106759190613bfb565b60405180910390f35b34801561068a57600080fd5b50610693611dcd565b6040516106a09190613bfb565b60405180910390f35b3480156106b557600080fd5b506106be611df3565b005b3480156106cc57600080fd5b506106d5611e07565b6040516106e29190613a64565b60405180910390f35b3480156106f757600080fd5b50610700611e0e565b005b34801561070e57600080fd5b506107176120a6565b6040516107249190613a64565b60405180910390f35b34801561073957600080fd5b506107426120b0565b60405161074f9190613a64565b60405180910390f35b34801561076457600080fd5b5061077f600480360381019061077a9190613aab565b6120b5565b60405161078c9190613a64565b60405180910390f35b3480156107a157600080fd5b506107bc60048036038101906107b79190613a1e565b6120e5565b005b3480156107ca57600080fd5b506107d36121a0565b005b3480156107e157600080fd5b506107fc60048036038101906107f79190613aab565b6121b2565b005b34801561080a57600080fd5b50610813612240565b6040516108209190613bfb565b60405180910390f35b34801561083557600080fd5b50610850600480360381019061084b9190613aab565b61226a565b005b34801561085e57600080fd5b50610867612342565b6040516108749190613a64565b60405180910390f35b34801561088957600080fd5b506108a4600480360381019061089f9190613aab565b612348565b005b3480156108b257600080fd5b506108bb6123dd565b6040516108c89190613c75565b60405180910390f35b6108eb60048036038101906108e69190613aab565b612403565b005b3480156108f957600080fd5b50610914600480360381019061090f9190613aab565b612814565b6040516109219190613a64565b60405180910390f35b34801561093657600080fd5b5061093f613008565b60405161094c9190613bfb565b60405180910390f35b34801561096157600080fd5b5061096a61302e565b6040516109779190613a64565b60405180910390f35b34801561098c57600080fd5b506109956130b8565b6040516109a29190613a64565b60405180910390f35b3480156109b757600080fd5b506109c06130be565b6040516109cd9190613a64565b60405180910390f35b3480156109e257600080fd5b506109fd60048036038101906109f89190613a1e565b6130c3565b005b600c60149054906101000a900460ff1681565b610a1a613149565b610a226131d0565b600073ffffffffffffffffffffffffffffffffffffffff168173ffffffffffffffffffffffffffffffffffffffff1603610a91576040517f08c379a0000000000000000000000000000000000000000000000000000000008152600401610a8890613cdc565b60405180910390fd5b600c60149054906101000a900460ff168015610afc5750600073ffffffffffffffffffffffffffffffffffffffff16600c60009054906101000a900473ffffffffffffffffffffffffffffffffffffffff1673ffffffffffffffffffffffffffffffffffffffff1614155b610b3b576040517f08c379a0000000000000000000000000000000000000000000000000000000008152600401610b3290613d48565b60405180910390fd5b6000600c60009054906101000a900473ffffffffffffffffffffffffffffffffffffffff1673ffffffffffffffffffffffffffffffffffffffff1663aa381fc6306040518263ffffffff1660e01b8152600401610b989190613bfb565b602060405180830381865afa158015610bb5573d6000803e3d6000fd5b505050506040513d601f19601f82011682018060405250810190610bd99190613d7d565b905060008111610c1e576040517f08c379a0000000000000000000000000000000000000000000000000000000008152600401610c1590613df6565b60405180910390fd5b6000600c60009054906101000a900473ffffffffffffffffffffffffffffffffffffffff1690506000808273ffffffffffffffffffffffffffffffffffffffff16639c8f9f23856040518263ffffffff1660e01b8152600401610c819190613a64565b60408051808303816000875af1158015610c9f573d6000803e3d6000fd5b505050506040513d601f19601f82011682018060405250810190610cc39190613e16565b915091506000821115610db057600260009054906101000a900473ffffffffffffffffffffffffffffffffffffffff1673ffffffffffffffffffffffffffffffffffffffff1663a9059cbb86846040518363ffffffff1660e01b8152600401610d2d929190613e56565b6020604051808303816000875af1158015610d4c573d6000803e3d6000fd5b505050506040513d601f19601f82011682018060405250810190610d709190613eab565b610daf576040517f08c379a0000000000000000000000000000000000000000000000000000000008152600401610da690613f24565b60405180910390fd5b5b6000811115610e01578473ffffffffffffffffffffffffffffffffffffffff166108fc829081150290604051600060405180830381858888f19350505050158015610dff573d6000803e3d6000fd5b505b7f7bb3225129fc9dfdc521a486bb00ec79c36e2abf9e032fab88b93e0f5cfaf0488282604051610e32929190613f44565b60405180910390a150505050610e46613216565b50565b6201518081565b60085481565b60055481565b600080610e6883611122565b9050600754606482610e7a9190613f9c565b610e84919061400d565b915050919050565b610e94613149565b610e9c6131d0565b600d60030160009054906101000a900460ff1615610eef576040517f08c379a0000000000000000000000000000000000000000000000000000000008152600401610ee69061408a565b60405180910390fd5b6000600260009054906101000a900473ffffffffffffffffffffffffffffffffffffffff1673ffffffffffffffffffffffffffffffffffffffff166370a08231306040518263ffffffff1660e01b8152600401610f4c9190613bfb565b602060405180830381865afa158015610f69573d6000803e3d6000fd5b505050506040513d601f19601f82011682018060405250810190610f8d9190613d7d565b905060004790506000821180610fa35750600081115b610fe2576040517f08c379a0000000000000000000000000000000000000000000000000000000008152600401610fd9906140f6565b60405180910390fd5b604051806080016040528083815260200182815260200142815260200160011515815250600d60008201518160000155602082015181600101556040820151816002015560608201518160030160006101000a81548160ff0219169083151502179055509050507f56f45305231276ded80ae80a94d85c0f1514e03c5de77d0a6185ba46606e5f5082824260405161107c93929190613bb5565b60405180910390a1505061108e613216565b565b611098613149565b600081116110db576040517f08c379a00000000000000000000000000000000000000000000000000000000081526004016110d290614162565b60405180910390fd5b806007819055507f35eb434259409ef3e95c7f105e9d370beb79bc0d16db0e63041d77a53ba4650b816040516111119190613a64565b60405180910390a150565b60095481565b600080620f42406004546003546111399190614182565b611143919061400d565b90506000620f4240655af3107a400061115c919061400d565b9050600081836005546006546111729190614182565b61117c9190613f9c565b611186919061400d565b60055461119391906141b6565b905060008584116111a55760006111b2565b85846111b19190614182565b5b9050600083826005546006546111c89190614182565b6111d29190613f9c565b6111dc919061400d565b6005546111e991906141b6565b9050600060028885846111fc91906141b6565b6112069190613f9c565b611210919061400d565b9050809650505050505050919050565b611228613149565b611230613220565b600c60149054906101000a900460ff1615611280576040517f08c379a000000000000000000000000000000000000000000000000000000000815260040161127790614236565b60405180910390fd5b600073ffffffffffffffffffffffffffffffffffffffff16600b60009054906101000a900473ffffffffffffffffffffffffffffffffffffffff1673ffffffffffffffffffffffffffffffffffffffff1603611311576040517f08c379a0000000000000000000000000000000000000000000000000000000008152600401611308906142a2565b60405180910390fd5b6000600260009054906101000a900473ffffffffffffffffffffffffffffffffffffffff1673ffffffffffffffffffffffffffffffffffffffff166370a08231306040518263ffffffff1660e01b815260040161136e9190613bfb565b602060405180830381865afa15801561138b573d6000803e3d6000fd5b505050506040513d601f19601f820116820180604052508101906113af9190613d7d565b905060004790506000821180156113c65750600081115b611405576040517f08c379a00000000000000000000000000000000000000000000000000000000081526004016113fc9061430e565b60405180910390fd5b600260009054906101000a900473ffffffffffffffffffffffffffffffffffffffff1673ffffffffffffffffffffffffffffffffffffffff1663095ea7b3600b60009054906101000a900473ffffffffffffffffffffffffffffffffffffffff16846040518363ffffffff1660e01b8152600401611484929190613e56565b6020604051808303816000875af11580156114a3573d6000803e3d6000fd5b505050506040513d601f19601f820116820180604052508101906114c79190613eab565b506000600b60009054906101000a900473ffffffffffffffffffffffffffffffffffffffff1673ffffffffffffffffffffffffffffffffffffffff1663561c111e83600260009054906101000a900473ffffffffffffffffffffffffffffffffffffffff16866040518463ffffffff1660e01b815260040161154a929190613e56565b60206040518083038185885af1158015611568573d6000803e3d6000fd5b50505050506040513d601f19601f8201168201806040525081019061158d9190614343565b90506001600c60146101000a81548160ff02191690831515021790555080600c60006101000a81548173ffffffffffffffffffffffffffffffffffffffff021916908373ffffffffffffffffffffffffffffffffffffffff1602179055507fcff2ec0ebdec5701ad23dad19d93ff362d067f52080fff6dad87c40a534653ac81848460405161161e93929190614370565b60405180910390a1505050565b600080600080655af3107a4000935060045460035461164a9190614182565b925082841161165a576000611667565b82846116669190614182565b5b9150836103e8846116789190613f9c565b611682919061400d565b905090919293565b600d8060000154908060010154908060020154908060030160009054906101000a900460ff16905084565b6116bd613149565b6116c5613260565b565b60075481565b6116d5613149565b600073ffffffffffffffffffffffffffffffffffffffff168173ffffffffffffffffffffffffffffffffffffffff1603611744576040517f08c379a000000000000000000000000000000000000000000000000000000000815260040161173b906143f3565b60405180910390fd5b80600b60006101000a81548173ffffffffffffffffffffffffffffffffffffffff021916908373ffffffffffffffffffffffffffffffffffffffff1602179055507f191b3e86916e9448c9bdf8fa73512ab274e29fcca4332ad11a1f295808e20114816040516117b49190613bfb565b60405180910390a150565b6117c7613149565b6117cf6131d0565b600073ffffffffffffffffffffffffffffffffffffffff168373ffffffffffffffffffffffffffffffffffffffff160361183e576040517f08c379a00000000000000000000000000000000000000000000000000000000081526004016118359061445f565b60405180910390fd5b600082118061184d5750600081115b61188c576040517f08c379a0000000000000000000000000000000000000000000000000000000008152600401611883906144cb565b60405180910390fd5b600260009054906101000a900473ffffffffffffffffffffffffffffffffffffffff1673ffffffffffffffffffffffffffffffffffffffff166370a08231306040518263ffffffff1660e01b81526004016118e79190613bfb565b602060405180830381865afa158015611904573d6000803e3d6000fd5b505050506040513d601f19601f820116820180604052508101906119289190613d7d565b82111561196a576040517f08c379a000000000000000000000000000000000000000000000000000000000815260040161196190614537565b60405180910390fd5b478111156119ad576040517f08c379a00000000000000000000000000000000000000000000000000000000081526004016119a4906145a3565b60405180910390fd5b6000821115611a9657600260009054906101000a900473ffffffffffffffffffffffffffffffffffffffff1673ffffffffffffffffffffffffffffffffffffffff1663a9059cbb84846040518363ffffffff1660e01b8152600401611a13929190613e56565b6020604051808303816000875af1158015611a32573d6000803e3d6000fd5b505050506040513d601f19601f82011682018060405250810190611a569190613eab565b611a95576040517f08c379a0000000000000000000000000000000000000000000000000000000008152600401611a8c9061460f565b60405180910390fd5b5b6000811115611ae7578273ffffffffffffffffffffffffffffffffffffffff166108fc829081150290604051600060405180830381858888f19350505050158015611ae5573d6000803e3d6000fd5b505b8273ffffffffffffffffffffffffffffffffffffffff167f792df17e178028ca35d1dc4ee6b45e949ade06937d49caa7acb32962ef62a8d28383604051611b2f929190613f44565b60405180910390a2611b3f613216565b505050565b60035481565b600080620f4240600454600354611b619190614182565b611b6b919061400d565b90506000620f4240655af3107a4000611b84919061400d565b905060008183600554600654611b9a9190614182565b611ba49190613f9c565b611bae919061400d565b600554611bbb91906141b6565b905060008584611bcb91906141b6565b905082811115611bd9578290505b60008382600554600654611bed9190614182565b611bf79190613f9c565b611c01919061400d565b600554611c0e91906141b6565b905060006002888386611c2191906141b6565b611c2b9190613f9c565b611c35919061400d565b9050809650505050505050919050565b6000600160149054906101000a900460ff16905090565b600080600060085447600260009054906101000a900473ffffffffffffffffffffffffffffffffffffffff1673ffffffffffffffffffffffffffffffffffffffff166370a08231306040518263ffffffff1660e01b8152600401611cc09190613bfb565b602060405180830381865afa158015611cdd573d6000803e3d6000fd5b505050506040513d601f19601f82011682018060405250810190611d019190613d7d565b925092509250909192565b611d14613149565b600d60030160009054906101000a900460ff16611d66576040517f08c379a0000000000000000000000000000000000000000000000000000000008152600401611d5d9061467b565b60405180910390fd5b6000600d60030160006101000a81548160ff0219169083151502179055506000600d600001819055506000600d600101819055506000600d60020181905550565b600c60009054906101000a900473ffffffffffffffffffffffffffffffffffffffff1681565b600a60009054906101000a900473ffffffffffffffffffffffffffffffffffffffff1681565b611dfb613149565b611e0560006132c3565b565b6298968081565b611e16613149565b611e1e6131d0565b600d60030160009054906101000a900460ff16611e70576040517f08c379a0000000000000000000000000000000000000000000000000000000008152600401611e679061467b565b60405180910390fd5b62015180600d60020154611e8491906141b6565b421015611ec6576040517f08c379a0000000000000000000000000000000000000000000000000000000008152600401611ebd906146e7565b60405180910390fd5b6000600d6000015490506000600d6001015490506000600d60030160006101000a81548160ff0219169083151502179055506000600d600001819055506000600d600101819055506000600d60020181905550600082111561200957600260009054906101000a900473ffffffffffffffffffffffffffffffffffffffff1673ffffffffffffffffffffffffffffffffffffffff1663a9059cbb611f68612240565b846040518363ffffffff1660e01b8152600401611f86929190613e56565b6020604051808303816000875af1158015611fa5573d6000803e3d6000fd5b505050506040513d601f19601f82011682018060405250810190611fc99190613eab565b612008576040517f08c379a0000000000000000000000000000000000000000000000000000000008152600401611fff9061460f565b60405180910390fd5b5b60008111156120615761201a612240565b73ffffffffffffffffffffffffffffffffffffffff166108fc829081150290604051600060405180830381858888f1935050505015801561205f573d6000803e3d6000fd5b505b7f7bb3225129fc9dfdc521a486bb00ec79c36e2abf9e032fab88b93e0f5cfaf0488282604051612092929190613f44565b60405180910390a150506120a4613216565b565b655af3107a400081565b600281565b6000806120c183611b4a565b90506007546064826120d39190613f9c565b6120dd919061400d565b915050919050565b6120ed613149565b600073ffffffffffffffffffffffffffffffffffffffff168173ffffffffffffffffffffffffffffffffffffffff160361215c576040517f08c379a000000000000000000000000000000000000000000000000000000000815260040161215390614753565b60405180910390fd5b80600a60006101000a81548173ffffffffffffffffffffffffffffffffffffffff021916908373ffffffffffffffffffffffffffffffffffffffff16021790555050565b6121a8613149565b6121b0613389565b565b6121ba613149565b6103e88111156121ff576040517f08c379a00000000000000000000000000000000000000000000000000000000081526004016121f6906147bf565b60405180910390fd5b806009819055507f495ee53ee22006979ebc689a00ed737d7c13b6419142f82dcaea4ed95ac1e780816040516122359190613a64565b60405180910390a150565b6000600160009054906101000a900473ffffffffffffffffffffffffffffffffffffffff16905090565b612272613149565b61227a613220565b600081116122bd576040517f08c379a00000000000000000000000000000000000000000000000000000000081526004016122b490614851565b60405180910390fd5b6006548110612301576040517f08c379a00000000000000000000000000000000000000000000000000000000081526004016122f8906148e3565b60405180910390fd5b806005819055507f1ebe6b7b7005f1aa69bf4d29be5021907cd512d9e0d2aa4abd10a56cb45242b9816040516123379190613a64565b60405180910390a150565b60065481565b612350613149565b612358613220565b600554811161239c576040517f08c379a000000000000000000000000000000000000000000000000000000000815260040161239390614975565b60405180910390fd5b806006819055507f8befc2dbaa473eaf770fc7fce65d45fb218ac302e5a83c7dcc9d57ecaad0697e816040516123d29190613a64565b60405180910390a150565b600260009054906101000a900473ffffffffffffffffffffffffffffffffffffffff1681565b61240b6133eb565b6124136131d0565b60008111612456576040517f08c379a000000000000000000000000000000000000000000000000000000000815260040161244d906149e1565b60405180910390fd5b6298968081111561249c576040517f08c379a000000000000000000000000000000000000000000000000000000000815260040161249390614a4d565b60405180910390fd5b655af3107a4000620f4240826124b29190613f9c565b6004546003546124c29190614182565b6124cc91906141b6565b111561250d576040517f08c379a000000000000000000000000000000000000000000000000000000000815260040161250490614ab9565b60405180910390fd5b600061251882611b4a565b90508034101561255d576040517f08c379a000000000000000000000000000000000000000000000000000000000815260040161255490614b25565b60405180910390fd5b620f42408261256c9190613f9c565b600260009054906101000a900473ffffffffffffffffffffffffffffffffffffffff1673ffffffffffffffffffffffffffffffffffffffff166370a08231306040518263ffffffff1660e01b81526004016125c79190613bfb565b602060405180830381865afa1580156125e4573d6000803e3d6000fd5b505050506040513d601f19601f820116820180604052508101906126089190613d7d565b1015612649576040517f08c379a000000000000000000000000000000000000000000000000000000000815260040161264090614b91565b60405180910390fd5b600260009054906101000a900473ffffffffffffffffffffffffffffffffffffffff1673ffffffffffffffffffffffffffffffffffffffff1663a9059cbb33620f4240856126979190613f9c565b6040518363ffffffff1660e01b81526004016126b4929190613e56565b6020604051808303816000875af11580156126d3573d6000803e3d6000fd5b505050506040513d601f19601f820116820180604052508101906126f79190613eab565b50620f4240826127079190613f9c565b6003600082825461271891906141b6565b92505081905550806008600082825461273191906141b6565b925050819055503373ffffffffffffffffffffffffffffffffffffffff167f1cbc5ab135991bd2b6a4b034a04aa2aa086dac1371cb9b16b8b5e2ed6b036bed8383604051612780929190613f44565b60405180910390a2655af3107a400060045460035461279f9190614182565b106127ad576127ac61342c565b5b80341115612808573373ffffffffffffffffffffffffffffffffffffffff166108fc82346127db9190614182565b9081150290604051600060405180830381858888f19350505050158015612806573d6000803e3d6000fd5b505b50612811613216565b50565b600061281e6133eb565b6128266131d0565b60008211612869576040517f08c379a0000000000000000000000000000000000000000000000000000000008152600401612860906149e1565b60405180910390fd5b629896808211156128af576040517f08c379a00000000000000000000000000000000000000000000000000000000081526004016128a690614a4d565b60405180910390fd5b600c60149054906101000a900460ff16801561291a5750600073ffffffffffffffffffffffffffffffffffffffff16600c60009054906101000a900473ffffffffffffffffffffffffffffffffffffffff1673ffffffffffffffffffffffffffffffffffffffff1614155b15612bf157600260009054906101000a900473ffffffffffffffffffffffffffffffffffffffff1673ffffffffffffffffffffffffffffffffffffffff166323b872dd3330620f42408661296e9190613f9c565b6040518463ffffffff1660e01b815260040161298c93929190614bb1565b6020604051808303816000875af11580156129ab573d6000803e3d6000fd5b505050506040513d601f19601f820116820180604052508101906129cf9190613eab565b50600260009054906101000a900473ffffffffffffffffffffffffffffffffffffffff1673ffffffffffffffffffffffffffffffffffffffff1663095ea7b3600c60009054906101000a900473ffffffffffffffffffffffffffffffffffffffff16620f424085612a409190613f9c565b6040518363ffffffff1660e01b8152600401612a5d929190613e56565b6020604051808303816000875af1158015612a7c573d6000803e3d6000fd5b505050506040513d601f19601f82011682018060405250810190612aa09190613eab565b506000600c60009054906101000a900473ffffffffffffffffffffffffffffffffffffffff1673ffffffffffffffffffffffffffffffffffffffff16638969461d620f424085612af09190613f9c565b6040518263ffffffff1660e01b8152600401612b0c9190613a64565b6020604051808303816000875af1158015612b2b573d6000803e3d6000fd5b505050506040513d601f19601f82011682018060405250810190612b4f9190613d7d565b90503373ffffffffffffffffffffffffffffffffffffffff166108fc829081150290604051600060405180830381858888f19350505050158015612b97573d6000803e3d6000fd5b503373ffffffffffffffffffffffffffffffffffffffff167fed7a144fad14804d5c249145e3e0e2b63a9eb455b76aee5bc92d711e9bba3e4a8483604051612be0929190613f44565b60405180910390a280915050612ffb565b6000612bfc83611122565b9050600061271060095483612c119190613f9c565b612c1b919061400d565b90506000600282612c2c919061400d565b905060008183612c3c9190614182565b905060008385612c4c9190614182565b90508181612c5a91906141b6565b6008541015612c9e576040517f08c379a0000000000000000000000000000000000000000000000000000000008152600401612c9590614c34565b60405180910390fd5b8281612caa91906141b6565b471015612cec576040517f08c379a0000000000000000000000000000000000000000000000000000000008152600401612ce3906145a3565b60405180910390fd5b600260009054906101000a900473ffffffffffffffffffffffffffffffffffffffff1673ffffffffffffffffffffffffffffffffffffffff166323b872dd3330620f42408b612d3b9190613f9c565b6040518463ffffffff1660e01b8152600401612d5993929190614bb1565b6020604051808303816000875af1158015612d78573d6000803e3d6000fd5b505050506040513d601f19601f82011682018060405250810190612d9c9190613eab565b50620f424087612dac9190613f9c565b60046000828254612dbd91906141b6565b925050819055508082600854612dd391906141b6565b612ddd9190614182565b6008819055503373ffffffffffffffffffffffffffffffffffffffff166108fc829081150290604051600060405180830381858888f19350505050158015612e29573d6000803e3d6000fd5b506000600a60009054906101000a900473ffffffffffffffffffffffffffffffffffffffff1673ffffffffffffffffffffffffffffffffffffffff16846040516024016040516020818303038152906040527fbd237741000000000000000000000000000000000000000000000000000000007bffffffffffffffffffffffffffffffffffffffffffffffffffffffff19166020820180517bffffffffffffffffffffffffffffffffffffffffffffffffffffffff8381831617835250505050604051612ef69190614cc5565b60006040518083038185875af1925050503d8060008114612f33576040519150601f19603f3d011682016040523d82523d6000602084013e612f38565b606091505b5050905080612f7c576040517f08c379a0000000000000000000000000000000000000000000000000000000008152600401612f7390614d28565b60405180910390fd5b3373ffffffffffffffffffffffffffffffffffffffff167fed7a144fad14804d5c249145e3e0e2b63a9eb455b76aee5bc92d711e9bba3e4a8984604051612fc4929190613f44565b60405180910390a2655af3107a4000600454600354612fe39190614182565b10612ff157612ff061342c565b5b8196505050505050505b613003613216565b919050565b600b60009054906101000a900473ffffffffffffffffffffffffffffffffffffffff1681565b600080620f42406004546003546130459190614182565b61304f919061400d565b90506000620f4240655af3107a4000613068919061400d565b905080821061307d57600654925050506130b5565b808260055460065461308f9190614182565b6130999190613f9c565b6130a3919061400d565b6005546130b091906141b6565b925050505b90565b60045481565b600681565b6130cb613149565b600073ffffffffffffffffffffffffffffffffffffffff168173ffffffffffffffffffffffffffffffffffffffff160361313d5760006040517f1e4fbdf70000000000000000000000000000000000000000000000000000000081526004016131349190613bfb565b60405180910390fd5b613146816132c3565b50565b613151613537565b73ffffffffffffffffffffffffffffffffffffffff1661316f612240565b73ffffffffffffffffffffffffffffffffffffffff16146131ce57613192613537565b6040517f118cdaa70000000000000000000000000000000000000000000000000000000081526004016131c59190613bfb565b60405180910390fd5b565b60026000540361320c576040517f3ee5aeb500000000000000000000000000000000000000000000000000000000815260040160405180910390fd5b6002600081905550565b6001600081905550565b613228611c45565b61325e576040517f8dfc202b00000000000000000000000000000000000000000000000000000000815260040160405180910390fd5b565b613268613220565b6000600160146101000a81548160ff0219169083151502179055507f5db9ee0a495bf2e6ff9c91a7834c1ba4fdd244a5e8aa4e537bd38aeae4b073aa6132ac613537565b6040516132b99190613bfb565b60405180910390a1565b6000600160009054906101000a900473ffffffffffffffffffffffffffffffffffffffff16905081600160006101000a81548173ffffffffffffffffffffffffffffffffffffffff021916908373ffffffffffffffffffffffffffffffffffffffff1602179055508173ffffffffffffffffffffffffffffffffffffffff168173ffffffffffffffffffffffffffffffffffffffff167f8be0079c531659141344cd1fd0a4f28419497f9722a3daafe3b4186f6b6457e060405160405180910390a35050565b6133916133eb565b60018060146101000a81548160ff0219169083151502179055507f62e78cea01bee320cd4e420270b5ea74000d11b0c9f74754ebdbfc544b05a2586133d4613537565b6040516133e19190613bfb565b60405180910390a1565b6133f3611c45565b1561342a576040517fd93c066500000000000000000000000000000000000000000000000000000000815260040160405180910390fd5b565b600c60149054906101000a900460ff161561348b57613449613389565b7f8ed12daf03921f6cf3d38d560dee47e5e323c2a96469beef3cdb39c23ef1a74260035460045460405161347e929190613f44565b60405180910390a1613535565b600073ffffffffffffffffffffffffffffffffffffffff16600b60009054906101000a900473ffffffffffffffffffffffffffffffffffffffff1673ffffffffffffffffffffffffffffffffffffffff16146134ee576134e961353f565b613534565b6134f6613389565b7f8ed12daf03921f6cf3d38d560dee47e5e323c2a96469beef3cdb39c23ef1a74260035460045460405161352b929190613f44565b60405180910390a15b5b565b600033905090565b6000600260009054906101000a900473ffffffffffffffffffffffffffffffffffffffff1673ffffffffffffffffffffffffffffffffffffffff166370a08231306040518263ffffffff1660e01b815260040161359c9190613bfb565b602060405180830381865afa1580156135b9573d6000803e3d6000fd5b505050506040513d601f19601f820116820180604052508101906135dd9190613d7d565b905060004790506000821180156135f45750600081115b613633576040517f08c379a000000000000000000000000000000000000000000000000000000000815260040161362a9061430e565b60405180910390fd5b600260009054906101000a900473ffffffffffffffffffffffffffffffffffffffff1673ffffffffffffffffffffffffffffffffffffffff1663095ea7b3600b60009054906101000a900473ffffffffffffffffffffffffffffffffffffffff16846040518363ffffffff1660e01b81526004016136b2929190613e56565b6020604051808303816000875af11580156136d1573d6000803e3d6000fd5b505050506040513d601f19601f820116820180604052508101906136f59190613eab565b50600b60009054906101000a900473ffffffffffffffffffffffffffffffffffffffff1673ffffffffffffffffffffffffffffffffffffffff1663561c111e82600260009054906101000a900473ffffffffffffffffffffffffffffffffffffffff16856040518463ffffffff1660e01b8152600401613776929190613e56565b60206040518083038185885af1935050505080156137b257506040513d601f19601f820116820180604052508101906137af9190614343565b60015b613800576137be613389565b7f8ed12daf03921f6cf3d38d560dee47e5e323c2a96469beef3cdb39c23ef1a7426003546004546040516137f3929190613f44565b60405180910390a16138de565b6001600c60146101000a81548160ff02191690831515021790555080600c60006101000a81548173ffffffffffffffffffffffffffffffffffffffff021916908373ffffffffffffffffffffffffffffffffffffffff1602179055507fcff2ec0ebdec5701ad23dad19d93ff362d067f52080fff6dad87c40a534653ac81848460405161388f93929190614370565b60405180910390a161389f613389565b7f8ed12daf03921f6cf3d38d560dee47e5e323c2a96469beef3cdb39c23ef1a7426003546004546040516138d4929190613f44565b60405180910390a1505b5050565b600082825260208201905092915050565b7f436f6e747261637420646f6573206e6f7420616363657074206469726563742060008201527f53207472616e7366657273000000000000000000000000000000000000000000602082015250565b600061394f602b836138e2565b915061395a826138f3565b604082019050919050565b6000602082019050818103600083015261397e81613942565b9050919050565b60008115159050919050565b61399a81613985565b82525050565b60006020820190506139b56000830184613991565b92915050565b600080fd5b600073ffffffffffffffffffffffffffffffffffffffff82169050919050565b60006139eb826139c0565b9050919050565b6139fb816139e0565b8114613a0657600080fd5b50565b600081359050613a18816139f2565b92915050565b600060208284031215613a3457613a336139bb565b5b6000613a4284828501613a09565b91505092915050565b6000819050919050565b613a5e81613a4b565b82525050565b6000602082019050613a796000830184613a55565b92915050565b613a8881613a4b565b8114613a9357600080fd5b50565b600081359050613aa581613a7f565b92915050565b600060208284031215613ac157613ac06139bb565b5b6000613acf84828501613a96565b91505092915050565b6000608082019050613aed6000830187613a55565b613afa6020830186613a55565b613b076040830185613a55565b613b146060830184613a55565b95945050505050565b6000608082019050613b326000830187613a55565b613b3f6020830186613a55565b613b4c6040830185613a55565b613b596060830184613991565b95945050505050565b600080600060608486031215613b7b57613b7a6139bb565b5b6000613b8986828701613a09565b9350506020613b9a86828701613a96565b9250506040613bab86828701613a96565b9150509250925092565b6000606082019050613bca6000830186613a55565b613bd76020830185613a55565b613be46040830184613a55565b949350505050565b613bf5816139e0565b82525050565b6000602082019050613c106000830184613bec565b92915050565b6000819050919050565b6000613c3b613c36613c31846139c0565b613c16565b6139c0565b9050919050565b6000613c4d82613c20565b9050919050565b6000613c5f82613c42565b9050919050565b613c6f81613c54565b82525050565b6000602082019050613c8a6000830184613c66565b92915050565b7f496e76616c696420726563697069656e74206164647265737300000000000000600082015250565b6000613cc66019836138e2565b9150613cd182613c90565b602082019050919050565b60006020820190508181036000830152613cf581613cb9565b9050919050565b7f4e6f206c697175696469747920706f6f6c206372656174656400000000000000600082015250565b6000613d326019836138e2565b9150613d3d82613cfc565b602082019050919050565b60006020820190508181036000830152613d6181613d25565b9050919050565b600081519050613d7781613a7f565b92915050565b600060208284031215613d9357613d926139bb565b5b6000613da184828501613d68565b91505092915050565b7f4e6f204c5020746f6b656e7320746f2077697468647261770000000000000000600082015250565b6000613de06018836138e2565b9150613deb82613daa565b602082019050919050565b60006020820190508181036000830152613e0f81613dd3565b9050919050565b60008060408385031215613e2d57613e2c6139bb565b5b6000613e3b85828601613d68565b9250506020613e4c85828601613d68565b9150509250929050565b6000604082019050613e6b6000830185613bec565b613e786020830184613a55565b9392505050565b613e8881613985565b8114613e9357600080fd5b50565b600081519050613ea581613e7f565b92915050565b600060208284031215613ec157613ec06139bb565b5b6000613ecf84828501613e96565b91505092915050565b7f546f6b656e207472616e73666572206661696c65640000000000000000000000600082015250565b6000613f0e6015836138e2565b9150613f1982613ed8565b602082019050919050565b60006020820190508181036000830152613f3d81613f01565b9050919050565b6000604082019050613f596000830185613a55565b613f666020830184613a55565b9392505050565b7f4e487b7100000000000000000000000000000000000000000000000000000000600052601160045260246000fd5b6000613fa782613a4b565b9150613fb283613a4b565b9250828202613fc081613a4b565b91508282048414831517613fd757613fd6613f6d565b5b5092915050565b7f4e487b7100000000000000000000000000000000000000000000000000000000600052601260045260246000fd5b600061401882613a4b565b915061402383613a4b565b92508261403357614032613fde565b5b828204905092915050565b7f5769746864726177616c20616c72656164792072657175657374656400000000600082015250565b6000614074601c836138e2565b915061407f8261403e565b602082019050919050565b600060208201905081810360008301526140a381614067565b9050919050565b7f4e6f7468696e6720746f20776974686472617700000000000000000000000000600082015250565b60006140e06013836138e2565b91506140eb826140aa565b602082019050919050565b6000602082019050818103600083015261410f816140d3565b9050919050565b7f53207072696365206d7573742062652067726561746572207468616e20300000600082015250565b600061414c601e836138e2565b915061415782614116565b602082019050919050565b6000602082019050818103600083015261417b8161413f565b9050919050565b600061418d82613a4b565b915061419883613a4b565b92508282039050818111156141b0576141af613f6d565b5b92915050565b60006141c182613a4b565b91506141cc83613a4b565b92508282019050808211156141e4576141e3613f6d565b5b92915050565b7f506f6f6c20616c72656164792063726561746564000000000000000000000000600082015250565b60006142206014836138e2565b915061422b826141ea565b602082019050919050565b6000602082019050818103600083015261424f81614213565b9050919050565b7f466163746f7279206e6f74207365740000000000000000000000000000000000600082015250565b600061428c600f836138e2565b915061429782614256565b602082019050919050565b600060208201905081810360008301526142bb8161427f565b9050919050565b7f4e6f2061737365747320746f2063726561746520706f6f6c0000000000000000600082015250565b60006142f86018836138e2565b9150614303826142c2565b602082019050919050565b60006020820190508181036000830152614327816142eb565b9050919050565b60008151905061433d816139f2565b92915050565b600060208284031215614359576143586139bb565b5b60006143678482850161432e565b91505092915050565b60006060820190506143856000830186613bec565b6143926020830185613a55565b61439f6040830184613a55565b949350505050565b7f496e76616c696420666163746f72792061646472657373000000000000000000600082015250565b60006143dd6017836138e2565b91506143e8826143a7565b602082019050919050565b6000602082019050818103600083015261440c816143d0565b9050919050565b7f496e76616c696420706f6f6c2061646472657373000000000000000000000000600082015250565b60006144496014836138e2565b915061445482614413565b602082019050919050565b600060208201905081810360008301526144788161443c565b9050919050565b7f4e6f7468696e6720746f2073656e640000000000000000000000000000000000600082015250565b60006144b5600f836138e2565b91506144c08261447f565b602082019050919050565b600060208201905081810360008301526144e4816144a8565b9050919050565b7f496e73756666696369656e7420313030782062616c616e636500000000000000600082015250565b60006145216019836138e2565b915061452c826144eb565b602082019050919050565b6000602082019050818103600083015261455081614514565b9050919050565b7f496e73756666696369656e7420532062616c616e636500000000000000000000600082015250565b600061458d6016836138e2565b915061459882614557565b602082019050919050565b600060208201905081810360008301526145bc81614580565b9050919050565b7f31303078207472616e73666572206661696c6564000000000000000000000000600082015250565b60006145f96014836138e2565b9150614604826145c3565b602082019050919050565b60006020820190508181036000830152614628816145ec565b9050919050565b7f4e6f20616374697665207769746864726177616c207265717565737400000000600082015250565b6000614665601c836138e2565b91506146708261462f565b602082019050919050565b6000602082019050818103600083015261469481614658565b9050919050565b7f54696d656c6f636b206e6f742065787069726564000000000000000000000000600082015250565b60006146d16014836138e2565b91506146dc8261469b565b602082019050919050565b60006020820190508181036000830152614700816146c4565b9050919050565b7f496e76616c6964206a61636b706f742061646472657373000000000000000000600082015250565b600061473d6017836138e2565b915061474882614707565b602082019050919050565b6000602082019050818103600083015261476c81614730565b9050919050565b7f46656520746f6f20686967680000000000000000000000000000000000000000600082015250565b60006147a9600c836138e2565b91506147b482614773565b602082019050919050565b600060208201905081810360008301526147d88161479c565b9050919050565b7f496e697469616c207072696365206d757374206265206772656174657220746860008201527f616e203000000000000000000000000000000000000000000000000000000000602082015250565b600061483b6024836138e2565b9150614846826147df565b604082019050919050565b6000602082019050818103600083015261486a8161482e565b9050919050565b7f496e697469616c207072696365206d757374206265206c657373207468616e2060008201527f66696e616c207072696365000000000000000000000000000000000000000000602082015250565b60006148cd602b836138e2565b91506148d882614871565b604082019050919050565b600060208201905081810360008301526148fc816148c0565b9050919050565b7f46696e616c207072696365206d7573742062652067726561746572207468616e60008201527f20696e697469616c207072696365000000000000000000000000000000000000602082015250565b600061495f602e836138e2565b915061496a82614903565b604082019050919050565b6000602082019050818103600083015261498e81614952565b9050919050565b7f416d6f756e74206d7573742062652067726561746572207468616e2030000000600082015250565b60006149cb601d836138e2565b91506149d682614995565b602082019050919050565b600060208201905081810360008301526149fa816149be565b9050919050565b7f416d6f756e7420746f6f206c6172676500000000000000000000000000000000600082015250565b6000614a376010836138e2565b9150614a4282614a01565b602082019050919050565b60006020820190508181036000830152614a6681614a2a565b9050919050565b7f45786365656473207468726573686f6c64000000000000000000000000000000600082015250565b6000614aa36011836138e2565b9150614aae82614a6d565b602082019050919050565b60006020820190508181036000830152614ad281614a96565b9050919050565b7f496e73756666696369656e7420532073656e7400000000000000000000000000600082015250565b6000614b0f6013836138e2565b9150614b1a82614ad9565b602082019050919050565b60006020820190508181036000830152614b3e81614b02565b9050919050565b7f496e73756666696369656e74203130307820696e20706f6f6c00000000000000600082015250565b6000614b7b6019836138e2565b9150614b8682614b45565b602082019050919050565b60006020820190508181036000830152614baa81614b6e565b9050919050565b6000606082019050614bc66000830186613bec565b614bd36020830185613bec565b614be06040830184613a55565b949350505050565b7f496e73756666696369656e7420706f6f6c205300000000000000000000000000600082015250565b6000614c1e6013836138e2565b9150614c2982614be8565b602082019050919050565b60006020820190508181036000830152614c4d81614c11565b9050919050565b600081519050919050565b600081905092915050565b60005b83811015614c88578082015181840152602081019050614c6d565b60008484015250505050565b6000614c9f82614c54565b614ca98185614c5f565b9350614cb9818560208601614c6a565b80840191505092915050565b6000614cd18284614c94565b915081905092915050565b7f4a61636b706f742066756e64696e67206661696c656400000000000000000000600082015250565b6000614d126016836138e2565b9150614d1d82614cdc565b602082019050919050565b60006020820190508181036000830152614d4181614d05565b905091905056fea2646970667358221220870e4b30f0a82d243ef547beed505769c0fc7b27dd7642c5f7905180c06236a764736f6c634300081c0033",
  "linkReferences": {},
  "deployedLinkReferences": {}
}