{
  "_format": "hh-sol-artifact-1",
  "contractName": "BondingCurve",
  "sourceName": "contracts/BondingCurve.sol",
  "abi": [
    {
      "inputs": [
        {
          "internalType": "address",
          "name": "_token100x",
          "type": "address"
        }
      ],
      "stateMutability": "nonpayable",
      "type": "constructor"
    },
    {
      "inputs": [],
      "name": "EnforcedPause",
      "type": "error"
    },
    {
      "inputs": [],
      "name": "ExpectedPause",
      "type": "error"
    },
    {
      "inputs": [
        {
          "internalType": "address",
          "name": "owner",
          "type": "address"
        }
      ],
      "name": "OwnableInvalidOwner",
      "type": "error"
    },
    {
      "inputs": [
        {
          "internalType": "address",
          "name": "account",
          "type": "address"
        }
      ],
      "name": "OwnableUnauthorizedAccount",
      "type": "error"
    },
    {
      "inputs": [],
      "name": "ReentrancyGuardReentrantCall",
      "type": "error"
    },
    {
      "anonymous": false,
      "inputs": [
        {
          "indexed": true,
          "internalType": "address",
          "name": "buyer",
          "type": "address"
        },
        {
          "indexed": false,
          "internalType": "uint256",
          "name": "tokenAmount",
          "type": "uint256"
        },
        {
          "indexed": false,
          "internalType": "uint256",
          "name": "sPaid",
          "type": "uint256"
        }
      ],
      "name": "Buy",
      "type": "event"
    },
    {
      "anonymous": false,
      "inputs": [
        {
          "indexed": false,
          "internalType": "uint256",
          "name": "newPrice",
          "type": "uint256"
        }
      ],
      "name": "FinalPriceUpdated",
      "type": "event"
    },
    {
      "anonymous": false,
      "inputs": [
        {
          "indexed": false,
          "internalType": "uint256",
          "name": "tokenAmount",
          "type": "uint256"
        },
        {
          "indexed": false,
          "internalType": "uint256",
          "name": "sAmount",
          "type": "uint256"
        }
      ],
      "name": "FullTimelockWithdrawExecuted",
      "type": "event"
    },
    {
      "anonymous": false,
      "inputs": [
        {
          "indexed": false,
          "internalType": "uint256",
          "name": "tokenAmount",
          "type": "uint256"
        },
        {
          "indexed": false,
          "internalType": "uint256",
          "name": "sAmount",
          "type": "uint256"
        },
        {
          "indexed": false,
          "internalType": "uint256",
          "name": "requestTime",
          "type": "uint256"
        }
      ],
      "name": "FullTimelockWithdrawRequested",
      "type": "event"
    },
    {
      "anonymous": false,
      "inputs": [
        {
          "indexed": false,
          "internalType": "uint256",
          "name": "newPrice",
          "type": "uint256"
        }
      ],
      "name": "InitialPriceUpdated",
      "type": "event"
    },
    {
      "anonymous": false,
      "inputs": [
        {
          "indexed": false,
          "internalType": "address",
          "name": "pool",
          "type": "address"
        },
        {
          "indexed": false,
          "internalType": "uint256",
          "name": "tokenAmount",
          "type": "uint256"
        },
        {
          "indexed": false,
          "internalType": "uint256",
          "name": "sAmount",
          "type": "uint256"
        }
      ],
      "name": "LiquidityPoolCreated",
      "type": "event"
    },
    {
      "anonymous": false,
      "inputs": [
        {
          "indexed": false,
          "internalType": "address",
          "name": "factory",
          "type": "address"
        }
      ],
      "name": "LiquidityPoolFactorySet",
      "type": "event"
    },
    {
      "anonymous": false,
      "inputs": [
        {
          "indexed": true,
          "internalType": "address",
          "name": "previousOwner",
          "type": "address"
        },
        {
          "indexed": true,
          "internalType": "address",
          "name": "newOwner",
          "type": "address"
        }
      ],
      "name": "OwnershipTransferred",
      "type": "event"
    },
    {
      "anonymous": false,
      "inputs": [
        {
          "indexed": false,
          "internalType": "address",
          "name": "account",
          "type": "address"
        }
      ],
      "name": "Paused",
      "type": "event"
    },
    {
      "anonymous": false,
      "inputs": [
        {
          "indexed": false,
          "internalType": "uint256",
          "name": "newSUsdPrice",
          "type": "uint256"
        }
      ],
      "name": "SUsdPriceUpdated",
      "type": "event"
    },
    {
      "anonymous": false,
      "inputs": [
        {
          "indexed": true,
          "internalType": "address",
          "name": "seller",
          "type": "address"
        },
        {
          "indexed": false,
          "internalType": "uint256",
          "name": "tokenAmount",
          "type": "uint256"
        },
        {
          "indexed": false,
          "internalType": "uint256",
          "name": "sReceived",
          "type": "uint256"
        }
      ],
      "name": "Sell",
      "type": "event"
    },
    {
      "anonymous": false,
      "inputs": [
        {
          "indexed": false,
          "internalType": "uint256",
          "name": "newFee",
          "type": "uint256"
        }
      ],
      "name": "SellFeeUpdated",
      "type": "event"
    },
    {
      "anonymous": false,
      "inputs": [
        {
          "indexed": true,
          "internalType": "address",
          "name": "pool",
          "type": "address"
        },
        {
          "indexed": false,
          "internalType": "uint256",
          "name": "tokenAmount",
          "type": "uint256"
        },
        {
          "indexed": false,
          "internalType": "uint256",
          "name": "sAmount",
          "type": "uint256"
        }
      ],
      "name": "SentToLiquidityPool",
      "type": "event"
    },
    {
      "anonymous": false,
      "inputs": [
        {
          "indexed": false,
          "internalType": "uint256",
          "name": "totalBought",
          "type": "uint256"
        },
        {
          "indexed": false,
          "internalType": "uint256",
          "name": "totalSoldBack",
          "type": "uint256"
        }
      ],
      "name": "ThresholdReached",
      "type": "event"
    },
    {
      "anonymous": false,
      "inputs": [
        {
          "indexed": false,
          "internalType": "uint256",
          "name": "amount",
          "type": "uint256"
        }
      ],
      "name": "TokenTransferred",
      "type": "event"
    },
    {
      "anonymous": false,
      "inputs": [
        {
          "indexed": false,
          "internalType": "address",
          "name": "account",
          "type": "address"
        }
      ],
      "name": "Unpaused",
      "type": "event"
    },
    {
      "inputs": [],
      "name": "MAX_TOKEN_AMOUNT_PER_TX",
      "outputs": [
        {
          "internalType": "uint256",
          "name": "",
          "type": "uint256"
        }
      ],
      "stateMutability": "view",
      "type": "function"
    },
    {
      "inputs": [],
      "name": "PRICE_DECIMALS",
      "outputs": [
        {
          "internalType": "uint256",
          "name": "",
          "type": "uint256"
        }
      ],
      "stateMutability": "view",
      "type": "function"
    },
    {
      "inputs": [],
      "name": "THRESHOLD",
      "outputs": [
        {
          "internalType": "uint256",
          "name": "",
          "type": "uint256"
        }
      ],
      "stateMutability": "view",
      "type": "function"
    },
    {
      "inputs": [],
      "name": "USD_PRICE_DECIMALS",
      "outputs": [
        {
          "internalType": "uint256",
          "name": "",
          "type": "uint256"
        }
      ],
      "stateMutability": "view",
      "type": "function"
    },
    {
      "inputs": [],
      "name": "WITHDRAW_DELAY",
      "outputs": [
        {
          "internalType": "uint256",
          "name": "",
          "type": "uint256"
        }
      ],
      "stateMutability": "view",
      "type": "function"
    },
    {
      "inputs": [
        {
          "internalType": "uint256",
          "name": "tokenAmount",
          "type": "uint256"
        }
      ],
      "name": "buy",
      "outputs": [],
      "stateMutability": "payable",
      "type": "function"
    },
    {
      "inputs": [
        {
          "internalType": "uint256",
          "name": "tokenAmount",
          "type": "uint256"
        }
      ],
      "name": "calculateBuyPrice",
      "outputs": [
        {
          "internalType": "uint256",
          "name": "",
          "type": "uint256"
        }
      ],
      "stateMutability": "view",
      "type": "function"
    },
    {
      "inputs": [
        {
          "internalType": "uint256",
          "name": "tokenAmount",
          "type": "uint256"
        }
      ],
      "name": "calculateSellPrice",
      "outputs": [
        {
          "internalType": "uint256",
          "name": "",
          "type": "uint256"
        }
      ],
      "stateMutability": "view",
      "type": "function"
    },
    {
      "inputs": [],
      "name": "cancelFullWithdraw",
      "outputs": [],
      "stateMutability": "nonpayable",
      "type": "function"
    },
    {
      "inputs": [],
      "name": "createLiquidityPoolManually",
      "outputs": [],
      "stateMutability": "nonpayable",
      "type": "function"
    },
    {
      "inputs": [],
      "name": "currentSUsdPrice",
      "outputs": [
        {
          "internalType": "uint256",
          "name": "",
          "type": "uint256"
        }
      ],
      "stateMutability": "view",
      "type": "function"
    },
    {
      "inputs": [],
      "name": "executeFullTimelockWithdraw",
      "outputs": [],
      "stateMutability": "nonpayable",
      "type": "function"
    },
    {
      "inputs": [],
      "name": "finalPrice",
      "outputs": [
        {
          "internalType": "uint256",
          "name": "",
          "type": "uint256"
        }
      ],
      "stateMutability": "view",
      "type": "function"
    },
    {
      "inputs": [],
      "name": "fullTimelockWithdraw",
      "outputs": [],
      "stateMutability": "nonpayable",
      "type": "function"
    },
    {
      "inputs": [],
      "name": "getCurrentPrice",
      "outputs": [
        {
          "internalType": "uint256",
          "name": "",
          "type": "uint256"
        }
      ],
      "stateMutability": "view",
      "type": "function"
    },
    {
      "inputs": [],
      "name": "getPoolInfo",
      "outputs": [
        {
          "internalType": "uint256",
          "name": "accountingS",
          "type": "uint256"
        },
        {
          "internalType": "uint256",
          "name": "actualS",
          "type": "uint256"
        },
        {
          "internalType": "uint256",
          "name": "tokenBalance",
          "type": "uint256"
        }
      ],
      "stateMutability": "view",
      "type": "function"
    },
    {
      "inputs": [],
      "name": "getSupplyStats",
      "outputs": [
        {
          "internalType": "uint256",
          "name": "totalSupply",
          "type": "uint256"
        },
        {
          "internalType": "uint256",
          "name": "sold",
          "type": "uint256"
        },
        {
          "internalType": "uint256",
          "name": "available",
          "type": "uint256"
        },
        {
          "internalType": "uint256",
          "name": "percentageSold",
          "type": "uint256"
        }
      ],
      "stateMutability": "view",
      "type": "function"
    },
    {
      "inputs": [
        {
          "internalType": "uint256",
          "name": "tokenAmount",
          "type": "uint256"
        }
      ],
      "name": "getUsdBuyPrice",
      "outputs": [
        {
          "internalType": "uint256",
          "name": "",
          "type": "uint256"
        }
      ],
      "stateMutability": "view",
      "type": "function"
    },
    {
      "inputs": [
        {
          "internalType": "uint256",
          "name": "tokenAmount",
          "type": "uint256"
        }
      ],
      "name": "getUsdSellPrice",
      "outputs": [
        {
          "internalType": "uint256",
          "name": "",
          "type": "uint256"
        }
      ],
      "stateMutability": "view",
      "type": "function"
    },
    {
      "inputs": [],
      "name": "initialPrice",
      "outputs": [
        {
          "internalType": "uint256",
          "name": "",
          "type": "uint256"
        }
      ],
      "stateMutability": "view",
      "type": "function"
    },
    {
      "inputs": [],
      "name": "jackpotAddress",
      "outputs": [
        {
          "internalType": "address",
          "name": "",
          "type": "address"
        }
      ],
      "stateMutability": "view",
      "type": "function"
    },
    {
      "inputs": [],
      "name": "liquidityPool",
      "outputs": [
        {
          "internalType": "address",
          "name": "",
          "type": "address"
        }
      ],
      "stateMutability": "view",
      "type": "function"
    },
    {
      "inputs": [],
      "name": "liquidityPoolCreated",
      "outputs": [
        {
          "internalType": "bool",
          "name": "",
          "type": "bool"
        }
      ],
      "stateMutability": "view",
      "type": "function"
    },
    {
      "inputs": [],
      "name": "liquidityPoolFactory",
      "outputs": [
        {
          "internalType": "address",
          "name": "",
          "type": "address"
        }
      ],
      "stateMutability": "view",
      "type": "function"
    },
    {
      "inputs": [],
      "name": "owner",
      "outputs": [
        {
          "internalType": "address",
          "name": "",
          "type": "address"
        }
      ],
      "stateMutability": "view",
      "type": "function"
    },
    {
      "inputs": [],
      "name": "pause",
      "outputs": [],
      "stateMutability": "nonpayable",
      "type": "function"
    },
    {
      "inputs": [],
      "name": "paused",
      "outputs": [
        {
          "internalType": "bool",
          "name": "",
          "type": "bool"
        }
      ],
      "stateMutability": "view",
      "type": "function"
    },
    {
      "inputs": [],
      "name": "poolS",
      "outputs": [
        {
          "internalType": "uint256",
          "name": "",
          "type": "uint256"
        }
      ],
      "stateMutability": "view",
      "type": "function"
    },
    {
      "inputs": [],
      "name": "renounceOwnership",
      "outputs": [],
      "stateMutability": "nonpayable",
      "type": "function"
    },
    {
      "inputs": [
        {
          "internalType": "uint256",
          "name": "tokenAmount",
          "type": "uint256"
        }
      ],
      "name": "sell",
      "outputs": [],
      "stateMutability": "nonpayable",
      "type": "function"
    },
    {
      "inputs": [],
      "name": "sellFee",
      "outputs": [
        {
          "internalType": "uint256",
          "name": "",
          "type": "uint256"
        }
      ],
      "stateMutability": "view",
      "type": "function"
    },
    {
      "inputs": [
        {
          "internalType": "address",
          "name": "pool",
          "type": "address"
        },
        {
          "internalType": "uint256",
          "name": "tokenAmount",
          "type": "uint256"
        },
        {
          "internalType": "uint256",
          "name": "sAmount",
          "type": "uint256"
        }
      ],
      "name": "sendToLiquidityPool",
      "outputs": [],
      "stateMutability": "nonpayable",
      "type": "function"
    },
    {
      "inputs": [
        {
          "internalType": "uint256",
          "name": "_newPrice",
          "type": "uint256"
        }
      ],
      "name": "setFinalPrice",
      "outputs": [],
      "stateMutability": "nonpayable",
      "type": "function"
    },
    {
      "inputs": [
        {
          "internalType": "uint256",
          "name": "_newPrice",
          "type": "uint256"
        }
      ],
      "name": "setInitialPrice",
      "outputs": [],
      "stateMutability": "nonpayable",
      "type": "function"
    },
    {
      "inputs": [
        {
          "internalType": "address",
          "name": "_jackpotAddress",
          "type": "address"
        }
      ],
      "name": "setJackpotAddress",
      "outputs": [],
      "stateMutability": "nonpayable",
      "type": "function"
    },
    {
      "inputs": [
        {
          "internalType": "address",
          "name": "_factory",
          "type": "address"
        }
      ],
      "name": "setLiquidityPoolFactory",
      "outputs": [],
      "stateMutability": "nonpayable",
      "type": "function"
    },
    {
      "inputs": [
        {
          "internalType": "uint256",
          "name": "_newSUsdPrice",
          "type": "uint256"
        }
      ],
      "name": "setSUsdPrice",
      "outputs": [],
      "stateMutability": "nonpayable",
      "type": "function"
    },
    {
      "inputs": [
        {
          "internalType": "uint256",
          "name": "_fee",
          "type": "uint256"
        }
      ],
      "name": "setSellFee",
      "outputs": [],
      "stateMutability": "nonpayable",
      "type": "function"
    },
    {
      "inputs": [],
      "name": "token100x",
      "outputs": [
        {
          "internalType": "contract IERC20",
          "name": "",
          "type": "address"
        }
      ],
      "stateMutability": "view",
      "type": "function"
    },
    {
      "inputs": [],
      "name": "totalBought",
      "outputs": [
        {
          "internalType": "uint256",
          "name": "",
          "type": "uint256"
        }
      ],
      "stateMutability": "view",
      "type": "function"
    },
    {
      "inputs": [],
      "name": "totalSoldBack",
      "outputs": [
        {
          "internalType": "uint256",
          "name": "",
          "type": "uint256"
        }
      ],
      "stateMutability": "view",
      "type": "function"
    },
    {
      "inputs": [
        {
          "internalType": "address",
          "name": "newOwner",
          "type": "address"
        }
      ],
      "name": "transferOwnership",
      "outputs": [],
      "stateMutability": "nonpayable",
      "type": "function"
    },
    {
      "inputs": [],
      "name": "unpause",
      "outputs": [],
      "stateMutability": "nonpayable",
      "type": "function"
    },
    {
      "inputs": [],
      "name": "withdrawRequest",
      "outputs": [
        {
          "internalType": "uint256",
          "name": "tokenAmount",
          "type": "uint256"
        },
        {
          "internalType": "uint256",
          "name": "sAmount",
          "type": "uint256"
        },
        {
          "internalType": "uint256",
          "name": "requestTime",
          "type": "uint256"
        },
        {
          "internalType": "bool",
          "name": "active",
          "type": "bool"
        }
      ],
      "stateMutability": "view",
      "type": "function"
    },
    {
      "stateMutability": "payable",
      "type": "receive"
    }
  ],
  "bytecode": "0x60806040526101f460095534801561001657600080fd5b50604051614c25380380614c25833981810160405281019061003891906104e9565b336001600081905550600073ffffffffffffffffffffffffffffffffffffffff168173ffffffffffffffffffffffffffffffffffffffff16036100b35760006040517f1e4fbdf70000000000000000000000000000000000000000000000000000000081526004016100aa9190610525565b60405180910390fd5b6100c2816102ec60201b60201c565b506000600160146101000a81548160ff021916908315150217905550600073ffffffffffffffffffffffffffffffffffffffff168173ffffffffffffffffffffffffffffffffffffffff160361014d576040517f08c379a00000000000000000000000000000000000000000000000000000000081526004016101449061059d565b60405180910390fd5b80600260006101000a81548173ffffffffffffffffffffffffffffffffffffffff021916908373ffffffffffffffffffffffffffffffffffffffff160217905550659184e72a000060058190555065da475abf0000600681905550603260078190555033600a60006101000a81548173ffffffffffffffffffffffffffffffffffffffff021916908373ffffffffffffffffffffffffffffffffffffffff160217905550600260009054906101000a900473ffffffffffffffffffffffffffffffffffffffff1673ffffffffffffffffffffffffffffffffffffffff166323b872dd333065640b5eece0006040518463ffffffff1660e01b81526004016102569392919061060c565b6020604051808303816000875af1158015610275573d6000803e3d6000fd5b505050506040513d601f19601f82011682018060405250810190610299919061067b565b6102d8576040517f08c379a00000000000000000000000000000000000000000000000000000000081526004016102cf906106f4565b60405180910390fd5b6102e66103b260201b60201c565b50610714565b6000600160009054906101000a900473ffffffffffffffffffffffffffffffffffffffff16905081600160006101000a81548173ffffffffffffffffffffffffffffffffffffffff021916908373ffffffffffffffffffffffffffffffffffffffff1602179055508173ffffffffffffffffffffffffffffffffffffffff168173ffffffffffffffffffffffffffffffffffffffff167f8be0079c531659141344cd1fd0a4f28419497f9722a3daafe3b4186f6b6457e060405160405180910390a35050565b6103c061042060201b60201c565b60018060146101000a81548160ff0219169083151502179055507f62e78cea01bee320cd4e420270b5ea74000d11b0c9f74754ebdbfc544b05a25861040961046760201b60201c565b6040516104169190610525565b60405180910390a1565b61042e61046f60201b60201c565b15610465576040517fd93c066500000000000000000000000000000000000000000000000000000000815260040160405180910390fd5b565b600033905090565b6000600160149054906101000a900460ff16905090565b600080fd5b600073ffffffffffffffffffffffffffffffffffffffff82169050919050565b60006104b68261048b565b9050919050565b6104c6816104ab565b81146104d157600080fd5b50565b6000815190506104e3816104bd565b92915050565b6000602082840312156104ff576104fe610486565b5b600061050d848285016104d4565b91505092915050565b61051f816104ab565b82525050565b600060208201905061053a6000830184610516565b92915050565b600082825260208201905092915050565b7f496e76616c696420746f6b656e20616464726573730000000000000000000000600082015250565b6000610587601583610540565b915061059282610551565b602082019050919050565b600060208201905081810360008301526105b68161057a565b9050919050565b6000819050919050565b6000819050919050565b6000819050919050565b60006105f66105f16105ec846105bd565b6105d1565b6105c7565b9050919050565b610606816105db565b82525050565b60006060820190506106216000830186610516565b61062e6020830185610516565b61063b60408301846105fd565b949350505050565b60008115159050919050565b61065881610643565b811461066357600080fd5b50565b6000815190506106758161064f565b92915050565b60006020828403121561069157610690610486565b5b600061069f84828501610666565b91505092915050565b7f53656564207472616e73666572206661696c6564000000000000000000000000600082015250565b60006106de601483610540565b91506106e9826106a8565b602082019050919050565b6000602082019050818103600083015261070d816106d1565b9050919050565b614502806107236000396000f3fe60806040526004361061026b5760003560e01c80636bc0b3ba116101445780639f4ba0ee116100b6578063e4849b321161007a578063e4849b32146108b9578063e75d75d5146108e2578063eb91d37e1461090d578063ee7bdddf14610938578063f1a640f814610963578063f2fde38b1461098e576102ab565b80639f4ba0ee146107f5578063a6b513ee1461081e578063bb55f25c14610849578063becb92e314610872578063d96a094a1461089d576102ab565b806379551f0e1161010857806379551f0e146106f9578063831e39a61461072457806383642d82146107615780638456cb591461078a5780638b4cee08146107a15780638da5cb5b146107ca576102ab565b80636bc0b3ba1461064a578063715018a614610675578063770f65741461068c5780637852c193146106b7578063785ffb37146106ce576102ab565b8063380e687a116101dd5780634a91f195116101a15780634a91f1951461054857806358b9a996146105735780635c975abb146105b057806360246c88146105db5780636130158914610608578063665a11ca1461061f576102ab565b8063380e687a146104865780633f4ba83a146104b4578063409acbc7146104cb578063488544ae146104f65780634a3f7e301461051f576102ab565b80631ef46d051161022f5780631ef46d0514610399578063233ed5cd146103b05780632b14ca56146103d95780632e5e2b3b1461040457806330affae21461044157806335e78d7514610458576102ab565b80630116e377146102b05780630d5e5fff146102db57806318e53f31146103065780631d0806ae146103315780631dfc83be1461035c576102ab565b366102ab576040517f08c379a00000000000000000000000000000000000000000000000000000000081526004016102a290613247565b60405180910390fd5b600080fd5b3480156102bc57600080fd5b506102c56109b7565b6040516102d29190613282565b60405180910390f35b3480156102e757600080fd5b506102f06109ca565b6040516102fd91906132b6565b60405180910390f35b34801561031257600080fd5b5061031b6109d1565b60405161032891906132b6565b60405180910390f35b34801561033d57600080fd5b506103466109d7565b60405161035391906132b6565b60405180910390f35b34801561036857600080fd5b50610383600480360381019061037e9190613302565b6109dd565b60405161039091906132b6565b60405180910390f35b3480156103a557600080fd5b506103ae610a0d565b005b3480156103bc57600080fd5b506103d760048036038101906103d29190613302565b610c11565b005b3480156103e557600080fd5b506103ee610c9d565b6040516103fb91906132b6565b60405180910390f35b34801561041057600080fd5b5061042b60048036038101906104269190613302565b610ca3565b60405161043891906132b6565b60405180910390f35b34801561044d57600080fd5b50610456610da1565b005b34801561046457600080fd5b5061046d6111ac565b60405161047d949392919061332f565b60405180910390f35b34801561049257600080fd5b5061049b61120b565b6040516104ab9493929190613374565b60405180910390f35b3480156104c057600080fd5b506104c9611236565b005b3480156104d757600080fd5b506104e0611248565b6040516104ed91906132b6565b60405180910390f35b34801561050257600080fd5b5061051d60048036038101906105189190613417565b61124e565b005b34801561052b57600080fd5b5061054660048036038101906105419190613444565b611340565b005b34801561055457600080fd5b5061055d6116c5565b60405161056a91906132b6565b60405180910390f35b34801561057f57600080fd5b5061059a60048036038101906105959190613302565b6116cb565b6040516105a791906132b6565b60405180910390f35b3480156105bc57600080fd5b506105c56117c6565b6040516105d29190613282565b60405180910390f35b3480156105e757600080fd5b506105f06117dd565b6040516105ff93929190613497565b60405180910390f35b34801561061457600080fd5b5061061d61188d565b005b34801561062b57600080fd5b50610634611928565b60405161064191906134dd565b60405180910390f35b34801561065657600080fd5b5061065f61194e565b60405161066c91906134dd565b60405180910390f35b34801561068157600080fd5b5061068a611974565b005b34801561069857600080fd5b506106a1611988565b6040516106ae91906132b6565b60405180910390f35b3480156106c357600080fd5b506106cc61198f565b005b3480156106da57600080fd5b506106e3611c27565b6040516106f091906132b6565b60405180910390f35b34801561070557600080fd5b5061070e611c31565b60405161071b91906132b6565b60405180910390f35b34801561073057600080fd5b5061074b60048036038101906107469190613302565b611c36565b60405161075891906132b6565b60405180910390f35b34801561076d57600080fd5b5061078860048036038101906107839190613417565b611c66565b005b34801561079657600080fd5b5061079f611d21565b005b3480156107ad57600080fd5b506107c860048036038101906107c39190613302565b611d33565b005b3480156107d657600080fd5b506107df611dc1565b6040516107ec91906134dd565b60405180910390f35b34801561080157600080fd5b5061081c60048036038101906108179190613302565b611deb565b005b34801561082a57600080fd5b50610833611ec3565b60405161084091906132b6565b60405180910390f35b34801561085557600080fd5b50610870600480360381019061086b9190613302565b611ec9565b005b34801561087e57600080fd5b50610887611f5e565b6040516108949190613557565b60405180910390f35b6108b760048036038101906108b29190613302565b611f84565b005b3480156108c557600080fd5b506108e060048036038101906108db9190613302565b612395565b005b3480156108ee57600080fd5b506108f76128ea565b60405161090491906134dd565b60405180910390f35b34801561091957600080fd5b50610922612910565b60405161092f91906132b6565b60405180910390f35b34801561094457600080fd5b5061094d61299a565b60405161095a91906132b6565b60405180910390f35b34801561096f57600080fd5b506109786129a0565b60405161098591906132b6565b60405180910390f35b34801561099a57600080fd5b506109b560048036038101906109b09190613417565b6129a5565b005b600c60149054906101000a900460ff1681565b6201518081565b60085481565b60055481565b6000806109e983610ca3565b90506007546064826109fb91906135a1565b610a059190613612565b915050919050565b610a15612a2b565b610a1d612ab2565b600d60030160009054906101000a900460ff1615610a70576040517f08c379a0000000000000000000000000000000000000000000000000000000008152600401610a679061368f565b60405180910390fd5b6000600260009054906101000a900473ffffffffffffffffffffffffffffffffffffffff1673ffffffffffffffffffffffffffffffffffffffff166370a08231306040518263ffffffff1660e01b8152600401610acd91906134dd565b602060405180830381865afa158015610aea573d6000803e3d6000fd5b505050506040513d601f19601f82011682018060405250810190610b0e91906136c4565b905060004790506000821180610b245750600081115b610b63576040517f08c379a0000000000000000000000000000000000000000000000000000000008152600401610b5a9061373d565b60405180910390fd5b604051806080016040528083815260200182815260200142815260200160011515815250600d60008201518160000155602082015181600101556040820151816002015560608201518160030160006101000a81548160ff0219169083151502179055509050507f56f45305231276ded80ae80a94d85c0f1514e03c5de77d0a6185ba46606e5f50828242604051610bfd93929190613497565b60405180910390a15050610c0f612af8565b565b610c19612a2b565b60008111610c5c576040517f08c379a0000000000000000000000000000000000000000000000000000000008152600401610c53906137a9565b60405180910390fd5b806007819055507f35eb434259409ef3e95c7f105e9d370beb79bc0d16db0e63041d77a53ba4650b81604051610c9291906132b6565b60405180910390a150565b60095481565b600080620f4240600454600354610cba91906137c9565b610cc49190613612565b90506000620f4240655af3107a4000610cdd9190613612565b905060008183600554600654610cf391906137c9565b610cfd91906135a1565b610d079190613612565b600554610d1491906137fd565b90506000858411610d26576000610d33565b8584610d3291906137c9565b5b905060008382600554600654610d4991906137c9565b610d5391906135a1565b610d5d9190613612565b600554610d6a91906137fd565b905060006002888584610d7d91906137fd565b610d8791906135a1565b610d919190613612565b9050809650505050505050919050565b610da9612a2b565b610db1612b02565b600c60149054906101000a900460ff1615610e01576040517f08c379a0000000000000000000000000000000000000000000000000000000008152600401610df89061387d565b60405180910390fd5b600073ffffffffffffffffffffffffffffffffffffffff16600b60009054906101000a900473ffffffffffffffffffffffffffffffffffffffff1673ffffffffffffffffffffffffffffffffffffffff1603610e92576040517f08c379a0000000000000000000000000000000000000000000000000000000008152600401610e89906138e9565b60405180910390fd5b6000600260009054906101000a900473ffffffffffffffffffffffffffffffffffffffff1673ffffffffffffffffffffffffffffffffffffffff166370a08231306040518263ffffffff1660e01b8152600401610eef91906134dd565b602060405180830381865afa158015610f0c573d6000803e3d6000fd5b505050506040513d601f19601f82011682018060405250810190610f3091906136c4565b90506000479050600082118015610f475750600081115b610f86576040517f08c379a0000000000000000000000000000000000000000000000000000000008152600401610f7d90613955565b60405180910390fd5b600260009054906101000a900473ffffffffffffffffffffffffffffffffffffffff1673ffffffffffffffffffffffffffffffffffffffff1663095ea7b3600b60009054906101000a900473ffffffffffffffffffffffffffffffffffffffff16846040518363ffffffff1660e01b8152600401611005929190613975565b6020604051808303816000875af1158015611024573d6000803e3d6000fd5b505050506040513d601f19601f8201168201806040525081019061104891906139ca565b506000600b60009054906101000a900473ffffffffffffffffffffffffffffffffffffffff1673ffffffffffffffffffffffffffffffffffffffff1663561c111e83600260009054906101000a900473ffffffffffffffffffffffffffffffffffffffff16866040518463ffffffff1660e01b81526004016110cb929190613975565b60206040518083038185885af11580156110e9573d6000803e3d6000fd5b50505050506040513d601f19601f8201168201806040525081019061110e9190613a0c565b90506001600c60146101000a81548160ff02191690831515021790555080600c60006101000a81548173ffffffffffffffffffffffffffffffffffffffff021916908373ffffffffffffffffffffffffffffffffffffffff1602179055507fcff2ec0ebdec5701ad23dad19d93ff362d067f52080fff6dad87c40a534653ac81848460405161119f93929190613a39565b60405180910390a1505050565b600080600080655af3107a400093506004546003546111cb91906137c9565b92508284116111db5760006111e8565b82846111e791906137c9565b5b9150836103e8846111f991906135a1565b6112039190613612565b905090919293565b600d8060000154908060010154908060020154908060030160009054906101000a900460ff16905084565b61123e612a2b565b611246612b42565b565b60075481565b611256612a2b565b600073ffffffffffffffffffffffffffffffffffffffff168173ffffffffffffffffffffffffffffffffffffffff16036112c5576040517f08c379a00000000000000000000000000000000000000000000000000000000081526004016112bc90613abc565b60405180910390fd5b80600b60006101000a81548173ffffffffffffffffffffffffffffffffffffffff021916908373ffffffffffffffffffffffffffffffffffffffff1602179055507f191b3e86916e9448c9bdf8fa73512ab274e29fcca4332ad11a1f295808e201148160405161133591906134dd565b60405180910390a150565b611348612a2b565b611350612ab2565b600073ffffffffffffffffffffffffffffffffffffffff168373ffffffffffffffffffffffffffffffffffffffff16036113bf576040517f08c379a00000000000000000000000000000000000000000000000000000000081526004016113b690613b28565b60405180910390fd5b60008211806113ce5750600081115b61140d576040517f08c379a000000000000000000000000000000000000000000000000000000000815260040161140490613b94565b60405180910390fd5b600260009054906101000a900473ffffffffffffffffffffffffffffffffffffffff1673ffffffffffffffffffffffffffffffffffffffff166370a08231306040518263ffffffff1660e01b815260040161146891906134dd565b602060405180830381865afa158015611485573d6000803e3d6000fd5b505050506040513d601f19601f820116820180604052508101906114a991906136c4565b8211156114eb576040517f08c379a00000000000000000000000000000000000000000000000000000000081526004016114e290613c00565b60405180910390fd5b4781111561152e576040517f08c379a000000000000000000000000000000000000000000000000000000000815260040161152590613c6c565b60405180910390fd5b600082111561161757600260009054906101000a900473ffffffffffffffffffffffffffffffffffffffff1673ffffffffffffffffffffffffffffffffffffffff1663a9059cbb84846040518363ffffffff1660e01b8152600401611594929190613975565b6020604051808303816000875af11580156115b3573d6000803e3d6000fd5b505050506040513d601f19601f820116820180604052508101906115d791906139ca565b611616576040517f08c379a000000000000000000000000000000000000000000000000000000000815260040161160d90613cd8565b60405180910390fd5b5b6000811115611668578273ffffffffffffffffffffffffffffffffffffffff166108fc829081150290604051600060405180830381858888f19350505050158015611666573d6000803e3d6000fd5b505b8273ffffffffffffffffffffffffffffffffffffffff167f792df17e178028ca35d1dc4ee6b45e949ade06937d49caa7acb32962ef62a8d283836040516116b0929190613cf8565b60405180910390a26116c0612af8565b505050565b60035481565b600080620f42406004546003546116e291906137c9565b6116ec9190613612565b90506000620f4240655af3107a40006117059190613612565b90506000818360055460065461171b91906137c9565b61172591906135a1565b61172f9190613612565b60055461173c91906137fd565b90506000858461174c91906137fd565b90508281111561175a578290505b6000838260055460065461176e91906137c9565b61177891906135a1565b6117829190613612565b60055461178f91906137fd565b9050600060028883866117a291906137fd565b6117ac91906135a1565b6117b69190613612565b9050809650505050505050919050565b6000600160149054906101000a900460ff16905090565b600080600060085447600260009054906101000a900473ffffffffffffffffffffffffffffffffffffffff1673ffffffffffffffffffffffffffffffffffffffff166370a08231306040518263ffffffff1660e01b815260040161184191906134dd565b602060405180830381865afa15801561185e573d6000803e3d6000fd5b505050506040513d601f19601f8201168201806040525081019061188291906136c4565b925092509250909192565b611895612a2b565b600d60030160009054906101000a900460ff166118e7576040517f08c379a00000000000000000000000000000000000000000000000000000000081526004016118de90613d6d565b60405180910390fd5b6000600d60030160006101000a81548160ff0219169083151502179055506000600d600001819055506000600d600101819055506000600d60020181905550565b600c60009054906101000a900473ffffffffffffffffffffffffffffffffffffffff1681565b600a60009054906101000a900473ffffffffffffffffffffffffffffffffffffffff1681565b61197c612a2b565b6119866000612ba5565b565b6298968081565b611997612a2b565b61199f612ab2565b600d60030160009054906101000a900460ff166119f1576040517f08c379a00000000000000000000000000000000000000000000000000000000081526004016119e890613d6d565b60405180910390fd5b62015180600d60020154611a0591906137fd565b421015611a47576040517f08c379a0000000000000000000000000000000000000000000000000000000008152600401611a3e90613dd9565b60405180910390fd5b6000600d6000015490506000600d6001015490506000600d60030160006101000a81548160ff0219169083151502179055506000600d600001819055506000600d600101819055506000600d600201819055506000821115611b8a57600260009054906101000a900473ffffffffffffffffffffffffffffffffffffffff1673ffffffffffffffffffffffffffffffffffffffff1663a9059cbb611ae9611dc1565b846040518363ffffffff1660e01b8152600401611b07929190613975565b6020604051808303816000875af1158015611b26573d6000803e3d6000fd5b505050506040513d601f19601f82011682018060405250810190611b4a91906139ca565b611b89576040517f08c379a0000000000000000000000000000000000000000000000000000000008152600401611b8090613cd8565b60405180910390fd5b5b6000811115611be257611b9b611dc1565b73ffffffffffffffffffffffffffffffffffffffff166108fc829081150290604051600060405180830381858888f19350505050158015611be0573d6000803e3d6000fd5b505b7f7bb3225129fc9dfdc521a486bb00ec79c36e2abf9e032fab88b93e0f5cfaf0488282604051611c13929190613cf8565b60405180910390a15050611c25612af8565b565b655af3107a400081565b600281565b600080611c42836116cb565b9050600754606482611c5491906135a1565b611c5e9190613612565b915050919050565b611c6e612a2b565b600073ffffffffffffffffffffffffffffffffffffffff168173ffffffffffffffffffffffffffffffffffffffff1603611cdd576040517f08c379a0000000000000000000000000000000000000000000000000000000008152600401611cd490613e45565b60405180910390fd5b80600a60006101000a81548173ffffffffffffffffffffffffffffffffffffffff021916908373ffffffffffffffffffffffffffffffffffffffff16021790555050565b611d29612a2b565b611d31612c6b565b565b611d3b612a2b565b6103e8811115611d80576040517f08c379a0000000000000000000000000000000000000000000000000000000008152600401611d7790613eb1565b60405180910390fd5b806009819055507f495ee53ee22006979ebc689a00ed737d7c13b6419142f82dcaea4ed95ac1e78081604051611db691906132b6565b60405180910390a150565b6000600160009054906101000a900473ffffffffffffffffffffffffffffffffffffffff16905090565b611df3612a2b565b611dfb612b02565b60008111611e3e576040517f08c379a0000000000000000000000000000000000000000000000000000000008152600401611e3590613f43565b60405180910390fd5b6006548110611e82576040517f08c379a0000000000000000000000000000000000000000000000000000000008152600401611e7990613fd5565b60405180910390fd5b806005819055507f1ebe6b7b7005f1aa69bf4d29be5021907cd512d9e0d2aa4abd10a56cb45242b981604051611eb891906132b6565b60405180910390a150565b60065481565b611ed1612a2b565b611ed9612b02565b6005548111611f1d576040517f08c379a0000000000000000000000000000000000000000000000000000000008152600401611f1490614067565b60405180910390fd5b806006819055507f8befc2dbaa473eaf770fc7fce65d45fb218ac302e5a83c7dcc9d57ecaad0697e81604051611f5391906132b6565b60405180910390a150565b600260009054906101000a900473ffffffffffffffffffffffffffffffffffffffff1681565b611f8c612ccd565b611f94612ab2565b60008111611fd7576040517f08c379a0000000000000000000000000000000000000000000000000000000008152600401611fce906140d3565b60405180910390fd5b6298968081111561201d576040517f08c379a00000000000000000000000000000000000000000000000000000000081526004016120149061413f565b60405180910390fd5b655af3107a4000620f42408261203391906135a1565b60045460035461204391906137c9565b61204d91906137fd565b111561208e576040517f08c379a0000000000000000000000000000000000000000000000000000000008152600401612085906141ab565b60405180910390fd5b6000612099826116cb565b9050803410156120de576040517f08c379a00000000000000000000000000000000000000000000000000000000081526004016120d590614217565b60405180910390fd5b620f4240826120ed91906135a1565b600260009054906101000a900473ffffffffffffffffffffffffffffffffffffffff1673ffffffffffffffffffffffffffffffffffffffff166370a08231306040518263ffffffff1660e01b815260040161214891906134dd565b602060405180830381865afa158015612165573d6000803e3d6000fd5b505050506040513d601f19601f8201168201806040525081019061218991906136c4565b10156121ca576040517f08c379a00000000000000000000000000000000000000000000000000000000081526004016121c190614283565b60405180910390fd5b600260009054906101000a900473ffffffffffffffffffffffffffffffffffffffff1673ffffffffffffffffffffffffffffffffffffffff1663a9059cbb33620f42408561221891906135a1565b6040518363ffffffff1660e01b8152600401612235929190613975565b6020604051808303816000875af1158015612254573d6000803e3d6000fd5b505050506040513d601f19601f8201168201806040525081019061227891906139ca565b50620f42408261228891906135a1565b6003600082825461229991906137fd565b9250508190555080600860008282546122b291906137fd565b925050819055503373ffffffffffffffffffffffffffffffffffffffff167f1cbc5ab135991bd2b6a4b034a04aa2aa086dac1371cb9b16b8b5e2ed6b036bed8383604051612301929190613cf8565b60405180910390a2655af3107a400060045460035461232091906137c9565b1061232e5761232d612d0e565b5b80341115612389573373ffffffffffffffffffffffffffffffffffffffff166108fc823461235c91906137c9565b9081150290604051600060405180830381858888f19350505050158015612387573d6000803e3d6000fd5b505b50612392612af8565b50565b61239d612ccd565b6123a5612ab2565b600081116123e8576040517f08c379a00000000000000000000000000000000000000000000000000000000081526004016123df906140d3565b60405180910390fd5b6298968081111561242e576040517f08c379a00000000000000000000000000000000000000000000000000000000081526004016124259061413f565b60405180910390fd5b600c60149054906101000a900460ff1680156124995750600073ffffffffffffffffffffffffffffffffffffffff16600c60009054906101000a900473ffffffffffffffffffffffffffffffffffffffff1673ffffffffffffffffffffffffffffffffffffffff1614155b156124d9576040517f08c379a00000000000000000000000000000000000000000000000000000000081526004016124d090614315565b60405180910390fd5b60006124e482610ca3565b90506000612710600954836124f991906135a1565b6125039190613612565b905060006002826125149190613612565b90506000818361252491906137c9565b90506000838561253491906137c9565b9050818161254291906137fd565b6008541015612586576040517f08c379a000000000000000000000000000000000000000000000000000000000815260040161257d90614381565b60405180910390fd5b828161259291906137fd565b4710156125d4576040517f08c379a00000000000000000000000000000000000000000000000000000000081526004016125cb90613c6c565b60405180910390fd5b600260009054906101000a900473ffffffffffffffffffffffffffffffffffffffff1673ffffffffffffffffffffffffffffffffffffffff166323b872dd3330620f42408a61262391906135a1565b6040518463ffffffff1660e01b8152600401612641939291906143a1565b6020604051808303816000875af1158015612660573d6000803e3d6000fd5b505050506040513d601f19601f8201168201806040525081019061268491906139ca565b50620f42408661269491906135a1565b600460008282546126a591906137fd565b9250508190555080826008546126bb91906137fd565b6126c591906137c9565b6008819055503373ffffffffffffffffffffffffffffffffffffffff166108fc829081150290604051600060405180830381858888f19350505050158015612711573d6000803e3d6000fd5b506000600a60009054906101000a900473ffffffffffffffffffffffffffffffffffffffff1673ffffffffffffffffffffffffffffffffffffffff16846040516024016040516020818303038152906040527fbd237741000000000000000000000000000000000000000000000000000000007bffffffffffffffffffffffffffffffffffffffffffffffffffffffff19166020820180517bffffffffffffffffffffffffffffffffffffffffffffffffffffffff83818316178352505050506040516127de9190614449565b60006040518083038185875af1925050503d806000811461281b576040519150601f19603f3d011682016040523d82523d6000602084013e612820565b606091505b5050905080612864576040517f08c379a000000000000000000000000000000000000000000000000000000000815260040161285b906144ac565b60405180910390fd5b3373ffffffffffffffffffffffffffffffffffffffff167fed7a144fad14804d5c249145e3e0e2b63a9eb455b76aee5bc92d711e9bba3e4a88846040516128ac929190613cf8565b60405180910390a2655af3107a40006004546003546128cb91906137c9565b106128d9576128d8612d0e565b5b5050505050506128e7612af8565b50565b600b60009054906101000a900473ffffffffffffffffffffffffffffffffffffffff1681565b600080620f424060045460035461292791906137c9565b6129319190613612565b90506000620f4240655af3107a400061294a9190613612565b905080821061295f5760065492505050612997565b808260055460065461297191906137c9565b61297b91906135a1565b6129859190613612565b60055461299291906137fd565b925050505b90565b60045481565b600681565b6129ad612a2b565b600073ffffffffffffffffffffffffffffffffffffffff168173ffffffffffffffffffffffffffffffffffffffff1603612a1f5760006040517f1e4fbdf7000000000000000000000000000000000000000000000000000000008152600401612a1691906134dd565b60405180910390fd5b612a2881612ba5565b50565b612a33612e19565b73ffffffffffffffffffffffffffffffffffffffff16612a51611dc1565b73ffffffffffffffffffffffffffffffffffffffff1614612ab057612a74612e19565b6040517f118cdaa7000000000000000000000000000000000000000000000000000000008152600401612aa791906134dd565b60405180910390fd5b565b600260005403612aee576040517f3ee5aeb500000000000000000000000000000000000000000000000000000000815260040160405180910390fd5b6002600081905550565b6001600081905550565b612b0a6117c6565b612b40576040517f8dfc202b00000000000000000000000000000000000000000000000000000000815260040160405180910390fd5b565b612b4a612b02565b6000600160146101000a81548160ff0219169083151502179055507f5db9ee0a495bf2e6ff9c91a7834c1ba4fdd244a5e8aa4e537bd38aeae4b073aa612b8e612e19565b604051612b9b91906134dd565b60405180910390a1565b6000600160009054906101000a900473ffffffffffffffffffffffffffffffffffffffff16905081600160006101000a81548173ffffffffffffffffffffffffffffffffffffffff021916908373ffffffffffffffffffffffffffffffffffffffff1602179055508173ffffffffffffffffffffffffffffffffffffffff168173ffffffffffffffffffffffffffffffffffffffff167f8be0079c531659141344cd1fd0a4f28419497f9722a3daafe3b4186f6b6457e060405160405180910390a35050565b612c73612ccd565b60018060146101000a81548160ff0219169083151502179055507f62e78cea01bee320cd4e420270b5ea74000d11b0c9f74754ebdbfc544b05a258612cb6612e19565b604051612cc391906134dd565b60405180910390a1565b612cd56117c6565b15612d0c576040517fd93c066500000000000000000000000000000000000000000000000000000000815260040160405180910390fd5b565b600c60149054906101000a900460ff1615612d6d57612d2b612c6b565b7f8ed12daf03921f6cf3d38d560dee47e5e323c2a96469beef3cdb39c23ef1a742600354600454604051612d60929190613cf8565b60405180910390a1612e17565b600073ffffffffffffffffffffffffffffffffffffffff16600b60009054906101000a900473ffffffffffffffffffffffffffffffffffffffff1673ffffffffffffffffffffffffffffffffffffffff1614612dd057612dcb612e21565b612e16565b612dd8612c6b565b7f8ed12daf03921f6cf3d38d560dee47e5e323c2a96469beef3cdb39c23ef1a742600354600454604051612e0d929190613cf8565b60405180910390a15b5b565b600033905090565b6000600260009054906101000a900473ffffffffffffffffffffffffffffffffffffffff1673ffffffffffffffffffffffffffffffffffffffff166370a08231306040518263ffffffff1660e01b8152600401612e7e91906134dd565b602060405180830381865afa158015612e9b573d6000803e3d6000fd5b505050506040513d601f19601f82011682018060405250810190612ebf91906136c4565b90506000479050600082118015612ed65750600081115b612f15576040517f08c379a0000000000000000000000000000000000000000000000000000000008152600401612f0c90613955565b60405180910390fd5b600260009054906101000a900473ffffffffffffffffffffffffffffffffffffffff1673ffffffffffffffffffffffffffffffffffffffff1663095ea7b3600b60009054906101000a900473ffffffffffffffffffffffffffffffffffffffff16846040518363ffffffff1660e01b8152600401612f94929190613975565b6020604051808303816000875af1158015612fb3573d6000803e3d6000fd5b505050506040513d601f19601f82011682018060405250810190612fd791906139ca565b50600b60009054906101000a900473ffffffffffffffffffffffffffffffffffffffff1673ffffffffffffffffffffffffffffffffffffffff1663561c111e82600260009054906101000a900473ffffffffffffffffffffffffffffffffffffffff16856040518463ffffffff1660e01b8152600401613058929190613975565b60206040518083038185885af19350505050801561309457506040513d601f19601f820116820180604052508101906130919190613a0c565b60015b6130e2576130a0612c6b565b7f8ed12daf03921f6cf3d38d560dee47e5e323c2a96469beef3cdb39c23ef1a7426003546004546040516130d5929190613cf8565b60405180910390a16131c0565b6001600c60146101000a81548160ff02191690831515021790555080600c60006101000a81548173ffffffffffffffffffffffffffffffffffffffff021916908373ffffffffffffffffffffffffffffffffffffffff1602179055507fcff2ec0ebdec5701ad23dad19d93ff362d067f52080fff6dad87c40a534653ac81848460405161317193929190613a39565b60405180910390a1613181612c6b565b7f8ed12daf03921f6cf3d38d560dee47e5e323c2a96469beef3cdb39c23ef1a7426003546004546040516131b6929190613cf8565b60405180910390a1505b5050565b600082825260208201905092915050565b7f436f6e747261637420646f6573206e6f7420616363657074206469726563742060008201527f53207472616e7366657273000000000000000000000000000000000000000000602082015250565b6000613231602b836131c4565b915061323c826131d5565b604082019050919050565b6000602082019050818103600083015261326081613224565b9050919050565b60008115159050919050565b61327c81613267565b82525050565b60006020820190506132976000830184613273565b92915050565b6000819050919050565b6132b08161329d565b82525050565b60006020820190506132cb60008301846132a7565b92915050565b600080fd5b6132df8161329d565b81146132ea57600080fd5b50565b6000813590506132fc816132d6565b92915050565b600060208284031215613318576133176132d1565b5b6000613326848285016132ed565b91505092915050565b600060808201905061334460008301876132a7565b61335160208301866132a7565b61335e60408301856132a7565b61336b60608301846132a7565b95945050505050565b600060808201905061338960008301876132a7565b61339660208301866132a7565b6133a360408301856132a7565b6133b06060830184613273565b95945050505050565b600073ffffffffffffffffffffffffffffffffffffffff82169050919050565b60006133e4826133b9565b9050919050565b6133f4816133d9565b81146133ff57600080fd5b50565b600081359050613411816133eb565b92915050565b60006020828403121561342d5761342c6132d1565b5b600061343b84828501613402565b91505092915050565b60008060006060848603121561345d5761345c6132d1565b5b600061346b86828701613402565b935050602061347c868287016132ed565b925050604061348d868287016132ed565b9150509250925092565b60006060820190506134ac60008301866132a7565b6134b960208301856132a7565b6134c660408301846132a7565b949350505050565b6134d7816133d9565b82525050565b60006020820190506134f260008301846134ce565b92915050565b6000819050919050565b600061351d613518613513846133b9565b6134f8565b6133b9565b9050919050565b600061352f82613502565b9050919050565b600061354182613524565b9050919050565b61355181613536565b82525050565b600060208201905061356c6000830184613548565b92915050565b7f4e487b7100000000000000000000000000000000000000000000000000000000600052601160045260246000fd5b60006135ac8261329d565b91506135b78361329d565b92508282026135c58161329d565b915082820484148315176135dc576135db613572565b5b5092915050565b7f4e487b7100000000000000000000000000000000000000000000000000000000600052601260045260246000fd5b600061361d8261329d565b91506136288361329d565b925082613638576136376135e3565b5b828204905092915050565b7f5769746864726177616c20616c72656164792072657175657374656400000000600082015250565b6000613679601c836131c4565b915061368482613643565b602082019050919050565b600060208201905081810360008301526136a88161366c565b9050919050565b6000815190506136be816132d6565b92915050565b6000602082840312156136da576136d96132d1565b5b60006136e8848285016136af565b91505092915050565b7f4e6f7468696e6720746f20776974686472617700000000000000000000000000600082015250565b60006137276013836131c4565b9150613732826136f1565b602082019050919050565b600060208201905081810360008301526137568161371a565b9050919050565b7f53207072696365206d7573742062652067726561746572207468616e20300000600082015250565b6000613793601e836131c4565b915061379e8261375d565b602082019050919050565b600060208201905081810360008301526137c281613786565b9050919050565b60006137d48261329d565b91506137df8361329d565b92508282039050818111156137f7576137f6613572565b5b92915050565b60006138088261329d565b91506138138361329d565b925082820190508082111561382b5761382a613572565b5b92915050565b7f506f6f6c20616c72656164792063726561746564000000000000000000000000600082015250565b60006138676014836131c4565b915061387282613831565b602082019050919050565b600060208201905081810360008301526138968161385a565b9050919050565b7f466163746f7279206e6f74207365740000000000000000000000000000000000600082015250565b60006138d3600f836131c4565b91506138de8261389d565b602082019050919050565b60006020820190508181036000830152613902816138c6565b9050919050565b7f4e6f2061737365747320746f2063726561746520706f6f6c0000000000000000600082015250565b600061393f6018836131c4565b915061394a82613909565b602082019050919050565b6000602082019050818103600083015261396e81613932565b9050919050565b600060408201905061398a60008301856134ce565b61399760208301846132a7565b9392505050565b6139a781613267565b81146139b257600080fd5b50565b6000815190506139c48161399e565b92915050565b6000602082840312156139e0576139df6132d1565b5b60006139ee848285016139b5565b91505092915050565b600081519050613a06816133eb565b92915050565b600060208284031215613a2257613a216132d1565b5b6000613a30848285016139f7565b91505092915050565b6000606082019050613a4e60008301866134ce565b613a5b60208301856132a7565b613a6860408301846132a7565b949350505050565b7f496e76616c696420666163746f72792061646472657373000000000000000000600082015250565b6000613aa66017836131c4565b9150613ab182613a70565b602082019050919050565b60006020820190508181036000830152613ad581613a99565b9050919050565b7f496e76616c696420706f6f6c2061646472657373000000000000000000000000600082015250565b6000613b126014836131c4565b9150613b1d82613adc565b602082019050919050565b60006020820190508181036000830152613b4181613b05565b9050919050565b7f4e6f7468696e6720746f2073656e640000000000000000000000000000000000600082015250565b6000613b7e600f836131c4565b9150613b8982613b48565b602082019050919050565b60006020820190508181036000830152613bad81613b71565b9050919050565b7f496e73756666696369656e7420313030782062616c616e636500000000000000600082015250565b6000613bea6019836131c4565b9150613bf582613bb4565b602082019050919050565b60006020820190508181036000830152613c1981613bdd565b9050919050565b7f496e73756666696369656e7420532062616c616e636500000000000000000000600082015250565b6000613c566016836131c4565b9150613c6182613c20565b602082019050919050565b60006020820190508181036000830152613c8581613c49565b9050919050565b7f31303078207472616e73666572206661696c6564000000000000000000000000600082015250565b6000613cc26014836131c4565b9150613ccd82613c8c565b602082019050919050565b60006020820190508181036000830152613cf181613cb5565b9050919050565b6000604082019050613d0d60008301856132a7565b613d1a60208301846132a7565b9392505050565b7f4e6f20616374697665207769746864726177616c207265717565737400000000600082015250565b6000613d57601c836131c4565b9150613d6282613d21565b602082019050919050565b60006020820190508181036000830152613d8681613d4a565b9050919050565b7f54696d656c6f636b206e6f742065787069726564000000000000000000000000600082015250565b6000613dc36014836131c4565b9150613dce82613d8d565b602082019050919050565b60006020820190508181036000830152613df281613db6565b9050919050565b7f496e76616c6964206a61636b706f742061646472657373000000000000000000600082015250565b6000613e2f6017836131c4565b9150613e3a82613df9565b602082019050919050565b60006020820190508181036000830152613e5e81613e22565b9050919050565b7f46656520746f6f20686967680000000000000000000000000000000000000000600082015250565b6000613e9b600c836131c4565b9150613ea682613e65565b602082019050919050565b60006020820190508181036000830152613eca81613e8e565b9050919050565b7f496e697469616c207072696365206d757374206265206772656174657220746860008201527f616e203000000000000000000000000000000000000000000000000000000000602082015250565b6000613f2d6024836131c4565b9150613f3882613ed1565b604082019050919050565b60006020820190508181036000830152613f5c81613f20565b9050919050565b7f496e697469616c207072696365206d757374206265206c657373207468616e2060008201527f66696e616c207072696365000000000000000000000000000000000000000000602082015250565b6000613fbf602b836131c4565b9150613fca82613f63565b604082019050919050565b60006020820190508181036000830152613fee81613fb2565b9050919050565b7f46696e616c207072696365206d7573742062652067726561746572207468616e60008201527f20696e697469616c207072696365000000000000000000000000000000000000602082015250565b6000614051602e836131c4565b915061405c82613ff5565b604082019050919050565b6000602082019050818103600083015261408081614044565b9050919050565b7f416d6f756e74206d7573742062652067726561746572207468616e2030000000600082015250565b60006140bd601d836131c4565b91506140c882614087565b602082019050919050565b600060208201905081810360008301526140ec816140b0565b9050919050565b7f416d6f756e7420746f6f206c6172676500000000000000000000000000000000600082015250565b60006141296010836131c4565b9150614134826140f3565b602082019050919050565b600060208201905081810360008301526141588161411c565b9050919050565b7f45786365656473207468726573686f6c64000000000000000000000000000000600082015250565b60006141956011836131c4565b91506141a08261415f565b602082019050919050565b600060208201905081810360008301526141c481614188565b9050919050565b7f496e73756666696369656e7420532073656e7400000000000000000000000000600082015250565b60006142016013836131c4565b915061420c826141cb565b602082019050919050565b60006020820190508181036000830152614230816141f4565b9050919050565b7f496e73756666696369656e74203130307820696e20706f6f6c00000000000000600082015250565b600061426d6019836131c4565b915061427882614237565b602082019050919050565b6000602082019050818103600083015261429c81614260565b9050919050565b7f426f6e64696e6720637572766520636c6f7365642c20757365206c697175696460008201527f69747920706f6f6c000000000000000000000000000000000000000000000000602082015250565b60006142ff6028836131c4565b915061430a826142a3565b604082019050919050565b6000602082019050818103600083015261432e816142f2565b9050919050565b7f496e73756666696369656e7420706f6f6c205300000000000000000000000000600082015250565b600061436b6013836131c4565b915061437682614335565b602082019050919050565b6000602082019050818103600083015261439a8161435e565b9050919050565b60006060820190506143b660008301866134ce565b6143c360208301856134ce565b6143d060408301846132a7565b949350505050565b600081519050919050565b600081905092915050565b60005b8381101561440c5780820151818401526020810190506143f1565b60008484015250505050565b6000614423826143d8565b61442d81856143e3565b935061443d8185602086016143ee565b80840191505092915050565b60006144558284614418565b915081905092915050565b7f4a61636b706f742066756e64696e67206661696c656400000000000000000000600082015250565b60006144966016836131c4565b91506144a182614460565b602082019050919050565b600060208201905081810360008301526144c581614489565b905091905056fea264697066735822122048592ae854d6732124c47a1e032ec62045fe0fb90129cf939cf46ac05775c31d64736f6c634300081c0033",
  "linkReferences": {},
  "deployedLinkReferences": {}
}