{
  "_format": "hh-sol-artifact-1",
  "contractName": "JackpotGame",
  "sourceName": "contracts/JackpotGame.sol",
  "abi": [
    {
      "inputs": [
        {
          "internalType": "address",
          "name": "_gameToken",
          "type": "address"
        },
        {
          "internalType": "address",
          "name": "_bondingCurve",
          "type": "address"
        },
        {
          "internalType": "address",
          "name": "_marketingWallet",
          "type": "address"
        }
      ],
      "stateMutability": "nonpayable",
      "type": "constructor"
    },
    {
      "inputs": [],
      "name": "AccessControlBadConfirmation",
      "type": "error"
    },
    {
      "inputs": [
        {
          "internalType": "address",
          "name": "account",
          "type": "address"
        },
        {
          "internalType": "bytes32",
          "name": "neededRole",
          "type": "bytes32"
        }
      ],
      "name": "AccessControlUnauthorizedAccount",
      "type": "error"
    },
    {
      "inputs": [],
      "name": "EnforcedPause",
      "type": "error"
    },
    {
      "inputs": [],
      "name": "ExpectedPause",
      "type": "error"
    },
    {
      "inputs": [],
      "name": "ReentrancyGuardReentrantCall",
      "type": "error"
    },
    {
      "anonymous": false,
      "inputs": [
        {
          "indexed": false,
          "internalType": "string",
          "name": "message",
          "type": "string"
        }
      ],
      "name": "GameUpdate",
      "type": "event"
    },
    {
      "anonymous": false,
      "inputs": [
        {
          "indexed": true,
          "internalType": "address",
          "name": "player",
          "type": "address"
        },
        {
          "indexed": false,
          "internalType": "bytes32",
          "name": "commitment",
          "type": "bytes32"
        }
      ],
      "name": "GuessCommitted",
      "type": "event"
    },
    {
      "anonymous": false,
      "inputs": [
        {
          "indexed": true,
          "internalType": "address",
          "name": "player",
          "type": "address"
        },
        {
          "indexed": false,
          "internalType": "string",
          "name": "guess",
          "type": "string"
        },
        {
          "indexed": false,
          "internalType": "bool",
          "name": "won",
          "type": "bool"
        }
      ],
      "name": "GuessRevealed",
      "type": "event"
    },
    {
      "anonymous": false,
      "inputs": [
        {
          "indexed": false,
          "internalType": "uint256",
          "name": "index",
          "type": "uint256"
        }
      ],
      "name": "HintAdded",
      "type": "event"
    },
    {
      "anonymous": false,
      "inputs": [
        {
          "indexed": true,
          "internalType": "address",
          "name": "player",
          "type": "address"
        },
        {
          "indexed": false,
          "internalType": "uint256",
          "name": "hintIndex",
          "type": "uint256"
        }
      ],
      "name": "HintRequested",
      "type": "event"
    },
    {
      "anonymous": false,
      "inputs": [
        {
          "indexed": true,
          "internalType": "address",
          "name": "winner",
          "type": "address"
        },
        {
          "indexed": false,
          "internalType": "uint256",
          "name": "amount",
          "type": "uint256"
        },
        {
          "indexed": false,
          "internalType": "string",
          "name": "guess",
          "type": "string"
        }
      ],
      "name": "JackpotWon",
      "type": "event"
    },
    {
      "anonymous": false,
      "inputs": [
        {
          "indexed": true,
          "internalType": "address",
          "name": "player",
          "type": "address"
        }
      ],
      "name": "NewPlayer",
      "type": "event"
    },
    {
      "anonymous": false,
      "inputs": [
        {
          "indexed": false,
          "internalType": "address",
          "name": "account",
          "type": "address"
        }
      ],
      "name": "Paused",
      "type": "event"
    },
    {
      "anonymous": false,
      "inputs": [
        {
          "indexed": true,
          "internalType": "bytes32",
          "name": "role",
          "type": "bytes32"
        },
        {
          "indexed": true,
          "internalType": "bytes32",
          "name": "previousAdminRole",
          "type": "bytes32"
        },
        {
          "indexed": true,
          "internalType": "bytes32",
          "name": "newAdminRole",
          "type": "bytes32"
        }
      ],
      "name": "RoleAdminChanged",
      "type": "event"
    },
    {
      "anonymous": false,
      "inputs": [
        {
          "indexed": true,
          "internalType": "bytes32",
          "name": "role",
          "type": "bytes32"
        },
        {
          "indexed": true,
          "internalType": "address",
          "name": "account",
          "type": "address"
        },
        {
          "indexed": true,
          "internalType": "address",
          "name": "sender",
          "type": "address"
        }
      ],
      "name": "RoleGranted",
      "type": "event"
    },
    {
      "anonymous": false,
      "inputs": [
        {
          "indexed": true,
          "internalType": "bytes32",
          "name": "role",
          "type": "bytes32"
        },
        {
          "indexed": true,
          "internalType": "address",
          "name": "account",
          "type": "address"
        },
        {
          "indexed": true,
          "internalType": "address",
          "name": "sender",
          "type": "address"
        }
      ],
      "name": "RoleRevoked",
      "type": "event"
    },
    {
      "anonymous": false,
      "inputs": [
        {
          "indexed": false,
          "internalType": "string",
          "name": "announcementType",
          "type": "string"
        },
        {
          "indexed": false,
          "internalType": "string",
          "name": "message",
          "type": "string"
        }
      ],
      "name": "SocialAnnouncement",
      "type": "event"
    },
    {
      "anonymous": false,
      "inputs": [
        {
          "indexed": false,
          "internalType": "address",
          "name": "account",
          "type": "address"
        }
      ],
      "name": "Unpaused",
      "type": "event"
    },
    {
      "inputs": [],
      "name": "DEFAI_AGENT_ROLE",
      "outputs": [
        {
          "internalType": "bytes32",
          "name": "",
          "type": "bytes32"
        }
      ],
      "stateMutability": "view",
      "type": "function"
    },
    {
      "inputs": [],
      "name": "DEFAULT_ADMIN_ROLE",
      "outputs": [
        {
          "internalType": "bytes32",
          "name": "",
          "type": "bytes32"
        }
      ],
      "stateMutability": "view",
      "type": "function"
    },
    {
      "inputs": [],
      "name": "HINT_MANAGER_ROLE",
      "outputs": [
        {
          "internalType": "bytes32",
          "name": "",
          "type": "bytes32"
        }
      ],
      "stateMutability": "view",
      "type": "function"
    },
    {
      "inputs": [],
      "name": "PASSWORD_SETTER_ROLE",
      "outputs": [
        {
          "internalType": "bytes32",
          "name": "",
          "type": "bytes32"
        }
      ],
      "stateMutability": "view",
      "type": "function"
    },
    {
      "inputs": [],
      "name": "accumulated100X",
      "outputs": [
        {
          "internalType": "uint256",
          "name": "",
          "type": "uint256"
        }
      ],
      "stateMutability": "view",
      "type": "function"
    },
    {
      "inputs": [],
      "name": "addHint",
      "outputs": [],
      "stateMutability": "nonpayable",
      "type": "function"
    },
    {
      "inputs": [],
      "name": "batchInterval",
      "outputs": [
        {
          "internalType": "uint256",
          "name": "",
          "type": "uint256"
        }
      ],
      "stateMutability": "view",
      "type": "function"
    },
    {
      "inputs": [],
      "name": "bondingCurve",
      "outputs": [
        {
          "internalType": "contract IBondingCurve",
          "name": "",
          "type": "address"
        }
      ],
      "stateMutability": "view",
      "type": "function"
    },
    {
      "inputs": [],
      "name": "burnPercent",
      "outputs": [
        {
          "internalType": "uint256",
          "name": "",
          "type": "uint256"
        }
      ],
      "stateMutability": "view",
      "type": "function"
    },
    {
      "inputs": [
        {
          "internalType": "address",
          "name": "",
          "type": "address"
        }
      ],
      "name": "commitBlocks",
      "outputs": [
        {
          "internalType": "uint256",
          "name": "",
          "type": "uint256"
        }
      ],
      "stateMutability": "view",
      "type": "function"
    },
    {
      "inputs": [
        {
          "internalType": "address",
          "name": "",
          "type": "address"
        }
      ],
      "name": "commitments",
      "outputs": [
        {
          "internalType": "bytes32",
          "name": "",
          "type": "bytes32"
        }
      ],
      "stateMutability": "view",
      "type": "function"
    },
    {
      "inputs": [],
      "name": "defaiAgent",
      "outputs": [
        {
          "internalType": "address",
          "name": "",
          "type": "address"
        }
      ],
      "stateMutability": "view",
      "type": "function"
    },
    {
      "inputs": [
        {
          "internalType": "string",
          "name": "_message",
          "type": "string"
        }
      ],
      "name": "emitGameUpdate",
      "outputs": [],
      "stateMutability": "nonpayable",
      "type": "function"
    },
    {
      "inputs": [],
      "name": "fundJackpot",
      "outputs": [],
      "stateMutability": "payable",
      "type": "function"
    },
    {
      "inputs": [],
      "name": "gameToken",
      "outputs": [
        {
          "internalType": "contract IERC20",
          "name": "",
          "type": "address"
        }
      ],
      "stateMutability": "view",
      "type": "function"
    },
    {
      "inputs": [],
      "name": "getGameStats",
      "outputs": [
        {
          "internalType": "uint256",
          "name": "",
          "type": "uint256"
        },
        {
          "internalType": "uint256",
          "name": "",
          "type": "uint256"
        },
        {
          "internalType": "uint256",
          "name": "",
          "type": "uint256"
        },
        {
          "internalType": "uint256",
          "name": "",
          "type": "uint256"
        }
      ],
      "stateMutability": "view",
      "type": "function"
    },
    {
      "inputs": [
        {
          "internalType": "bytes32",
          "name": "role",
          "type": "bytes32"
        }
      ],
      "name": "getRoleAdmin",
      "outputs": [
        {
          "internalType": "bytes32",
          "name": "",
          "type": "bytes32"
        }
      ],
      "stateMutability": "view",
      "type": "function"
    },
    {
      "inputs": [],
      "name": "getSplit",
      "outputs": [
        {
          "internalType": "uint256",
          "name": "",
          "type": "uint256"
        },
        {
          "internalType": "uint256",
          "name": "",
          "type": "uint256"
        },
        {
          "internalType": "uint256",
          "name": "",
          "type": "uint256"
        },
        {
          "internalType": "uint256",
          "name": "",
          "type": "uint256"
        }
      ],
      "stateMutability": "view",
      "type": "function"
    },
    {
      "inputs": [
        {
          "internalType": "bytes32",
          "name": "role",
          "type": "bytes32"
        },
        {
          "internalType": "address",
          "name": "account",
          "type": "address"
        }
      ],
      "name": "grantRole",
      "outputs": [],
      "stateMutability": "nonpayable",
      "type": "function"
    },
    {
      "inputs": [],
      "name": "guessCost",
      "outputs": [
        {
          "internalType": "uint256",
          "name": "",
          "type": "uint256"
        }
      ],
      "stateMutability": "view",
      "type": "function"
    },
    {
      "inputs": [
        {
          "internalType": "address",
          "name": "user",
          "type": "address"
        },
        {
          "internalType": "uint256",
          "name": "hintIndex",
          "type": "uint256"
        }
      ],
      "name": "hasAccessToHint",
      "outputs": [
        {
          "internalType": "bool",
          "name": "",
          "type": "bool"
        }
      ],
      "stateMutability": "view",
      "type": "function"
    },
    {
      "inputs": [
        {
          "internalType": "address",
          "name": "",
          "type": "address"
        }
      ],
      "name": "hasPlayed",
      "outputs": [
        {
          "internalType": "bool",
          "name": "",
          "type": "bool"
        }
      ],
      "stateMutability": "view",
      "type": "function"
    },
    {
      "inputs": [
        {
          "internalType": "bytes32",
          "name": "role",
          "type": "bytes32"
        },
        {
          "internalType": "address",
          "name": "account",
          "type": "address"
        }
      ],
      "name": "hasRole",
      "outputs": [
        {
          "internalType": "bool",
          "name": "",
          "type": "bool"
        }
      ],
      "stateMutability": "view",
      "type": "function"
    },
    {
      "inputs": [],
      "name": "hintCost",
      "outputs": [
        {
          "internalType": "uint256",
          "name": "",
          "type": "uint256"
        }
      ],
      "stateMutability": "view",
      "type": "function"
    },
    {
      "inputs": [],
      "name": "hintCount",
      "outputs": [
        {
          "internalType": "uint256",
          "name": "",
          "type": "uint256"
        }
      ],
      "stateMutability": "view",
      "type": "function"
    },
    {
      "inputs": [
        {
          "internalType": "address",
          "name": "",
          "type": "address"
        },
        {
          "internalType": "uint256",
          "name": "",
          "type": "uint256"
        }
      ],
      "name": "hintPurchases",
      "outputs": [
        {
          "internalType": "bool",
          "name": "",
          "type": "bool"
        }
      ],
      "stateMutability": "view",
      "type": "function"
    },
    {
      "inputs": [],
      "name": "jackpotAmount",
      "outputs": [
        {
          "internalType": "uint256",
          "name": "",
          "type": "uint256"
        }
      ],
      "stateMutability": "view",
      "type": "function"
    },
    {
      "inputs": [],
      "name": "jackpotPercent",
      "outputs": [
        {
          "internalType": "uint256",
          "name": "",
          "type": "uint256"
        }
      ],
      "stateMutability": "view",
      "type": "function"
    },
    {
      "inputs": [],
      "name": "lastBatchTime",
      "outputs": [
        {
          "internalType": "uint256",
          "name": "",
          "type": "uint256"
        }
      ],
      "stateMutability": "view",
      "type": "function"
    },
    {
      "inputs": [],
      "name": "lastWinTime",
      "outputs": [
        {
          "internalType": "uint256",
          "name": "",
          "type": "uint256"
        }
      ],
      "stateMutability": "view",
      "type": "function"
    },
    {
      "inputs": [],
      "name": "lastWinner",
      "outputs": [
        {
          "internalType": "address",
          "name": "",
          "type": "address"
        }
      ],
      "stateMutability": "view",
      "type": "function"
    },
    {
      "inputs": [],
      "name": "marketingPercent",
      "outputs": [
        {
          "internalType": "uint256",
          "name": "",
          "type": "uint256"
        }
      ],
      "stateMutability": "view",
      "type": "function"
    },
    {
      "inputs": [],
      "name": "marketingWallet",
      "outputs": [
        {
          "internalType": "address",
          "name": "",
          "type": "address"
        }
      ],
      "stateMutability": "view",
      "type": "function"
    },
    {
      "inputs": [],
      "name": "nextJackpotAmount",
      "outputs": [
        {
          "internalType": "uint256",
          "name": "",
          "type": "uint256"
        }
      ],
      "stateMutability": "view",
      "type": "function"
    },
    {
      "inputs": [],
      "name": "nextJackpotPercent",
      "outputs": [
        {
          "internalType": "uint256",
          "name": "",
          "type": "uint256"
        }
      ],
      "stateMutability": "view",
      "type": "function"
    },
    {
      "inputs": [],
      "name": "pause",
      "outputs": [],
      "stateMutability": "nonpayable",
      "type": "function"
    },
    {
      "inputs": [],
      "name": "paused",
      "outputs": [
        {
          "internalType": "bool",
          "name": "",
          "type": "bool"
        }
      ],
      "stateMutability": "view",
      "type": "function"
    },
    {
      "inputs": [
        {
          "internalType": "address",
          "name": "",
          "type": "address"
        }
      ],
      "name": "playerGuesses",
      "outputs": [
        {
          "internalType": "uint256",
          "name": "",
          "type": "uint256"
        }
      ],
      "stateMutability": "view",
      "type": "function"
    },
    {
      "inputs": [
        {
          "internalType": "bytes32",
          "name": "role",
          "type": "bytes32"
        },
        {
          "internalType": "address",
          "name": "callerConfirmation",
          "type": "address"
        }
      ],
      "name": "renounceRole",
      "outputs": [],
      "stateMutability": "nonpayable",
      "type": "function"
    },
    {
      "inputs": [],
      "name": "requestHint",
      "outputs": [],
      "stateMutability": "nonpayable",
      "type": "function"
    },
    {
      "inputs": [],
      "name": "revealDelay",
      "outputs": [
        {
          "internalType": "uint256",
          "name": "",
          "type": "uint256"
        }
      ],
      "stateMutability": "view",
      "type": "function"
    },
    {
      "inputs": [
        {
          "internalType": "bytes32",
          "name": "role",
          "type": "bytes32"
        },
        {
          "internalType": "address",
          "name": "account",
          "type": "address"
        }
      ],
      "name": "revokeRole",
      "outputs": [],
      "stateMutability": "nonpayable",
      "type": "function"
    },
    {
      "inputs": [],
      "name": "salt",
      "outputs": [
        {
          "internalType": "bytes32",
          "name": "",
          "type": "bytes32"
        }
      ],
      "stateMutability": "view",
      "type": "function"
    },
    {
      "inputs": [],
      "name": "secretHash",
      "outputs": [
        {
          "internalType": "bytes32",
          "name": "",
          "type": "bytes32"
        }
      ],
      "stateMutability": "view",
      "type": "function"
    },
    {
      "inputs": [
        {
          "internalType": "uint256",
          "name": "_guessCost",
          "type": "uint256"
        },
        {
          "internalType": "uint256",
          "name": "_hintCost",
          "type": "uint256"
        }
      ],
      "name": "setCosts",
      "outputs": [],
      "stateMutability": "nonpayable",
      "type": "function"
    },
    {
      "inputs": [
        {
          "internalType": "address",
          "name": "_agent",
          "type": "address"
        }
      ],
      "name": "setDefaiAgent",
      "outputs": [],
      "stateMutability": "nonpayable",
      "type": "function"
    },
    {
      "inputs": [
        {
          "internalType": "address",
          "name": "_newWallet",
          "type": "address"
        }
      ],
      "name": "setMarketingWallet",
      "outputs": [],
      "stateMutability": "nonpayable",
      "type": "function"
    },
    {
      "inputs": [
        {
          "internalType": "bytes32",
          "name": "_hashedSecret",
          "type": "bytes32"
        },
        {
          "internalType": "bytes32",
          "name": "_newSalt",
          "type": "bytes32"
        }
      ],
      "name": "setSecretHash",
      "outputs": [],
      "stateMutability": "nonpayable",
      "type": "function"
    },
    {
      "inputs": [
        {
          "internalType": "string",
          "name": "_guess",
          "type": "string"
        }
      ],
      "name": "singleStepGuess",
      "outputs": [
        {
          "internalType": "bool",
          "name": "won",
          "type": "bool"
        }
      ],
      "stateMutability": "nonpayable",
      "type": "function"
    },
    {
      "inputs": [
        {
          "internalType": "bytes4",
          "name": "interfaceId",
          "type": "bytes4"
        }
      ],
      "name": "supportsInterface",
      "outputs": [
        {
          "internalType": "bool",
          "name": "",
          "type": "bool"
        }
      ],
      "stateMutability": "view",
      "type": "function"
    },
    {
      "inputs": [],
      "name": "totalGuesses",
      "outputs": [
        {
          "internalType": "uint256",
          "name": "",
          "type": "uint256"
        }
      ],
      "stateMutability": "view",
      "type": "function"
    },
    {
      "inputs": [],
      "name": "totalPayouts",
      "outputs": [
        {
          "internalType": "uint256",
          "name": "",
          "type": "uint256"
        }
      ],
      "stateMutability": "view",
      "type": "function"
    },
    {
      "inputs": [],
      "name": "totalWinners",
      "outputs": [
        {
          "internalType": "uint256",
          "name": "",
          "type": "uint256"
        }
      ],
      "stateMutability": "view",
      "type": "function"
    },
    {
      "inputs": [],
      "name": "uniquePlayers",
      "outputs": [
        {
          "internalType": "uint256",
          "name": "",
          "type": "uint256"
        }
      ],
      "stateMutability": "view",
      "type": "function"
    },
    {
      "inputs": [],
      "name": "unpause",
      "outputs": [],
      "stateMutability": "nonpayable",
      "type": "function"
    },
    {
      "inputs": [
        {
          "internalType": "uint256",
          "name": "_burn",
          "type": "uint256"
        },
        {
          "internalType": "uint256",
          "name": "_jackpot",
          "type": "uint256"
        },
        {
          "internalType": "uint256",
          "name": "_next",
          "type": "uint256"
        },
        {
          "internalType": "uint256",
          "name": "_marketing",
          "type": "uint256"
        }
      ],
      "name": "updateSplit",
      "outputs": [],
      "stateMutability": "nonpayable",
      "type": "function"
    },
    {
      "stateMutability": "payable",
      "type": "receive"
    }
  ],
  "bytecode": "0x6080604052601e601655602d601755600f601855600a60195534801561002457600080fd5b50604051614850380380614850833981810160405281019061004691906104ef565b600180819055506000600260006101000a81548160ff021916908315150217905550600073ffffffffffffffffffffffffffffffffffffffff168373ffffffffffffffffffffffffffffffffffffffff16036100d7576040517f08c379a00000000000000000000000000000000000000000000000000000000081526004016100ce9061059f565b60405180910390fd5b600073ffffffffffffffffffffffffffffffffffffffff168273ffffffffffffffffffffffffffffffffffffffff1603610146576040517f08c379a000000000000000000000000000000000000000000000000000000000815260040161013d9061060b565b60405180910390fd5b600073ffffffffffffffffffffffffffffffffffffffff168173ffffffffffffffffffffffffffffffffffffffff16036101b5576040517f08c379a00000000000000000000000000000000000000000000000000000000081526004016101ac90610677565b60405180910390fd5b82600260016101000a81548173ffffffffffffffffffffffffffffffffffffffff021916908373ffffffffffffffffffffffffffffffffffffffff16021790555081600360006101000a81548173ffffffffffffffffffffffffffffffffffffffff021916908373ffffffffffffffffffffffffffffffffffffffff16021790555080600460006101000a81548173ffffffffffffffffffffffffffffffffffffffff021916908373ffffffffffffffffffffffffffffffffffffffff1602179055506402540be40060068190555064012a05f200600781905550600a600881905550426010819055506102b26000801b3361031d60201b60201c565b506102e37f89b740285894f4ac12958a00aee67daad775ca9e28f2bbb8e4efa59055a26ce43361031d60201b60201c565b506103147fa20b93c4f8376a28d7eddb03920c03f147dd0d958ce891a985cc4d83ec1ecfa73361031d60201b60201c565b50505050610697565b600061032f838361041a60201b60201c565b61040f57600160008085815260200190815260200160002060000160008473ffffffffffffffffffffffffffffffffffffffff1673ffffffffffffffffffffffffffffffffffffffff16815260200190815260200160002060006101000a81548160ff0219169083151502179055506103ac61048460201b60201c565b73ffffffffffffffffffffffffffffffffffffffff168273ffffffffffffffffffffffffffffffffffffffff16847f2f8788117e7eff1d82e926ec794901d17c78024a50270940304540a733656f0d60405160405180910390a460019050610414565b600090505b92915050565b600080600084815260200190815260200160002060000160008373ffffffffffffffffffffffffffffffffffffffff1673ffffffffffffffffffffffffffffffffffffffff16815260200190815260200160002060009054906101000a900460ff16905092915050565b600033905090565b600080fd5b600073ffffffffffffffffffffffffffffffffffffffff82169050919050565b60006104bc82610491565b9050919050565b6104cc816104b1565b81146104d757600080fd5b50565b6000815190506104e9816104c3565b92915050565b6000806000606084860312156105085761050761048c565b5b6000610516868287016104da565b9350506020610527868287016104da565b9250506040610538868287016104da565b9150509250925092565b600082825260208201905092915050565b7f496e76616c696420746f6b656e20616464726573730000000000000000000000600082015250565b6000610589601583610542565b915061059482610553565b602082019050919050565b600060208201905081810360008301526105b88161057c565b9050919050565b7f496e76616c696420637572766520616464726573730000000000000000000000600082015250565b60006105f5601583610542565b9150610600826105bf565b602082019050919050565b60006020820190508181036000830152610624816105e8565b9050919050565b7f496e76616c69642077616c6c6574206164647265737300000000000000000000600082015250565b6000610661601683610542565b915061066c8261062b565b602082019050919050565b6000602082019050818103600083015261069081610654565b9050919050565b6141aa806106a66000396000f3fe60806040526004361061036e5760003560e01c80638608baea116101c6578063bfa0b133116100f7578063d8020a1811610095578063e5efd5851161006f578063e5efd58514610c94578063e8fcf72314610cbf578063eff1d50e14610cfc578063fe18818414610d27576103ae565b8063d8020a1814610c03578063db58990714610c2e578063dd2abd9914610c57576103ae565b8063d11057b3116100d1578063d11057b314610b5b578063d29e680314610b84578063d5255f9414610baf578063d547741f14610bda576103ae565b8063bfa0b13314610ada578063c3dfdae614610b05578063c732273014610b30576103ae565b8063a8a6a98411610164578063bcc941b61161013e578063bcc941b614610a63578063bd23774114610a8e578063bf4637e514610a98578063bf6aca7314610ac3576103ae565b8063a8a6a984146109e2578063b145421814610a0d578063b1eac37e14610a38576103ae565b806391d14854116101a057806391d1485414610912578063975d063d1461094f5780639d0fc7da1461097a578063a217fddf146109b7576103ae565b80638608baea146108935780638ef28249146108be57806390676ddd146108e9576103ae565b806332d0bbe3116102a05780635d098b381161023e578063714aa16611610218578063714aa166146107fd57806375f0a874146108265780637ccbe9f1146108515780638456cb591461087c576103ae565b80635d098b381461077e5780636a3429a3146107a75780636bea9a48146107d2576103ae565b80633f4ba83a1161027a5780633f4ba83a146106e65780634089b170146106fd57806353236d74146107285780635c975abb14610753576103ae565b806332d0bbe31461064357806336568abe146106805780633af9c939146106a9576103ae565b80631aff30dd1161030d5780632990f496116102e75780632990f496146105875780632c49ea20146105c45780632d7ed6b7146105ef5780632f2ff15d1461061a576103ae565b80631aff30dd146104df57806324396bde1461050d578063248a9ca31461054a576103ae565b80630ead9996116103495780630ead99961461044657806312ab3c271461045d57806314266cf71461048b57806316e015db146104b6576103ae565b8062207875146103b357806301ffc9a7146103de57806303807ee51461041b576103ae565b366103ae576040517f08c379a00000000000000000000000000000000000000000000000000000000081526004016103a590612d1b565b60405180910390fd5b600080fd5b3480156103bf57600080fd5b506103c8610d52565b6040516103d59190612d54565b60405180910390f35b3480156103ea57600080fd5b5061040560048036038101906104009190612ddb565b610d58565b6040516104129190612e23565b60405180910390f35b34801561042757600080fd5b50610430610dd2565b60405161043d9190612d54565b60405180910390f35b34801561045257600080fd5b5061045b610dd8565b005b34801561046957600080fd5b50610472610e9f565b6040516104829493929190612e3e565b60405180910390f35b34801561049757600080fd5b506104a0610ebf565b6040516104ad9190612d54565b60405180910390f35b3480156104c257600080fd5b506104dd60048036038101906104d89190612eaf565b610ec5565b005b3480156104eb57600080fd5b506104f4610f61565b6040516105049493929190612e3e565b60405180910390f35b34801561051957600080fd5b50610534600480360381019061052f9190612f74565b610f81565b6040516105419190612d54565b60405180910390f35b34801561055657600080fd5b50610571600480360381019061056c9190612fd7565b610f99565b60405161057e9190613013565b60405180910390f35b34801561059357600080fd5b506105ae60048036038101906105a9919061302e565b610fb8565b6040516105bb9190612e23565b60405180910390f35b3480156105d057600080fd5b506105d9610fe7565b6040516105e69190612d54565b60405180910390f35b3480156105fb57600080fd5b50610604610fed565b6040516106119190612d54565b60405180910390f35b34801561062657600080fd5b50610641600480360381019061063c919061306e565b610ff3565b005b34801561064f57600080fd5b5061066a60048036038101906106659190612f74565b611015565b6040516106779190612e23565b60405180910390f35b34801561068c57600080fd5b506106a760048036038101906106a2919061306e565b611035565b005b3480156106b557600080fd5b506106d060048036038101906106cb91906131f4565b6110b0565b6040516106dd9190612e23565b60405180910390f35b3480156106f257600080fd5b506106fb6116fd565b005b34801561070957600080fd5b50610712611715565b60405161071f9190612d54565b60405180910390f35b34801561073457600080fd5b5061073d61171b565b60405161074a9190612d54565b60405180910390f35b34801561075f57600080fd5b50610768611721565b6040516107759190612e23565b60405180910390f35b34801561078a57600080fd5b506107a560048036038101906107a09190612f74565b611738565b005b3480156107b357600080fd5b506107bc611801565b6040516107c99190613013565b60405180910390f35b3480156107de57600080fd5b506107e7611825565b6040516107f49190612d54565b60405180910390f35b34801561080957600080fd5b50610824600480360381019061081f9190612f74565b61182b565b005b34801561083257600080fd5b5061083b61191f565b604051610848919061324c565b60405180910390f35b34801561085d57600080fd5b50610866611945565b6040516108739190612d54565b60405180910390f35b34801561088857600080fd5b5061089161194b565b005b34801561089f57600080fd5b506108a8611963565b6040516108b59190613013565b60405180910390f35b3480156108ca57600080fd5b506108d3611987565b6040516108e09190612d54565b60405180910390f35b3480156108f557600080fd5b50610910600480360381019061090b91906131f4565b61198d565b005b34801561091e57600080fd5b506109396004803603810190610934919061306e565b611a73565b6040516109469190612e23565b60405180910390f35b34801561095b57600080fd5b50610964611add565b6040516109719190612d54565b60405180910390f35b34801561098657600080fd5b506109a1600480360381019061099c919061302e565b611ae3565b6040516109ae9190612e23565b60405180910390f35b3480156109c357600080fd5b506109cc611b4b565b6040516109d99190613013565b60405180910390f35b3480156109ee57600080fd5b506109f7611b52565b604051610a049190613013565b60405180910390f35b348015610a1957600080fd5b50610a22611b76565b604051610a2f9190612d54565b60405180910390f35b348015610a4457600080fd5b50610a4d611b7c565b604051610a5a9190612d54565b60405180910390f35b348015610a6f57600080fd5b50610a78611b82565b604051610a859190612d54565b60405180910390f35b610a96611b88565b005b348015610aa457600080fd5b50610aad611c29565b604051610aba9190612d54565b60405180910390f35b348015610acf57600080fd5b50610ad8611c2f565b005b348015610ae657600080fd5b50610aef611e9a565b604051610afc9190613013565b60405180910390f35b348015610b1157600080fd5b50610b1a611ea0565b604051610b2791906132c6565b60405180910390f35b348015610b3c57600080fd5b50610b45611ec6565b604051610b529190612d54565b60405180910390f35b348015610b6757600080fd5b50610b826004803603810190610b7d91906132e1565b611ecc565b005b348015610b9057600080fd5b50610b99611f46565b604051610ba69190613013565b60405180910390f35b348015610bbb57600080fd5b50610bc4611f4c565b604051610bd1919061324c565b60405180910390f35b348015610be657600080fd5b50610c016004803603810190610bfc919061306e565b611f72565b005b348015610c0f57600080fd5b50610c18611f94565b604051610c259190612d54565b60405180910390f35b348015610c3a57600080fd5b50610c556004803603810190610c509190613321565b611f9a565b005b348015610c6357600080fd5b50610c7e6004803603810190610c799190612f74565b611fc2565b604051610c8b9190612d54565b60405180910390f35b348015610ca057600080fd5b50610ca9611fda565b604051610cb69190612d54565b60405180910390f35b348015610ccb57600080fd5b50610ce66004803603810190610ce19190612f74565b611fe0565b604051610cf39190613013565b60405180910390f35b348015610d0857600080fd5b50610d11611ff8565b604051610d1e9190613382565b60405180910390f35b348015610d3357600080fd5b50610d3c61201e565b604051610d49919061324c565b60405180910390f35b60155481565b60007f7965db0b000000000000000000000000000000000000000000000000000000007bffffffffffffffffffffffffffffffffffffffffffffffffffffffff1916827bffffffffffffffffffffffffffffffffffffffffffffffffffffffff19161480610dcb5750610dca82612044565b5b9050919050565b60165481565b7fa20b93c4f8376a28d7eddb03920c03f147dd0d958ce891a985cc4d83ec1ecfa7610e02816120ae565b610e0a6120c2565b601a6000815480929190610e1d906133cc565b91905055507f389bf3428fcbfd82e122febb6b2675e4ae77f90db22a1b6d6df386636b8b67df6001601a54610e529190613414565b604051610e5f9190612d54565b60405180910390a17f0e30e9f5279175d80bddc0ba67b00a662b9e914d0c950f8e07e5180a7e73c712604051610e94906134e0565b60405180910390a150565b600080600080601654601754601854601954935093509350935090919293565b60185481565b6000801b610ed2816120ae565b610eda6120c2565b606482848688610eea9190613513565b610ef49190613513565b610efe9190613513565b14610f3e576040517f08c379a0000000000000000000000000000000000000000000000000000000008152600401610f3590613593565b60405180910390fd5b846016819055508360178190555082601881905550816019819055505050505050565b600080600080600d54601554601254600b54935093509350935090919293565b601c6020528060005260406000206000915090505481565b6000806000838152602001908152602001600020600101549050919050565b601b6020528160005260406000206020528060005260406000206000915091509054906101000a900460ff1681565b601a5481565b600c5481565b610ffc82610f99565b611005816120ae565b61100f8383612103565b50505050565b601f6020528060005260406000206000915054906101000a900460ff1681565b61103d6121f4565b73ffffffffffffffffffffffffffffffffffffffff168173ffffffffffffffffffffffffffffffffffffffff16146110a1576040517f6697b23200000000000000000000000000000000000000000000000000000000815260040160405180910390fd5b6110ab82826121fc565b505050565b60006110ba6120c2565b6110c26122ee565b600260019054906101000a900473ffffffffffffffffffffffffffffffffffffffff1673ffffffffffffffffffffffffffffffffffffffff166323b872dd33306006546040518463ffffffff1660e01b8152600401611123939291906135b3565b6020604051808303816000875af1158015611142573d6000803e3d6000fd5b505050506040513d601f19601f820116820180604052508101906111669190613616565b6111a5576040517f08c379a000000000000000000000000000000000000000000000000000000000815260040161119c9061368f565b60405180910390fd5b600d60008154809291906111b8906133cc565b9190505550601c60003373ffffffffffffffffffffffffffffffffffffffff1673ffffffffffffffffffffffffffffffffffffffff168152602001908152602001600020600081548092919061120d906133cc565b9190505550601f60003373ffffffffffffffffffffffffffffffffffffffff1673ffffffffffffffffffffffffffffffffffffffff16815260200190815260200160002060009054906101000a900460ff16611317576001601f60003373ffffffffffffffffffffffffffffffffffffffff1673ffffffffffffffffffffffffffffffffffffffff16815260200190815260200160002060006101000a81548160ff021916908315150217905550601560008154809291906112ce906133cc565b91905055503373ffffffffffffffffffffffffffffffffffffffff167f52e92d4898337244a39bd42674ac561eadfd3959e947deec1c0ab82dd58b5a7560405160405180910390a25b6006546011600082825461132b9190613513565b92505081905550600e5482600f5460405160200161134a929190613741565b6040516020818303038152906040528051906020012014905080156116655760006064605a600b5461137c9190613769565b61138691906137da565b9050600081600b546113989190613414565b90506000600c54905060006064605a836113b29190613769565b6113bc91906137da565b905060006064600a846113cf9190613769565b6113d991906137da565b90508447101561141e576040517f08c379a000000000000000000000000000000000000000000000000000000000815260040161141590613857565b60405180910390fd5b818461142a9190613513565b600b8190555080600c819055506012600081548092919061144a906133cc565b919050555084600a60008282546114619190613513565b925050819055504260138190555033601460006101000a81548173ffffffffffffffffffffffffffffffffffffffff021916908373ffffffffffffffffffffffffffffffffffffffff16021790555060003373ffffffffffffffffffffffffffffffffffffffff16866040516114d6906138a8565b60006040518083038185875af1925050503d8060008114611513576040519150601f19603f3d011682016040523d82523d6000602084013e611518565b606091505b505090508061155c576040517f08c379a000000000000000000000000000000000000000000000000000000000815260040161155390613909565b60405180910390fd5b3373ffffffffffffffffffffffffffffffffffffffff167fb41a7dcde559a617d38981e81372f9c67835bc391794d169f79797582a61295a878a6040516115a4929190613962565b60405180910390a260006115b733612334565b6115d3670de0b6b3a7640000896115ce91906137da565b612606565b611601662386f26fc10000670de0b6b3a76400008b6115f29190613992565b6115fc91906137da565b612606565b8b6040516020016116159493929190613af3565b60405160208183030381529060405290507f0e30e9f5279175d80bddc0ba67b00a662b9e914d0c950f8e07e5180a7e73c712816040516116559190613ba9565b60405180910390a1505050505050505b3373ffffffffffffffffffffffffffffffffffffffff167f3c5c89ae6cea506ea9dd2e76e925e46a9ab1f5b983b1ca0fc7bf99d8b37f692e83836040516116ad929190613bde565b60405180910390a260006009541180156116e25750603c6009546116d19190613769565b6010546116de9190613513565b4210155b156116f0576116ef612766565b5b6116f8612b5e565b919050565b6000801b61170a816120ae565b611712612b67565b50565b600a5481565b60085481565b6000600260009054906101000a900460ff16905090565b6000801b611745816120ae565b61174d6120c2565b600073ffffffffffffffffffffffffffffffffffffffff168273ffffffffffffffffffffffffffffffffffffffff16036117bc576040517f08c379a00000000000000000000000000000000000000000000000000000000081526004016117b390613c5a565b60405180910390fd5b81600460006101000a81548173ffffffffffffffffffffffffffffffffffffffff021916908373ffffffffffffffffffffffffffffffffffffffff1602179055505050565b7fa20b93c4f8376a28d7eddb03920c03f147dd0d958ce891a985cc4d83ec1ecfa781565b60135481565b6000801b611838816120ae565b6118406120c2565b600073ffffffffffffffffffffffffffffffffffffffff168273ffffffffffffffffffffffffffffffffffffffff16036118af576040517f08c379a00000000000000000000000000000000000000000000000000000000081526004016118a690613cc6565b60405180910390fd5b81600560006101000a81548173ffffffffffffffffffffffffffffffffffffffff021916908373ffffffffffffffffffffffffffffffffffffffff16021790555061191a7f0f96d8d40e900718f6f1b4e1d383cdd193bc329a1fa852e567434974c6502c8183612103565b505050565b600460009054906101000a900473ffffffffffffffffffffffffffffffffffffffff1681565b60065481565b6000801b611958816120ae565b611960612bca565b50565b7f0f96d8d40e900718f6f1b4e1d383cdd193bc329a1fa852e567434974c6502c8181565b600d5481565b6119956120c2565b600560009054906101000a900473ffffffffffffffffffffffffffffffffffffffff1673ffffffffffffffffffffffffffffffffffffffff163373ffffffffffffffffffffffffffffffffffffffff1614806119fa57506119f96000801b33611a73565b5b611a39576040517f08c379a0000000000000000000000000000000000000000000000000000000008152600401611a3090613d32565b60405180910390fd5b7f6136e242d0cb60724a54385d6a94f643c97d72a6ab33a39a78e01edb5cf4417081604051611a689190613d52565b60405180910390a150565b600080600084815260200190815260200160002060000160008373ffffffffffffffffffffffffffffffffffffffff1673ffffffffffffffffffffffffffffffffffffffff16815260200190815260200160002060009054906101000a900460ff16905092915050565b60095481565b6000601b60008473ffffffffffffffffffffffffffffffffffffffff1673ffffffffffffffffffffffffffffffffffffffff168152602001908152602001600020600083815260200190815260200160002060009054906101000a900460ff16905092915050565b6000801b81565b7f89b740285894f4ac12958a00aee67daad775ca9e28f2bbb8e4efa59055a26ce481565b60115481565b600b5481565b60125481565b6000801b611b95816120ae565b60003411611bd8576040517f08c379a0000000000000000000000000000000000000000000000000000000008152600401611bcf90613dc0565b60405180910390fd5b34600b6000828254611bea9190613513565b925050819055507f0e30e9f5279175d80bddc0ba67b00a662b9e914d0c950f8e07e5180a7e73c712604051611c1e90613e78565b60405180910390a150565b60175481565b611c376120c2565b611c3f6122ee565b6000601a5411611c84576040517f08c379a0000000000000000000000000000000000000000000000000000000008152600401611c7b90613ef7565b60405180910390fd5b600260019054906101000a900473ffffffffffffffffffffffffffffffffffffffff1673ffffffffffffffffffffffffffffffffffffffff166323b872dd33306007546040518463ffffffff1660e01b8152600401611ce5939291906135b3565b6020604051808303816000875af1158015611d04573d6000803e3d6000fd5b505050506040513d601f19601f82011682018060405250810190611d289190613616565b611d67576040517f08c379a0000000000000000000000000000000000000000000000000000000008152600401611d5e9061368f565b60405180910390fd5b6001601b60003373ffffffffffffffffffffffffffffffffffffffff1673ffffffffffffffffffffffffffffffffffffffff16815260200190815260200160002060006001601a54611db99190613414565b815260200190815260200160002060006101000a81548160ff02191690831515021790555060075460116000828254611df29190613513565b925050819055506000600954118015611e265750603c600954611e159190613769565b601054611e229190613513565b4210155b15611e3457611e33612766565b5b3373ffffffffffffffffffffffffffffffffffffffff167f427f1f257a5f07697d54611a89d584651a58ee23d8588fed5507427716c061656001601a54611e7b9190613414565b604051611e889190612d54565b60405180910390a2611e98612b5e565b565b600f5481565b600260019054906101000a900473ffffffffffffffffffffffffffffffffffffffff1681565b60075481565b7f89b740285894f4ac12958a00aee67daad775ca9e28f2bbb8e4efa59055a26ce4611ef6816120ae565b611efe6120c2565b81600f8190555082600e819055507f0e30e9f5279175d80bddc0ba67b00a662b9e914d0c950f8e07e5180a7e73c712604051611f3990613faf565b60405180910390a1505050565b600e5481565b600560009054906101000a900473ffffffffffffffffffffffffffffffffffffffff1681565b611f7b82610f99565b611f84816120ae565b611f8e83836121fc565b50505050565b60195481565b6000801b611fa7816120ae565b611faf6120c2565b8260068190555081600781905550505050565b601e6020528060005260406000206000915090505481565b60105481565b601d6020528060005260406000206000915090505481565b600360009054906101000a900473ffffffffffffffffffffffffffffffffffffffff1681565b601460009054906101000a900473ffffffffffffffffffffffffffffffffffffffff1681565b60007f01ffc9a7000000000000000000000000000000000000000000000000000000007bffffffffffffffffffffffffffffffffffffffffffffffffffffffff1916827bffffffffffffffffffffffffffffffffffffffffffffffffffffffff1916149050919050565b6120bf816120ba6121f4565b612c2d565b50565b6120ca611721565b15612101576040517fd93c066500000000000000000000000000000000000000000000000000000000815260040160405180910390fd5b565b600061210f8383611a73565b6121e957600160008085815260200190815260200160002060000160008473ffffffffffffffffffffffffffffffffffffffff1673ffffffffffffffffffffffffffffffffffffffff16815260200190815260200160002060006101000a81548160ff0219169083151502179055506121866121f4565b73ffffffffffffffffffffffffffffffffffffffff168273ffffffffffffffffffffffffffffffffffffffff16847f2f8788117e7eff1d82e926ec794901d17c78024a50270940304540a733656f0d60405160405180910390a4600190506121ee565b600090505b92915050565b600033905090565b60006122088383611a73565b156122e357600080600085815260200190815260200160002060000160008473ffffffffffffffffffffffffffffffffffffffff1673ffffffffffffffffffffffffffffffffffffffff16815260200190815260200160002060006101000a81548160ff0219169083151502179055506122806121f4565b73ffffffffffffffffffffffffffffffffffffffff168273ffffffffffffffffffffffffffffffffffffffff16847ff6391f5c32d9c69d2a47ea670b442974b53935d1edc7fd64eb21e047a839171b60405160405180910390a4600190506122e8565b600090505b92915050565b60026001540361232a576040517f3ee5aeb500000000000000000000000000000000000000000000000000000000815260040160405180910390fd5b6002600181905550565b6060600082604051602001612349919061402a565b60405160208183030381529060405290506000600d67ffffffffffffffff811115612377576123766130c9565b5b6040519080825280601f01601f1916602001820160405280156123a95781602001600182028036833780820191505090505b50905060005b600681101561243157826002826123c69190613513565b815181106123d7576123d6614045565b5b602001015160f81c60f81b8282815181106123f5576123f4614045565b5b60200101907effffffffffffffffffffffffffffffffffffffffffffffffffffffffffffff1916908160001a90535080806001019150506123af565b507f2e000000000000000000000000000000000000000000000000000000000000008160068151811061246757612466614045565b5b60200101907effffffffffffffffffffffffffffffffffffffffffffffffffffffffffffff1916908160001a9053507f2e00000000000000000000000000000000000000000000000000000000000000816007815181106124cb576124ca614045565b5b60200101907effffffffffffffffffffffffffffffffffffffffffffffffffffffffffffff1916908160001a9053507f2e000000000000000000000000000000000000000000000000000000000000008160088151811061252f5761252e614045565b5b60200101907effffffffffffffffffffffffffffffffffffffffffffffffffffffffffffff1916908160001a90535060005b60048110156125fb5782600484516125799190613414565b826125849190613513565b8151811061259557612594614045565b5b602001015160f81c60f81b826009836125ae9190613513565b815181106125bf576125be614045565b5b60200101907effffffffffffffffffffffffffffffffffffffffffffffffffffffffffffff1916908160001a9053508080600101915050612561565b508092505050919050565b60606000820361264d576040518060400160405280600181526020017f30000000000000000000000000000000000000000000000000000000000000008152509050612761565b600082905060005b6000821461267f578080612668906133cc565b915050600a8261267891906137da565b9150612655565b60008167ffffffffffffffff81111561269b5761269a6130c9565b5b6040519080825280601f01601f1916602001820160405280156126cd5781602001600182028036833780820191505090505b5090505b6000851461275a576001826126e69190613414565b9150600a856126f59190613992565b60306127019190613513565b60f81b81838151811061271757612716614045565b5b60200101907effffffffffffffffffffffffffffffffffffffffffffffffffffffffffffff1916908160001a905350600a8561275391906137da565b94506126d1565b8093505050505b919050565b60006011540315612b5c5760006011549050600060118190555060006064601654836127929190613769565b61279c91906137da565b9050600081836127ac9190613414565b905060008083111561285c57600260019054906101000a900473ffffffffffffffffffffffffffffffffffffffff1673ffffffffffffffffffffffffffffffffffffffff1663a9059cbb61dead856040518363ffffffff1660e01b8152600401612817929190614074565b6020604051808303816000875af1158015612836573d6000803e3d6000fd5b505050506040513d601f19601f8201168201806040525081019061285a9190613616565b505b60008211156129c957600260019054906101000a900473ffffffffffffffffffffffffffffffffffffffff1673ffffffffffffffffffffffffffffffffffffffff1663095ea7b3600360009054906101000a900473ffffffffffffffffffffffffffffffffffffffff16846040518363ffffffff1660e01b81526004016128e4929190614074565b6020604051808303816000875af1158015612903573d6000803e3d6000fd5b505050506040513d601f19601f820116820180604052508101906129279190613616565b50600360009054906101000a900473ffffffffffffffffffffffffffffffffffffffff1673ffffffffffffffffffffffffffffffffffffffff1663e4849b32836040518263ffffffff1660e01b81526004016129839190612d54565b6020604051808303816000875af11580156129a2573d6000803e3d6000fd5b505050506040513d601f19601f820116820180604052508101906129c691906140b2565b90505b60006019546018546017546129de9190613513565b6129e89190613513565b9050600081601754846129fb9190613769565b612a0591906137da565b905060008260185485612a189190613769565b612a2291906137da565b905060008360195486612a359190613769565b612a3f91906137da565b905082600b6000828254612a539190613513565b9250508190555081600c6000828254612a6c9190613513565b925050819055506000811115612b4c576000600460009054906101000a900473ffffffffffffffffffffffffffffffffffffffff1673ffffffffffffffffffffffffffffffffffffffff1682604051612ac4906138a8565b60006040518083038185875af1925050503d8060008114612b01576040519150601f19603f3d011682016040523d82523d6000602084013e612b06565b606091505b5050905080612b4a576040517f08c379a0000000000000000000000000000000000000000000000000000000008152600401612b419061412b565b60405180910390fd5b505b4260108190555050505050505050505b565b60018081905550565b612b6f612c7e565b6000600260006101000a81548160ff0219169083151502179055507f5db9ee0a495bf2e6ff9c91a7834c1ba4fdd244a5e8aa4e537bd38aeae4b073aa612bb36121f4565b604051612bc0919061324c565b60405180910390a1565b612bd26120c2565b6001600260006101000a81548160ff0219169083151502179055507f62e78cea01bee320cd4e420270b5ea74000d11b0c9f74754ebdbfc544b05a258612c166121f4565b604051612c23919061324c565b60405180910390a1565b612c378282611a73565b612c7a5780826040517fe2517d3f000000000000000000000000000000000000000000000000000000008152600401612c7192919061414b565b60405180910390fd5b5050565b612c86611721565b612cbc576040517f8dfc202b00000000000000000000000000000000000000000000000000000000815260040160405180910390fd5b565b600082825260208201905092915050565b7f5573652066756e644a61636b706f740000000000000000000000000000000000600082015250565b6000612d05600f83612cbe565b9150612d1082612ccf565b602082019050919050565b60006020820190508181036000830152612d3481612cf8565b9050919050565b6000819050919050565b612d4e81612d3b565b82525050565b6000602082019050612d696000830184612d45565b92915050565b6000604051905090565b600080fd5b600080fd5b60007fffffffff0000000000000000000000000000000000000000000000000000000082169050919050565b612db881612d83565b8114612dc357600080fd5b50565b600081359050612dd581612daf565b92915050565b600060208284031215612df157612df0612d79565b5b6000612dff84828501612dc6565b91505092915050565b60008115159050919050565b612e1d81612e08565b82525050565b6000602082019050612e386000830184612e14565b92915050565b6000608082019050612e536000830187612d45565b612e606020830186612d45565b612e6d6040830185612d45565b612e7a6060830184612d45565b95945050505050565b612e8c81612d3b565b8114612e9757600080fd5b50565b600081359050612ea981612e83565b92915050565b60008060008060808587031215612ec957612ec8612d79565b5b6000612ed787828801612e9a565b9450506020612ee887828801612e9a565b9350506040612ef987828801612e9a565b9250506060612f0a87828801612e9a565b91505092959194509250565b600073ffffffffffffffffffffffffffffffffffffffff82169050919050565b6000612f4182612f16565b9050919050565b612f5181612f36565b8114612f5c57600080fd5b50565b600081359050612f6e81612f48565b92915050565b600060208284031215612f8a57612f89612d79565b5b6000612f9884828501612f5f565b91505092915050565b6000819050919050565b612fb481612fa1565b8114612fbf57600080fd5b50565b600081359050612fd181612fab565b92915050565b600060208284031215612fed57612fec612d79565b5b6000612ffb84828501612fc2565b91505092915050565b61300d81612fa1565b82525050565b60006020820190506130286000830184613004565b92915050565b6000806040838503121561304557613044612d79565b5b600061305385828601612f5f565b925050602061306485828601612e9a565b9150509250929050565b6000806040838503121561308557613084612d79565b5b600061309385828601612fc2565b92505060206130a485828601612f5f565b9150509250929050565b600080fd5b600080fd5b6000601f19601f8301169050919050565b7f4e487b7100000000000000000000000000000000000000000000000000000000600052604160045260246000fd5b613101826130b8565b810181811067ffffffffffffffff821117156131205761311f6130c9565b5b80604052505050565b6000613133612d6f565b905061313f82826130f8565b919050565b600067ffffffffffffffff82111561315f5761315e6130c9565b5b613168826130b8565b9050602081019050919050565b82818337600083830152505050565b600061319761319284613144565b613129565b9050828152602081018484840111156131b3576131b26130b3565b5b6131be848285613175565b509392505050565b600082601f8301126131db576131da6130ae565b5b81356131eb848260208601613184565b91505092915050565b60006020828403121561320a57613209612d79565b5b600082013567ffffffffffffffff81111561322857613227612d7e565b5b613234848285016131c6565b91505092915050565b61324681612f36565b82525050565b6000602082019050613261600083018461323d565b92915050565b6000819050919050565b600061328c61328761328284612f16565b613267565b612f16565b9050919050565b600061329e82613271565b9050919050565b60006132b082613293565b9050919050565b6132c0816132a5565b82525050565b60006020820190506132db60008301846132b7565b92915050565b600080604083850312156132f8576132f7612d79565b5b600061330685828601612fc2565b925050602061331785828601612fc2565b9150509250929050565b6000806040838503121561333857613337612d79565b5b600061334685828601612e9a565b925050602061335785828601612e9a565b9150509250929050565b600061336c82613293565b9050919050565b61337c81613361565b82525050565b60006020820190506133976000830184613373565b92915050565b7f4e487b7100000000000000000000000000000000000000000000000000000000600052601160045260246000fd5b60006133d782612d3b565b91507fffffffffffffffffffffffffffffffffffffffffffffffffffffffffffffffff82036134095761340861339d565b5b600182019050919050565b600061341f82612d3b565b915061342a83612d3b565b92508282039050818111156134425761344161339d565b5b92915050565b7f4e45575f48494e54000000000000000000000000000000000000000000000000600082015250565b600061347e600883612cbe565b915061348982613448565b602082019050919050565b7f4e65772068696e7420617661696c61626c652100000000000000000000000000600082015250565b60006134ca601383612cbe565b91506134d582613494565b602082019050919050565b600060408201905081810360008301526134f981613471565b9050818103602083015261350c816134bd565b9050919050565b600061351e82612d3b565b915061352983612d3b565b92508282019050808211156135415761354061339d565b5b92915050565b7f4d7573742073756d20746f203130300000000000000000000000000000000000600082015250565b600061357d600f83612cbe565b915061358882613547565b602082019050919050565b600060208201905081810360008301526135ac81613570565b9050919050565b60006060820190506135c8600083018661323d565b6135d5602083018561323d565b6135e26040830184612d45565b949350505050565b6135f381612e08565b81146135fe57600080fd5b50565b600081519050613610816135ea565b92915050565b60006020828403121561362c5761362b612d79565b5b600061363a84828501613601565b91505092915050565b7f5472616e73666572206661696c65640000000000000000000000000000000000600082015250565b6000613679600f83612cbe565b915061368482613643565b602082019050919050565b600060208201905081810360008301526136a88161366c565b9050919050565b600081519050919050565b600081905092915050565b60005b838110156136e35780820151818401526020810190506136c8565b60008484015250505050565b60006136fa826136af565b61370481856136ba565b93506137148185602086016136c5565b80840191505092915050565b6000819050919050565b61373b61373682612fa1565b613720565b82525050565b600061374d82856136ef565b9150613759828461372a565b6020820191508190509392505050565b600061377482612d3b565b915061377f83612d3b565b925082820261378d81612d3b565b915082820484148315176137a4576137a361339d565b5b5092915050565b7f4e487b7100000000000000000000000000000000000000000000000000000000600052601260045260246000fd5b60006137e582612d3b565b91506137f083612d3b565b925082613800576137ff6137ab565b5b828204905092915050565b7f496e73756666696369656e74205320666f72207061796f757400000000000000600082015250565b6000613841601983612cbe565b915061384c8261380b565b602082019050919050565b6000602082019050818103600083015261387081613834565b9050919050565b600081905092915050565b50565b6000613892600083613877565b915061389d82613882565b600082019050919050565b60006138b382613885565b9150819050919050565b7f5061796f7574206661696c656400000000000000000000000000000000000000600082015250565b60006138f3600d83612cbe565b91506138fe826138bd565b602082019050919050565b60006020820190508181036000830152613922816138e6565b9050919050565b6000613934826136af565b61393e8185612cbe565b935061394e8185602086016136c5565b613957816130b8565b840191505092915050565b60006040820190506139776000830185612d45565b81810360208301526139898184613929565b90509392505050565b600061399d82612d3b565b91506139a883612d3b565b9250826139b8576139b76137ab565b5b828206905092915050565b7f5765206861766520612077696e6e657221200000000000000000000000000000600082015250565b60006139f96012836136ba565b9150613a04826139c3565b601282019050919050565b7f206a75737420776f6e2000000000000000000000000000000000000000000000600082015250565b6000613a45600a836136ba565b9150613a5082613a0f565b600a82019050919050565b7f2e00000000000000000000000000000000000000000000000000000000000000600082015250565b6000613a916001836136ba565b9150613a9c82613a5b565b600182019050919050565b7f2053206279206775657373696e6720746865207365637265743a200000000000600082015250565b6000613add601b836136ba565b9150613ae882613aa7565b601b82019050919050565b6000613afe826139ec565b9150613b0a82876136ef565b9150613b1582613a38565b9150613b2182866136ef565b9150613b2c82613a84565b9150613b3882856136ef565b9150613b4382613ad0565b9150613b4f82846136ef565b915081905095945050505050565b7f4a41434b504f545f574f4e000000000000000000000000000000000000000000600082015250565b6000613b93600b83612cbe565b9150613b9e82613b5d565b602082019050919050565b60006040820190508181036000830152613bc281613b86565b90508181036020830152613bd68184613929565b905092915050565b60006040820190508181036000830152613bf88185613929565b9050613c076020830184612e14565b9392505050565b7f496e76616c696420616464726573730000000000000000000000000000000000600082015250565b6000613c44600f83612cbe565b9150613c4f82613c0e565b602082019050919050565b60006020820190508181036000830152613c7381613c37565b9050919050565b7f496e76616c6964206167656e7420616464726573730000000000000000000000600082015250565b6000613cb0601583612cbe565b9150613cbb82613c7a565b602082019050919050565b60006020820190508181036000830152613cdf81613ca3565b9050919050565b7f556e617574686f72697a65640000000000000000000000000000000000000000600082015250565b6000613d1c600c83612cbe565b9150613d2782613ce6565b602082019050919050565b60006020820190508181036000830152613d4b81613d0f565b9050919050565b60006020820190508181036000830152613d6c8184613929565b905092915050565b7f4d7573742073656e64205320746f2066756e64206a61636b706f740000000000600082015250565b6000613daa601b83612cbe565b9150613db582613d74565b602082019050919050565b60006020820190508181036000830152613dd981613d9d565b9050919050565b7f4a41434b504f545f46554e444544000000000000000000000000000000000000600082015250565b6000613e16600e83612cbe565b9150613e2182613de0565b602082019050919050565b7f4a61636b706f742066756e646564210000000000000000000000000000000000600082015250565b6000613e62600f83612cbe565b9150613e6d82613e2c565b602082019050919050565b60006040820190508181036000830152613e9181613e09565b90508181036020830152613ea481613e55565b9050919050565b7f4e6f2068696e747320617661696c61626c650000000000000000000000000000600082015250565b6000613ee1601283612cbe565b9150613eec82613eab565b602082019050919050565b60006020820190508181036000830152613f1081613ed4565b9050919050565b7f4e45575f53454352455400000000000000000000000000000000000000000000600082015250565b6000613f4d600a83612cbe565b9150613f5882613f17565b602082019050919050565b7f4e65772073656372657420736574210000000000000000000000000000000000600082015250565b6000613f99600f83612cbe565b9150613fa482613f63565b602082019050919050565b60006040820190508181036000830152613fc881613f40565b90508181036020830152613fdb81613f8c565b9050919050565b60008160601b9050919050565b6000613ffa82613fe2565b9050919050565b600061400c82613fef565b9050919050565b61402461401f82612f36565b614001565b82525050565b60006140368284614013565b60148201915081905092915050565b7f4e487b7100000000000000000000000000000000000000000000000000000000600052603260045260246000fd5b6000604082019050614089600083018561323d565b6140966020830184612d45565b9392505050565b6000815190506140ac81612e83565b92915050565b6000602082840312156140c8576140c7612d79565b5b60006140d68482850161409d565b91505092915050565b7f4d61726b6574696e67207472616e73666572206661696c656400000000000000600082015250565b6000614115601983612cbe565b9150614120826140df565b602082019050919050565b6000602082019050818103600083015261414481614108565b9050919050565b6000604082019050614160600083018561323d565b61416d6020830184613004565b939250505056fea2646970667358221220def14232e983f03165af93d1ec1569ab2617c7049691600b585551cfc8fe520664736f6c634300081c0033",
  "linkReferences": {},
  "deployedLinkReferences": {}
}