{
  "_format": "hh-sol-artifact-1",
  "contractName": "JackpotGame",
  "sourceName": "contracts/JackpotGame.sol",
  "abi": [
    {
      "inputs": [
        {
          "internalType": "address",
          "name": "_gameToken",
          "type": "address"
        },
        {
          "internalType": "address",
          "name": "_bondingCurve",
          "type": "address"
        },
        {
          "internalType": "address",
          "name": "_marketingWallet",
          "type": "address"
        }
      ],
      "stateMutability": "nonpayable",
      "type": "constructor"
    },
    {
      "inputs": [],
      "name": "AccessControlBadConfirmation",
      "type": "error"
    },
    {
      "inputs": [
        {
          "internalType": "address",
          "name": "account",
          "type": "address"
        },
        {
          "internalType": "bytes32",
          "name": "neededRole",
          "type": "bytes32"
        }
      ],
      "name": "AccessControlUnauthorizedAccount",
      "type": "error"
    },
    {
      "inputs": [],
      "name": "EnforcedPause",
      "type": "error"
    },
    {
      "inputs": [],
      "name": "ExpectedPause",
      "type": "error"
    },
    {
      "inputs": [],
      "name": "ReentrancyGuardReentrantCall",
      "type": "error"
    },
    {
      "anonymous": false,
      "inputs": [
        {
          "indexed": false,
          "internalType": "string",
          "name": "message",
          "type": "string"
        }
      ],
      "name": "GameUpdate",
      "type": "event"
    },
    {
      "anonymous": false,
      "inputs": [
        {
          "indexed": true,
          "internalType": "address",
          "name": "player",
          "type": "address"
        },
        {
          "indexed": false,
          "internalType": "bytes32",
          "name": "commitment",
          "type": "bytes32"
        }
      ],
      "name": "GuessCommitted",
      "type": "event"
    },
    {
      "anonymous": false,
      "inputs": [
        {
          "indexed": true,
          "internalType": "address",
          "name": "player",
          "type": "address"
        },
        {
          "indexed": false,
          "internalType": "string",
          "name": "guess",
          "type": "string"
        },
        {
          "indexed": false,
          "internalType": "bool",
          "name": "won",
          "type": "bool"
        }
      ],
      "name": "GuessRevealed",
      "type": "event"
    },
    {
      "anonymous": false,
      "inputs": [
        {
          "indexed": false,
          "internalType": "uint256",
          "name": "index",
          "type": "uint256"
        }
      ],
      "name": "HintAdded",
      "type": "event"
    },
    {
      "anonymous": false,
      "inputs": [
        {
          "indexed": true,
          "internalType": "address",
          "name": "player",
          "type": "address"
        },
        {
          "indexed": false,
          "internalType": "uint256",
          "name": "hintIndex",
          "type": "uint256"
        }
      ],
      "name": "HintRequested",
      "type": "event"
    },
    {
      "anonymous": false,
      "inputs": [
        {
          "indexed": true,
          "internalType": "address",
          "name": "winner",
          "type": "address"
        },
        {
          "indexed": false,
          "internalType": "uint256",
          "name": "amount",
          "type": "uint256"
        },
        {
          "indexed": false,
          "internalType": "string",
          "name": "guess",
          "type": "string"
        }
      ],
      "name": "JackpotWon",
      "type": "event"
    },
    {
      "anonymous": false,
      "inputs": [
        {
          "indexed": true,
          "internalType": "address",
          "name": "player",
          "type": "address"
        }
      ],
      "name": "NewPlayer",
      "type": "event"
    },
    {
      "anonymous": false,
      "inputs": [
        {
          "indexed": false,
          "internalType": "address",
          "name": "account",
          "type": "address"
        }
      ],
      "name": "Paused",
      "type": "event"
    },
    {
      "anonymous": false,
      "inputs": [
        {
          "indexed": true,
          "internalType": "bytes32",
          "name": "role",
          "type": "bytes32"
        },
        {
          "indexed": true,
          "internalType": "bytes32",
          "name": "previousAdminRole",
          "type": "bytes32"
        },
        {
          "indexed": true,
          "internalType": "bytes32",
          "name": "newAdminRole",
          "type": "bytes32"
        }
      ],
      "name": "RoleAdminChanged",
      "type": "event"
    },
    {
      "anonymous": false,
      "inputs": [
        {
          "indexed": true,
          "internalType": "bytes32",
          "name": "role",
          "type": "bytes32"
        },
        {
          "indexed": true,
          "internalType": "address",
          "name": "account",
          "type": "address"
        },
        {
          "indexed": true,
          "internalType": "address",
          "name": "sender",
          "type": "address"
        }
      ],
      "name": "RoleGranted",
      "type": "event"
    },
    {
      "anonymous": false,
      "inputs": [
        {
          "indexed": true,
          "internalType": "bytes32",
          "name": "role",
          "type": "bytes32"
        },
        {
          "indexed": true,
          "internalType": "address",
          "name": "account",
          "type": "address"
        },
        {
          "indexed": true,
          "internalType": "address",
          "name": "sender",
          "type": "address"
        }
      ],
      "name": "RoleRevoked",
      "type": "event"
    },
    {
      "anonymous": false,
      "inputs": [
        {
          "indexed": false,
          "internalType": "string",
          "name": "announcementType",
          "type": "string"
        },
        {
          "indexed": false,
          "internalType": "string",
          "name": "message",
          "type": "string"
        }
      ],
      "name": "SocialAnnouncement",
      "type": "event"
    },
    {
      "anonymous": false,
      "inputs": [
        {
          "indexed": false,
          "internalType": "address",
          "name": "account",
          "type": "address"
        }
      ],
      "name": "Unpaused",
      "type": "event"
    },
    {
      "inputs": [],
      "name": "DEFAI_AGENT_ROLE",
      "outputs": [
        {
          "internalType": "bytes32",
          "name": "",
          "type": "bytes32"
        }
      ],
      "stateMutability": "view",
      "type": "function"
    },
    {
      "inputs": [],
      "name": "DEFAULT_ADMIN_ROLE",
      "outputs": [
        {
          "internalType": "bytes32",
          "name": "",
          "type": "bytes32"
        }
      ],
      "stateMutability": "view",
      "type": "function"
    },
    {
      "inputs": [],
      "name": "HINT_MANAGER_ROLE",
      "outputs": [
        {
          "internalType": "bytes32",
          "name": "",
          "type": "bytes32"
        }
      ],
      "stateMutability": "view",
      "type": "function"
    },
    {
      "inputs": [],
      "name": "PASSWORD_SETTER_ROLE",
      "outputs": [
        {
          "internalType": "bytes32",
          "name": "",
          "type": "bytes32"
        }
      ],
      "stateMutability": "view",
      "type": "function"
    },
    {
      "inputs": [],
      "name": "accumulated100X",
      "outputs": [
        {
          "internalType": "uint256",
          "name": "",
          "type": "uint256"
        }
      ],
      "stateMutability": "view",
      "type": "function"
    },
    {
      "inputs": [],
      "name": "addHint",
      "outputs": [],
      "stateMutability": "nonpayable",
      "type": "function"
    },
    {
      "inputs": [],
      "name": "batchInterval",
      "outputs": [
        {
          "internalType": "uint256",
          "name": "",
          "type": "uint256"
        }
      ],
      "stateMutability": "view",
      "type": "function"
    },
    {
      "inputs": [],
      "name": "bondingCurve",
      "outputs": [
        {
          "internalType": "contract IBondingCurve",
          "name": "",
          "type": "address"
        }
      ],
      "stateMutability": "view",
      "type": "function"
    },
    {
      "inputs": [],
      "name": "burnPercent",
      "outputs": [
        {
          "internalType": "uint256",
          "name": "",
          "type": "uint256"
        }
      ],
      "stateMutability": "view",
      "type": "function"
    },
    {
      "inputs": [
        {
          "internalType": "address",
          "name": "",
          "type": "address"
        }
      ],
      "name": "commitBlocks",
      "outputs": [
        {
          "internalType": "uint256",
          "name": "",
          "type": "uint256"
        }
      ],
      "stateMutability": "view",
      "type": "function"
    },
    {
      "inputs": [
        {
          "internalType": "address",
          "name": "",
          "type": "address"
        }
      ],
      "name": "commitments",
      "outputs": [
        {
          "internalType": "bytes32",
          "name": "",
          "type": "bytes32"
        }
      ],
      "stateMutability": "view",
      "type": "function"
    },
    {
      "inputs": [],
      "name": "defaiAgent",
      "outputs": [
        {
          "internalType": "address",
          "name": "",
          "type": "address"
        }
      ],
      "stateMutability": "view",
      "type": "function"
    },
    {
      "inputs": [
        {
          "internalType": "address",
          "name": "_token",
          "type": "address"
        },
        {
          "internalType": "address",
          "name": "_to",
          "type": "address"
        },
        {
          "internalType": "uint256",
          "name": "_amount",
          "type": "uint256"
        }
      ],
      "name": "emergencyWithdraw",
      "outputs": [],
      "stateMutability": "nonpayable",
      "type": "function"
    },
    {
      "inputs": [
        {
          "internalType": "string",
          "name": "_message",
          "type": "string"
        }
      ],
      "name": "emitGameUpdate",
      "outputs": [],
      "stateMutability": "nonpayable",
      "type": "function"
    },
    {
      "inputs": [],
      "name": "fundJackpot",
      "outputs": [],
      "stateMutability": "payable",
      "type": "function"
    },
    {
      "inputs": [],
      "name": "gameToken",
      "outputs": [
        {
          "internalType": "contract IERC20",
          "name": "",
          "type": "address"
        }
      ],
      "stateMutability": "view",
      "type": "function"
    },
    {
      "inputs": [],
      "name": "getGameStats",
      "outputs": [
        {
          "internalType": "uint256",
          "name": "",
          "type": "uint256"
        },
        {
          "internalType": "uint256",
          "name": "",
          "type": "uint256"
        },
        {
          "internalType": "uint256",
          "name": "",
          "type": "uint256"
        },
        {
          "internalType": "uint256",
          "name": "",
          "type": "uint256"
        }
      ],
      "stateMutability": "view",
      "type": "function"
    },
    {
      "inputs": [
        {
          "internalType": "bytes32",
          "name": "role",
          "type": "bytes32"
        }
      ],
      "name": "getRoleAdmin",
      "outputs": [
        {
          "internalType": "bytes32",
          "name": "",
          "type": "bytes32"
        }
      ],
      "stateMutability": "view",
      "type": "function"
    },
    {
      "inputs": [],
      "name": "getSplit",
      "outputs": [
        {
          "internalType": "uint256",
          "name": "",
          "type": "uint256"
        },
        {
          "internalType": "uint256",
          "name": "",
          "type": "uint256"
        },
        {
          "internalType": "uint256",
          "name": "",
          "type": "uint256"
        },
        {
          "internalType": "uint256",
          "name": "",
          "type": "uint256"
        }
      ],
      "stateMutability": "view",
      "type": "function"
    },
    {
      "inputs": [
        {
          "internalType": "bytes32",
          "name": "role",
          "type": "bytes32"
        },
        {
          "internalType": "address",
          "name": "account",
          "type": "address"
        }
      ],
      "name": "grantRole",
      "outputs": [],
      "stateMutability": "nonpayable",
      "type": "function"
    },
    {
      "inputs": [],
      "name": "guessCost",
      "outputs": [
        {
          "internalType": "uint256",
          "name": "",
          "type": "uint256"
        }
      ],
      "stateMutability": "view",
      "type": "function"
    },
    {
      "inputs": [
        {
          "internalType": "address",
          "name": "user",
          "type": "address"
        },
        {
          "internalType": "uint256",
          "name": "hintIndex",
          "type": "uint256"
        }
      ],
      "name": "hasAccessToHint",
      "outputs": [
        {
          "internalType": "bool",
          "name": "",
          "type": "bool"
        }
      ],
      "stateMutability": "view",
      "type": "function"
    },
    {
      "inputs": [
        {
          "internalType": "address",
          "name": "",
          "type": "address"
        }
      ],
      "name": "hasPlayed",
      "outputs": [
        {
          "internalType": "bool",
          "name": "",
          "type": "bool"
        }
      ],
      "stateMutability": "view",
      "type": "function"
    },
    {
      "inputs": [
        {
          "internalType": "bytes32",
          "name": "role",
          "type": "bytes32"
        },
        {
          "internalType": "address",
          "name": "account",
          "type": "address"
        }
      ],
      "name": "hasRole",
      "outputs": [
        {
          "internalType": "bool",
          "name": "",
          "type": "bool"
        }
      ],
      "stateMutability": "view",
      "type": "function"
    },
    {
      "inputs": [],
      "name": "hintCost",
      "outputs": [
        {
          "internalType": "uint256",
          "name": "",
          "type": "uint256"
        }
      ],
      "stateMutability": "view",
      "type": "function"
    },
    {
      "inputs": [],
      "name": "hintCount",
      "outputs": [
        {
          "internalType": "uint256",
          "name": "",
          "type": "uint256"
        }
      ],
      "stateMutability": "view",
      "type": "function"
    },
    {
      "inputs": [
        {
          "internalType": "address",
          "name": "",
          "type": "address"
        },
        {
          "internalType": "uint256",
          "name": "",
          "type": "uint256"
        }
      ],
      "name": "hintPurchases",
      "outputs": [
        {
          "internalType": "bool",
          "name": "",
          "type": "bool"
        }
      ],
      "stateMutability": "view",
      "type": "function"
    },
    {
      "inputs": [],
      "name": "jackpotAmount",
      "outputs": [
        {
          "internalType": "uint256",
          "name": "",
          "type": "uint256"
        }
      ],
      "stateMutability": "view",
      "type": "function"
    },
    {
      "inputs": [],
      "name": "jackpotPercent",
      "outputs": [
        {
          "internalType": "uint256",
          "name": "",
          "type": "uint256"
        }
      ],
      "stateMutability": "view",
      "type": "function"
    },
    {
      "inputs": [],
      "name": "lastBatchTime",
      "outputs": [
        {
          "internalType": "uint256",
          "name": "",
          "type": "uint256"
        }
      ],
      "stateMutability": "view",
      "type": "function"
    },
    {
      "inputs": [],
      "name": "lastWinTime",
      "outputs": [
        {
          "internalType": "uint256",
          "name": "",
          "type": "uint256"
        }
      ],
      "stateMutability": "view",
      "type": "function"
    },
    {
      "inputs": [],
      "name": "lastWinner",
      "outputs": [
        {
          "internalType": "address",
          "name": "",
          "type": "address"
        }
      ],
      "stateMutability": "view",
      "type": "function"
    },
    {
      "inputs": [],
      "name": "marketingPercent",
      "outputs": [
        {
          "internalType": "uint256",
          "name": "",
          "type": "uint256"
        }
      ],
      "stateMutability": "view",
      "type": "function"
    },
    {
      "inputs": [],
      "name": "marketingWallet",
      "outputs": [
        {
          "internalType": "address",
          "name": "",
          "type": "address"
        }
      ],
      "stateMutability": "view",
      "type": "function"
    },
    {
      "inputs": [],
      "name": "nextJackpotAmount",
      "outputs": [
        {
          "internalType": "uint256",
          "name": "",
          "type": "uint256"
        }
      ],
      "stateMutability": "view",
      "type": "function"
    },
    {
      "inputs": [],
      "name": "nextJackpotPercent",
      "outputs": [
        {
          "internalType": "uint256",
          "name": "",
          "type": "uint256"
        }
      ],
      "stateMutability": "view",
      "type": "function"
    },
    {
      "inputs": [],
      "name": "pause",
      "outputs": [],
      "stateMutability": "nonpayable",
      "type": "function"
    },
    {
      "inputs": [],
      "name": "paused",
      "outputs": [
        {
          "internalType": "bool",
          "name": "",
          "type": "bool"
        }
      ],
      "stateMutability": "view",
      "type": "function"
    },
    {
      "inputs": [
        {
          "internalType": "address",
          "name": "",
          "type": "address"
        }
      ],
      "name": "playerGuesses",
      "outputs": [
        {
          "internalType": "uint256",
          "name": "",
          "type": "uint256"
        }
      ],
      "stateMutability": "view",
      "type": "function"
    },
    {
      "inputs": [
        {
          "internalType": "bytes32",
          "name": "role",
          "type": "bytes32"
        },
        {
          "internalType": "address",
          "name": "callerConfirmation",
          "type": "address"
        }
      ],
      "name": "renounceRole",
      "outputs": [],
      "stateMutability": "nonpayable",
      "type": "function"
    },
    {
      "inputs": [],
      "name": "requestHint",
      "outputs": [],
      "stateMutability": "nonpayable",
      "type": "function"
    },
    {
      "inputs": [],
      "name": "revealDelay",
      "outputs": [
        {
          "internalType": "uint256",
          "name": "",
          "type": "uint256"
        }
      ],
      "stateMutability": "view",
      "type": "function"
    },
    {
      "inputs": [
        {
          "internalType": "bytes32",
          "name": "role",
          "type": "bytes32"
        },
        {
          "internalType": "address",
          "name": "account",
          "type": "address"
        }
      ],
      "name": "revokeRole",
      "outputs": [],
      "stateMutability": "nonpayable",
      "type": "function"
    },
    {
      "inputs": [],
      "name": "salt",
      "outputs": [
        {
          "internalType": "bytes32",
          "name": "",
          "type": "bytes32"
        }
      ],
      "stateMutability": "view",
      "type": "function"
    },
    {
      "inputs": [],
      "name": "secretHash",
      "outputs": [
        {
          "internalType": "bytes32",
          "name": "",
          "type": "bytes32"
        }
      ],
      "stateMutability": "view",
      "type": "function"
    },
    {
      "inputs": [
        {
          "internalType": "uint256",
          "name": "_interval",
          "type": "uint256"
        }
      ],
      "name": "setBatchInterval",
      "outputs": [],
      "stateMutability": "nonpayable",
      "type": "function"
    },
    {
      "inputs": [
        {
          "internalType": "uint256",
          "name": "_guessCost",
          "type": "uint256"
        },
        {
          "internalType": "uint256",
          "name": "_hintCost",
          "type": "uint256"
        }
      ],
      "name": "setCosts",
      "outputs": [],
      "stateMutability": "nonpayable",
      "type": "function"
    },
    {
      "inputs": [
        {
          "internalType": "address",
          "name": "_agent",
          "type": "address"
        }
      ],
      "name": "setDefaiAgent",
      "outputs": [],
      "stateMutability": "nonpayable",
      "type": "function"
    },
    {
      "inputs": [
        {
          "internalType": "address",
          "name": "_newWallet",
          "type": "address"
        }
      ],
      "name": "setMarketingWallet",
      "outputs": [],
      "stateMutability": "nonpayable",
      "type": "function"
    },
    {
      "inputs": [
        {
          "internalType": "bytes32",
          "name": "_hashedSecret",
          "type": "bytes32"
        },
        {
          "internalType": "bytes32",
          "name": "_newSalt",
          "type": "bytes32"
        }
      ],
      "name": "setSecretHash",
      "outputs": [],
      "stateMutability": "nonpayable",
      "type": "function"
    },
    {
      "inputs": [
        {
          "internalType": "string",
          "name": "_guess",
          "type": "string"
        }
      ],
      "name": "singleStepGuess",
      "outputs": [
        {
          "internalType": "bool",
          "name": "won",
          "type": "bool"
        }
      ],
      "stateMutability": "nonpayable",
      "type": "function"
    },
    {
      "inputs": [
        {
          "internalType": "bytes4",
          "name": "interfaceId",
          "type": "bytes4"
        }
      ],
      "name": "supportsInterface",
      "outputs": [
        {
          "internalType": "bool",
          "name": "",
          "type": "bool"
        }
      ],
      "stateMutability": "view",
      "type": "function"
    },
    {
      "inputs": [],
      "name": "totalGuesses",
      "outputs": [
        {
          "internalType": "uint256",
          "name": "",
          "type": "uint256"
        }
      ],
      "stateMutability": "view",
      "type": "function"
    },
    {
      "inputs": [],
      "name": "totalPayouts",
      "outputs": [
        {
          "internalType": "uint256",
          "name": "",
          "type": "uint256"
        }
      ],
      "stateMutability": "view",
      "type": "function"
    },
    {
      "inputs": [],
      "name": "totalWinners",
      "outputs": [
        {
          "internalType": "uint256",
          "name": "",
          "type": "uint256"
        }
      ],
      "stateMutability": "view",
      "type": "function"
    },
    {
      "inputs": [],
      "name": "uniquePlayers",
      "outputs": [
        {
          "internalType": "uint256",
          "name": "",
          "type": "uint256"
        }
      ],
      "stateMutability": "view",
      "type": "function"
    },
    {
      "inputs": [],
      "name": "unpause",
      "outputs": [],
      "stateMutability": "nonpayable",
      "type": "function"
    },
    {
      "inputs": [
        {
          "internalType": "uint256",
          "name": "_burn",
          "type": "uint256"
        },
        {
          "internalType": "uint256",
          "name": "_jackpot",
          "type": "uint256"
        },
        {
          "internalType": "uint256",
          "name": "_next",
          "type": "uint256"
        },
        {
          "internalType": "uint256",
          "name": "_marketing",
          "type": "uint256"
        }
      ],
      "name": "updateSplit",
      "outputs": [],
      "stateMutability": "nonpayable",
      "type": "function"
    },
    {
      "stateMutability": "payable",
      "type": "receive"
    }
  ],
  "bytecode": "0x6080604052601e601655602d601755600f601855600a60195534801561002457600080fd5b5060405161503b38038061503b833981810160405281019061004691906104ef565b600180819055506000600260006101000a81548160ff021916908315150217905550600073ffffffffffffffffffffffffffffffffffffffff168373ffffffffffffffffffffffffffffffffffffffff16036100d7576040517f08c379a00000000000000000000000000000000000000000000000000000000081526004016100ce9061059f565b60405180910390fd5b600073ffffffffffffffffffffffffffffffffffffffff168273ffffffffffffffffffffffffffffffffffffffff1603610146576040517f08c379a000000000000000000000000000000000000000000000000000000000815260040161013d9061060b565b60405180910390fd5b600073ffffffffffffffffffffffffffffffffffffffff168173ffffffffffffffffffffffffffffffffffffffff16036101b5576040517f08c379a00000000000000000000000000000000000000000000000000000000081526004016101ac90610677565b60405180910390fd5b82600260016101000a81548173ffffffffffffffffffffffffffffffffffffffff021916908373ffffffffffffffffffffffffffffffffffffffff16021790555081600360006101000a81548173ffffffffffffffffffffffffffffffffffffffff021916908373ffffffffffffffffffffffffffffffffffffffff16021790555080600460006101000a81548173ffffffffffffffffffffffffffffffffffffffff021916908373ffffffffffffffffffffffffffffffffffffffff1602179055506402540be40060068190555064012a05f200600781905550600a600881905550426010819055506102b26000801b3361031d60201b60201c565b506102e37f89b740285894f4ac12958a00aee67daad775ca9e28f2bbb8e4efa59055a26ce43361031d60201b60201c565b506103147fa20b93c4f8376a28d7eddb03920c03f147dd0d958ce891a985cc4d83ec1ecfa73361031d60201b60201c565b50505050610697565b600061032f838361041a60201b60201c565b61040f57600160008085815260200190815260200160002060000160008473ffffffffffffffffffffffffffffffffffffffff1673ffffffffffffffffffffffffffffffffffffffff16815260200190815260200160002060006101000a81548160ff0219169083151502179055506103ac61048460201b60201c565b73ffffffffffffffffffffffffffffffffffffffff168273ffffffffffffffffffffffffffffffffffffffff16847f2f8788117e7eff1d82e926ec794901d17c78024a50270940304540a733656f0d60405160405180910390a460019050610414565b600090505b92915050565b600080600084815260200190815260200160002060000160008373ffffffffffffffffffffffffffffffffffffffff1673ffffffffffffffffffffffffffffffffffffffff16815260200190815260200160002060009054906101000a900460ff16905092915050565b600033905090565b600080fd5b600073ffffffffffffffffffffffffffffffffffffffff82169050919050565b60006104bc82610491565b9050919050565b6104cc816104b1565b81146104d757600080fd5b50565b6000815190506104e9816104c3565b92915050565b6000806000606084860312156105085761050761048c565b5b6000610516868287016104da565b9350506020610527868287016104da565b9250506040610538868287016104da565b9150509250925092565b600082825260208201905092915050565b7f496e76616c696420746f6b656e20616464726573730000000000000000000000600082015250565b6000610589601583610542565b915061059482610553565b602082019050919050565b600060208201905081810360008301526105b88161057c565b9050919050565b7f496e76616c696420637572766520616464726573730000000000000000000000600082015250565b60006105f5601583610542565b9150610600826105bf565b602082019050919050565b60006020820190508181036000830152610624816105e8565b9050919050565b7f496e76616c69642077616c6c6574206164647265737300000000000000000000600082015250565b6000610661601683610542565b915061066c8261062b565b602082019050919050565b6000602082019050818103600083015261069081610654565b9050919050565b614995806106a66000396000f3fe6080604052600436106103845760003560e01c80638ef28249116101d1578063c3dfdae611610102578063d8020a18116100a0578063e63ea4081161006f578063e63ea40814610cfe578063e8fcf72314610d27578063eff1d50e14610d64578063fe18818414610d8f576103c4565b8063d8020a1814610c42578063db58990714610c6d578063dd2abd9914610c96578063e5efd58514610cd3576103c4565b8063d29e6803116100dc578063d29e680314610b9a578063d3e828cd14610bc5578063d5255f9414610bee578063d547741f14610c19576103c4565b8063c3dfdae614610b1b578063c732273014610b46578063d11057b314610b71576103c4565b8063b14542181161016f578063bd23774111610149578063bd23774114610aa4578063bf4637e514610aae578063bf6aca7314610ad9578063bfa0b13314610af0576103c4565b8063b145421814610a23578063b1eac37e14610a4e578063bcc941b614610a79576103c4565b8063975d063d116101ab578063975d063d146109655780639d0fc7da14610990578063a217fddf146109cd578063a8a6a984146109f8576103c4565b80638ef28249146108d457806390676ddd146108ff57806391d1485414610928576103c4565b806332d0bbe3116102b65780635d098b381161025457806375f0a8741161022357806375f0a8741461083c5780637ccbe9f1146108675780638456cb59146108925780638608baea146108a9576103c4565b80635d098b38146107945780636a3429a3146107bd5780636bea9a48146107e8578063714aa16614610813576103c4565b80633f4ba83a116102905780633f4ba83a146106fc5780634089b1701461071357806353236d741461073e5780635c975abb14610769576103c4565b806332d0bbe31461065957806336568abe146106965780633af9c939146106bf576103c4565b80631aff30dd116103235780632990f496116102fd5780632990f4961461059d5780632c49ea20146105da5780632d7ed6b7146106055780632f2ff15d14610630576103c4565b80631aff30dd146104f557806324396bde14610523578063248a9ca314610560576103c4565b80630ead99961161035f5780630ead99961461045c57806312ab3c271461047357806314266cf7146104a157806316e015db146104cc576103c4565b8062207875146103c957806301ffc9a7146103f457806303807ee514610431576103c4565b366103c4576040517f08c379a00000000000000000000000000000000000000000000000000000000081526004016103bb90613179565b60405180910390fd5b600080fd5b3480156103d557600080fd5b506103de610dba565b6040516103eb91906131b2565b60405180910390f35b34801561040057600080fd5b5061041b60048036038101906104169190613239565b610dc0565b6040516104289190613281565b60405180910390f35b34801561043d57600080fd5b50610446610e3a565b60405161045391906131b2565b60405180910390f35b34801561046857600080fd5b50610471610e40565b005b34801561047f57600080fd5b50610488610f07565b604051610498949392919061329c565b60405180910390f35b3480156104ad57600080fd5b506104b6610f27565b6040516104c391906131b2565b60405180910390f35b3480156104d857600080fd5b506104f360048036038101906104ee919061330d565b610f2d565b005b34801561050157600080fd5b5061050a610fc9565b60405161051a949392919061329c565b60405180910390f35b34801561052f57600080fd5b5061054a600480360381019061054591906133d2565b610fe9565b60405161055791906131b2565b60405180910390f35b34801561056c57600080fd5b5061058760048036038101906105829190613435565b611001565b6040516105949190613471565b60405180910390f35b3480156105a957600080fd5b506105c460048036038101906105bf919061348c565b611020565b6040516105d19190613281565b60405180910390f35b3480156105e657600080fd5b506105ef61104f565b6040516105fc91906131b2565b60405180910390f35b34801561061157600080fd5b5061061a611055565b60405161062791906131b2565b60405180910390f35b34801561063c57600080fd5b50610657600480360381019061065291906134cc565b61105b565b005b34801561066557600080fd5b50610680600480360381019061067b91906133d2565b61107d565b60405161068d9190613281565b60405180910390f35b3480156106a257600080fd5b506106bd60048036038101906106b891906134cc565b61109d565b005b3480156106cb57600080fd5b506106e660048036038101906106e19190613652565b611118565b6040516106f39190613281565b60405180910390f35b34801561070857600080fd5b50610711611765565b005b34801561071f57600080fd5b5061072861177d565b60405161073591906131b2565b60405180910390f35b34801561074a57600080fd5b50610753611783565b60405161076091906131b2565b60405180910390f35b34801561077557600080fd5b5061077e611789565b60405161078b9190613281565b60405180910390f35b3480156107a057600080fd5b506107bb60048036038101906107b691906133d2565b6117a0565b005b3480156107c957600080fd5b506107d2611869565b6040516107df9190613471565b60405180910390f35b3480156107f457600080fd5b506107fd61188d565b60405161080a91906131b2565b60405180910390f35b34801561081f57600080fd5b5061083a600480360381019061083591906133d2565b611893565b005b34801561084857600080fd5b50610851611987565b60405161085e91906136aa565b60405180910390f35b34801561087357600080fd5b5061087c6119ad565b60405161088991906131b2565b60405180910390f35b34801561089e57600080fd5b506108a76119b3565b005b3480156108b557600080fd5b506108be6119cb565b6040516108cb9190613471565b60405180910390f35b3480156108e057600080fd5b506108e96119ef565b6040516108f691906131b2565b60405180910390f35b34801561090b57600080fd5b5061092660048036038101906109219190613652565b6119f5565b005b34801561093457600080fd5b5061094f600480360381019061094a91906134cc565b611adb565b60405161095c9190613281565b60405180910390f35b34801561097157600080fd5b5061097a611b45565b60405161098791906131b2565b60405180910390f35b34801561099c57600080fd5b506109b760048036038101906109b2919061348c565b611b4b565b6040516109c49190613281565b60405180910390f35b3480156109d957600080fd5b506109e2611bb3565b6040516109ef9190613471565b60405180910390f35b348015610a0457600080fd5b50610a0d611bba565b604051610a1a9190613471565b60405180910390f35b348015610a2f57600080fd5b50610a38611bde565b604051610a4591906131b2565b60405180910390f35b348015610a5a57600080fd5b50610a63611be4565b604051610a7091906131b2565b60405180910390f35b348015610a8557600080fd5b50610a8e611bea565b604051610a9b91906131b2565b60405180910390f35b610aac611bf0565b005b348015610aba57600080fd5b50610ac3611c91565b604051610ad091906131b2565b60405180910390f35b348015610ae557600080fd5b50610aee611c97565b005b348015610afc57600080fd5b50610b05611f02565b604051610b129190613471565b60405180910390f35b348015610b2757600080fd5b50610b30611f08565b604051610b3d9190613724565b60405180910390f35b348015610b5257600080fd5b50610b5b611f2e565b604051610b6891906131b2565b60405180910390f35b348015610b7d57600080fd5b50610b986004803603810190610b93919061373f565b611f34565b005b348015610ba657600080fd5b50610baf611fae565b604051610bbc9190613471565b60405180910390f35b348015610bd157600080fd5b50610bec6004803603810190610be7919061377f565b611fb4565b005b348015610bfa57600080fd5b50610c03611fd4565b604051610c1091906136aa565b60405180910390f35b348015610c2557600080fd5b50610c406004803603810190610c3b91906134cc565b611ffa565b005b348015610c4e57600080fd5b50610c5761201c565b604051610c6491906131b2565b60405180910390f35b348015610c7957600080fd5b50610c946004803603810190610c8f91906137ac565b612022565b005b348015610ca257600080fd5b50610cbd6004803603810190610cb891906133d2565b61204a565b604051610cca91906131b2565b60405180910390f35b348015610cdf57600080fd5b50610ce8612062565b604051610cf591906131b2565b60405180910390f35b348015610d0a57600080fd5b50610d256004803603810190610d2091906137ec565b612068565b005b348015610d3357600080fd5b50610d4e6004803603810190610d4991906133d2565b612454565b604051610d5b9190613471565b60405180910390f35b348015610d7057600080fd5b50610d7961246c565b604051610d869190613860565b60405180910390f35b348015610d9b57600080fd5b50610da4612492565b604051610db191906136aa565b60405180910390f35b60155481565b60007f7965db0b000000000000000000000000000000000000000000000000000000007bffffffffffffffffffffffffffffffffffffffffffffffffffffffff1916827bffffffffffffffffffffffffffffffffffffffffffffffffffffffff19161480610e335750610e32826124b8565b5b9050919050565b60165481565b7fa20b93c4f8376a28d7eddb03920c03f147dd0d958ce891a985cc4d83ec1ecfa7610e6a81612522565b610e72612536565b601a6000815480929190610e85906138aa565b91905055507f389bf3428fcbfd82e122febb6b2675e4ae77f90db22a1b6d6df386636b8b67df6001601a54610eba91906138f2565b604051610ec791906131b2565b60405180910390a17f0e30e9f5279175d80bddc0ba67b00a662b9e914d0c950f8e07e5180a7e73c712604051610efc906139be565b60405180910390a150565b600080600080601654601754601854601954935093509350935090919293565b60185481565b6000801b610f3a81612522565b610f42612536565b606482848688610f5291906139f1565b610f5c91906139f1565b610f6691906139f1565b14610fa6576040517f08c379a0000000000000000000000000000000000000000000000000000000008152600401610f9d90613a71565b60405180910390fd5b846016819055508360178190555082601881905550816019819055505050505050565b600080600080600d54601554601254600b54935093509350935090919293565b601c6020528060005260406000206000915090505481565b6000806000838152602001908152602001600020600101549050919050565b601b6020528160005260406000206020528060005260406000206000915091509054906101000a900460ff1681565b601a5481565b600c5481565b61106482611001565b61106d81612522565b6110778383612577565b50505050565b601f6020528060005260406000206000915054906101000a900460ff1681565b6110a5612668565b73ffffffffffffffffffffffffffffffffffffffff168173ffffffffffffffffffffffffffffffffffffffff1614611109576040517f6697b23200000000000000000000000000000000000000000000000000000000815260040160405180910390fd5b6111138282612670565b505050565b6000611122612536565b61112a612762565b600260019054906101000a900473ffffffffffffffffffffffffffffffffffffffff1673ffffffffffffffffffffffffffffffffffffffff166323b872dd33306006546040518463ffffffff1660e01b815260040161118b93929190613a91565b6020604051808303816000875af11580156111aa573d6000803e3d6000fd5b505050506040513d601f19601f820116820180604052508101906111ce9190613af4565b61120d576040517f08c379a000000000000000000000000000000000000000000000000000000000815260040161120490613b6d565b60405180910390fd5b600d6000815480929190611220906138aa565b9190505550601c60003373ffffffffffffffffffffffffffffffffffffffff1673ffffffffffffffffffffffffffffffffffffffff1681526020019081526020016000206000815480929190611275906138aa565b9190505550601f60003373ffffffffffffffffffffffffffffffffffffffff1673ffffffffffffffffffffffffffffffffffffffff16815260200190815260200160002060009054906101000a900460ff1661137f576001601f60003373ffffffffffffffffffffffffffffffffffffffff1673ffffffffffffffffffffffffffffffffffffffff16815260200190815260200160002060006101000a81548160ff02191690831515021790555060156000815480929190611336906138aa565b91905055503373ffffffffffffffffffffffffffffffffffffffff167f52e92d4898337244a39bd42674ac561eadfd3959e947deec1c0ab82dd58b5a7560405160405180910390a25b6006546011600082825461139391906139f1565b92505081905550600e5482600f546040516020016113b2929190613c1f565b6040516020818303038152906040528051906020012014905080156116cd5760006064605a600b546113e49190613c47565b6113ee9190613cb8565b9050600081600b5461140091906138f2565b90506000600c54905060006064605a8361141a9190613c47565b6114249190613cb8565b905060006064600a846114379190613c47565b6114419190613cb8565b905084471015611486576040517f08c379a000000000000000000000000000000000000000000000000000000000815260040161147d90613d35565b60405180910390fd5b818461149291906139f1565b600b8190555080600c81905550601260008154809291906114b2906138aa565b919050555084600a60008282546114c991906139f1565b925050819055504260138190555033601460006101000a81548173ffffffffffffffffffffffffffffffffffffffff021916908373ffffffffffffffffffffffffffffffffffffffff16021790555060003373ffffffffffffffffffffffffffffffffffffffff168660405161153e90613d86565b60006040518083038185875af1925050503d806000811461157b576040519150601f19603f3d011682016040523d82523d6000602084013e611580565b606091505b50509050806115c4576040517f08c379a00000000000000000000000000000000000000000000000000000000081526004016115bb90613de7565b60405180910390fd5b3373ffffffffffffffffffffffffffffffffffffffff167fb41a7dcde559a617d38981e81372f9c67835bc391794d169f79797582a61295a878a60405161160c929190613e40565b60405180910390a2600061161f336127a8565b61163b670de0b6b3a7640000896116369190613cb8565b612a7a565b611669662386f26fc10000670de0b6b3a76400008b61165a9190613e70565b6116649190613cb8565b612a7a565b8b60405160200161167d9493929190613fd1565b60405160208183030381529060405290507f0e30e9f5279175d80bddc0ba67b00a662b9e914d0c950f8e07e5180a7e73c712816040516116bd9190614087565b60405180910390a1505050505050505b3373ffffffffffffffffffffffffffffffffffffffff167f3c5c89ae6cea506ea9dd2e76e925e46a9ab1f5b983b1ca0fc7bf99d8b37f692e83836040516117159291906140bc565b60405180910390a2600060095411801561174a5750603c6009546117399190613c47565b60105461174691906139f1565b4210155b1561175857611757612bda565b5b611760612fbc565b919050565b6000801b61177281612522565b61177a612fc5565b50565b600a5481565b60085481565b6000600260009054906101000a900460ff16905090565b6000801b6117ad81612522565b6117b5612536565b600073ffffffffffffffffffffffffffffffffffffffff168273ffffffffffffffffffffffffffffffffffffffff1603611824576040517f08c379a000000000000000000000000000000000000000000000000000000000815260040161181b90614138565b60405180910390fd5b81600460006101000a81548173ffffffffffffffffffffffffffffffffffffffff021916908373ffffffffffffffffffffffffffffffffffffffff1602179055505050565b7fa20b93c4f8376a28d7eddb03920c03f147dd0d958ce891a985cc4d83ec1ecfa781565b60135481565b6000801b6118a081612522565b6118a8612536565b600073ffffffffffffffffffffffffffffffffffffffff168273ffffffffffffffffffffffffffffffffffffffff1603611917576040517f08c379a000000000000000000000000000000000000000000000000000000000815260040161190e906141a4565b60405180910390fd5b81600560006101000a81548173ffffffffffffffffffffffffffffffffffffffff021916908373ffffffffffffffffffffffffffffffffffffffff1602179055506119827f0f96d8d40e900718f6f1b4e1d383cdd193bc329a1fa852e567434974c6502c8183612577565b505050565b600460009054906101000a900473ffffffffffffffffffffffffffffffffffffffff1681565b60065481565b6000801b6119c081612522565b6119c8613028565b50565b7f0f96d8d40e900718f6f1b4e1d383cdd193bc329a1fa852e567434974c6502c8181565b600d5481565b6119fd612536565b600560009054906101000a900473ffffffffffffffffffffffffffffffffffffffff1673ffffffffffffffffffffffffffffffffffffffff163373ffffffffffffffffffffffffffffffffffffffff161480611a625750611a616000801b33611adb565b5b611aa1576040517f08c379a0000000000000000000000000000000000000000000000000000000008152600401611a9890614210565b60405180910390fd5b7f6136e242d0cb60724a54385d6a94f643c97d72a6ab33a39a78e01edb5cf4417081604051611ad09190614230565b60405180910390a150565b600080600084815260200190815260200160002060000160008373ffffffffffffffffffffffffffffffffffffffff1673ffffffffffffffffffffffffffffffffffffffff16815260200190815260200160002060009054906101000a900460ff16905092915050565b60095481565b6000601b60008473ffffffffffffffffffffffffffffffffffffffff1673ffffffffffffffffffffffffffffffffffffffff168152602001908152602001600020600083815260200190815260200160002060009054906101000a900460ff16905092915050565b6000801b81565b7f89b740285894f4ac12958a00aee67daad775ca9e28f2bbb8e4efa59055a26ce481565b60115481565b600b5481565b60125481565b6000801b611bfd81612522565b60003411611c40576040517f08c379a0000000000000000000000000000000000000000000000000000000008152600401611c379061429e565b60405180910390fd5b34600b6000828254611c5291906139f1565b925050819055507f0e30e9f5279175d80bddc0ba67b00a662b9e914d0c950f8e07e5180a7e73c712604051611c8690614356565b60405180910390a150565b60175481565b611c9f612536565b611ca7612762565b6000601a5411611cec576040517f08c379a0000000000000000000000000000000000000000000000000000000008152600401611ce3906143d5565b60405180910390fd5b600260019054906101000a900473ffffffffffffffffffffffffffffffffffffffff1673ffffffffffffffffffffffffffffffffffffffff166323b872dd33306007546040518463ffffffff1660e01b8152600401611d4d93929190613a91565b6020604051808303816000875af1158015611d6c573d6000803e3d6000fd5b505050506040513d601f19601f82011682018060405250810190611d909190613af4565b611dcf576040517f08c379a0000000000000000000000000000000000000000000000000000000008152600401611dc690613b6d565b60405180910390fd5b6001601b60003373ffffffffffffffffffffffffffffffffffffffff1673ffffffffffffffffffffffffffffffffffffffff16815260200190815260200160002060006001601a54611e2191906138f2565b815260200190815260200160002060006101000a81548160ff02191690831515021790555060075460116000828254611e5a91906139f1565b925050819055506000600954118015611e8e5750603c600954611e7d9190613c47565b601054611e8a91906139f1565b4210155b15611e9c57611e9b612bda565b5b3373ffffffffffffffffffffffffffffffffffffffff167f427f1f257a5f07697d54611a89d584651a58ee23d8588fed5507427716c061656001601a54611ee391906138f2565b604051611ef091906131b2565b60405180910390a2611f00612fbc565b565b600f5481565b600260019054906101000a900473ffffffffffffffffffffffffffffffffffffffff1681565b60075481565b7f89b740285894f4ac12958a00aee67daad775ca9e28f2bbb8e4efa59055a26ce4611f5e81612522565b611f66612536565b81600f8190555082600e819055507f0e30e9f5279175d80bddc0ba67b00a662b9e914d0c950f8e07e5180a7e73c712604051611fa19061448d565b60405180910390a1505050565b600e5481565b6000801b611fc181612522565b611fc9612536565b816009819055505050565b600560009054906101000a900473ffffffffffffffffffffffffffffffffffffffff1681565b61200382611001565b61200c81612522565b6120168383612670565b50505050565b60195481565b6000801b61202f81612522565b612037612536565b8260068190555081600781905550505050565b601e6020528060005260406000206000915090505481565b60105481565b6000801b61207581612522565b600073ffffffffffffffffffffffffffffffffffffffff168373ffffffffffffffffffffffffffffffffffffffff16036120e4576040517f08c379a00000000000000000000000000000000000000000000000000000000081526004016120db9061450c565b60405180910390fd5b60008211612127576040517f08c379a000000000000000000000000000000000000000000000000000000000815260040161211e90614578565b60405180910390fd5b600073ffffffffffffffffffffffffffffffffffffffff168473ffffffffffffffffffffffffffffffffffffffff16036122d9574782111561219e576040517f08c379a0000000000000000000000000000000000000000000000000000000008152600401612195906145e4565b60405180910390fd5b600c54600b546121ae91906139f1565b8211156121ca576000600b819055506000600c81905550612227565b600c5482116121f15781600c60008282546121e591906138f2565b92505081905550612226565b6000600c548361220191906138f2565b90506000600c8190555080600b600082825461221d91906138f2565b92505081905550505b5b60008373ffffffffffffffffffffffffffffffffffffffff168360405161224d90613d86565b60006040518083038185875af1925050503d806000811461228a576040519150601f19603f3d011682016040523d82523d6000602084013e61228f565b606091505b50509050806122d3576040517f08c379a00000000000000000000000000000000000000000000000000000000081526004016122ca90614650565b60405180910390fd5b50612419565b600260019054906101000a900473ffffffffffffffffffffffffffffffffffffffff1673ffffffffffffffffffffffffffffffffffffffff168473ffffffffffffffffffffffffffffffffffffffff1614612369576040517f08c379a0000000000000000000000000000000000000000000000000000000008152600401612360906146bc565b60405180910390fd5b601154821061237f576000601181905550612399565b816011600082825461239191906138f2565b925050819055505b8373ffffffffffffffffffffffffffffffffffffffff1663a9059cbb84846040518363ffffffff1660e01b81526004016123d49291906146dc565b6020604051808303816000875af11580156123f3573d6000803e3d6000fd5b505050506040513d601f19601f820116820180604052508101906124179190613af4565b505b7f0e30e9f5279175d80bddc0ba67b00a662b9e914d0c950f8e07e5180a7e73c712604051612446906147c3565b60405180910390a150505050565b601d6020528060005260406000206000915090505481565b600360009054906101000a900473ffffffffffffffffffffffffffffffffffffffff1681565b601460009054906101000a900473ffffffffffffffffffffffffffffffffffffffff1681565b60007f01ffc9a7000000000000000000000000000000000000000000000000000000007bffffffffffffffffffffffffffffffffffffffffffffffffffffffff1916827bffffffffffffffffffffffffffffffffffffffffffffffffffffffff1916149050919050565b6125338161252e612668565b61308b565b50565b61253e611789565b15612575576040517fd93c066500000000000000000000000000000000000000000000000000000000815260040160405180910390fd5b565b60006125838383611adb565b61265d57600160008085815260200190815260200160002060000160008473ffffffffffffffffffffffffffffffffffffffff1673ffffffffffffffffffffffffffffffffffffffff16815260200190815260200160002060006101000a81548160ff0219169083151502179055506125fa612668565b73ffffffffffffffffffffffffffffffffffffffff168273ffffffffffffffffffffffffffffffffffffffff16847f2f8788117e7eff1d82e926ec794901d17c78024a50270940304540a733656f0d60405160405180910390a460019050612662565b600090505b92915050565b600033905090565b600061267c8383611adb565b1561275757600080600085815260200190815260200160002060000160008473ffffffffffffffffffffffffffffffffffffffff1673ffffffffffffffffffffffffffffffffffffffff16815260200190815260200160002060006101000a81548160ff0219169083151502179055506126f4612668565b73ffffffffffffffffffffffffffffffffffffffff168273ffffffffffffffffffffffffffffffffffffffff16847ff6391f5c32d9c69d2a47ea670b442974b53935d1edc7fd64eb21e047a839171b60405160405180910390a46001905061275c565b600090505b92915050565b60026001540361279e576040517f3ee5aeb500000000000000000000000000000000000000000000000000000000815260040160405180910390fd5b6002600181905550565b60606000826040516020016127bd919061483e565b60405160208183030381529060405290506000600d67ffffffffffffffff8111156127eb576127ea613527565b5b6040519080825280601f01601f19166020018201604052801561281d5781602001600182028036833780820191505090505b50905060005b60068110156128a5578260028261283a91906139f1565b8151811061284b5761284a614859565b5b602001015160f81c60f81b82828151811061286957612868614859565b5b60200101907effffffffffffffffffffffffffffffffffffffffffffffffffffffffffffff1916908160001a9053508080600101915050612823565b507f2e00000000000000000000000000000000000000000000000000000000000000816006815181106128db576128da614859565b5b60200101907effffffffffffffffffffffffffffffffffffffffffffffffffffffffffffff1916908160001a9053507f2e000000000000000000000000000000000000000000000000000000000000008160078151811061293f5761293e614859565b5b60200101907effffffffffffffffffffffffffffffffffffffffffffffffffffffffffffff1916908160001a9053507f2e00000000000000000000000000000000000000000000000000000000000000816008815181106129a3576129a2614859565b5b60200101907effffffffffffffffffffffffffffffffffffffffffffffffffffffffffffff1916908160001a90535060005b6004811015612a6f5782600484516129ed91906138f2565b826129f891906139f1565b81518110612a0957612a08614859565b5b602001015160f81c60f81b82600983612a2291906139f1565b81518110612a3357612a32614859565b5b60200101907effffffffffffffffffffffffffffffffffffffffffffffffffffffffffffff1916908160001a90535080806001019150506129d5565b508092505050919050565b606060008203612ac1576040518060400160405280600181526020017f30000000000000000000000000000000000000000000000000000000000000008152509050612bd5565b600082905060005b60008214612af3578080612adc906138aa565b915050600a82612aec9190613cb8565b9150612ac9565b60008167ffffffffffffffff811115612b0f57612b0e613527565b5b6040519080825280601f01601f191660200182016040528015612b415781602001600182028036833780820191505090505b5090505b60008514612bce57600182612b5a91906138f2565b9150600a85612b699190613e70565b6030612b7591906139f1565b60f81b818381518110612b8b57612b8a614859565b5b60200101907effffffffffffffffffffffffffffffffffffffffffffffffffffffffffffff1916908160001a905350600a85612bc79190613cb8565b9450612b45565b8093505050505b919050565b60006011540315612fba576000601154905060006011819055506000606460165483612c069190613c47565b612c109190613cb8565b905060008183612c2091906138f2565b9050600080831115612cba57600260019054906101000a900473ffffffffffffffffffffffffffffffffffffffff1673ffffffffffffffffffffffffffffffffffffffff166342966c68846040518263ffffffff1660e01b8152600401612c8791906131b2565b600060405180830381600087803b158015612ca157600080fd5b505af1158015612cb5573d6000803e3d6000fd5b505050505b6000821115612e2757600260019054906101000a900473ffffffffffffffffffffffffffffffffffffffff1673ffffffffffffffffffffffffffffffffffffffff1663095ea7b3600360009054906101000a900473ffffffffffffffffffffffffffffffffffffffff16846040518363ffffffff1660e01b8152600401612d429291906146dc565b6020604051808303816000875af1158015612d61573d6000803e3d6000fd5b505050506040513d601f19601f82011682018060405250810190612d859190613af4565b50600360009054906101000a900473ffffffffffffffffffffffffffffffffffffffff1673ffffffffffffffffffffffffffffffffffffffff1663e4849b32836040518263ffffffff1660e01b8152600401612de191906131b2565b6020604051808303816000875af1158015612e00573d6000803e3d6000fd5b505050506040513d601f19601f82011682018060405250810190612e24919061489d565b90505b6000601954601854601754612e3c91906139f1565b612e4691906139f1565b905060008160175484612e599190613c47565b612e639190613cb8565b905060008260185485612e769190613c47565b612e809190613cb8565b905060008360195486612e939190613c47565b612e9d9190613cb8565b905082600b6000828254612eb191906139f1565b9250508190555081600c6000828254612eca91906139f1565b925050819055506000811115612faa576000600460009054906101000a900473ffffffffffffffffffffffffffffffffffffffff1673ffffffffffffffffffffffffffffffffffffffff1682604051612f2290613d86565b60006040518083038185875af1925050503d8060008114612f5f576040519150601f19603f3d011682016040523d82523d6000602084013e612f64565b606091505b5050905080612fa8576040517f08c379a0000000000000000000000000000000000000000000000000000000008152600401612f9f90614916565b60405180910390fd5b505b4260108190555050505050505050505b565b60018081905550565b612fcd6130dc565b6000600260006101000a81548160ff0219169083151502179055507f5db9ee0a495bf2e6ff9c91a7834c1ba4fdd244a5e8aa4e537bd38aeae4b073aa613011612668565b60405161301e91906136aa565b60405180910390a1565b613030612536565b6001600260006101000a81548160ff0219169083151502179055507f62e78cea01bee320cd4e420270b5ea74000d11b0c9f74754ebdbfc544b05a258613074612668565b60405161308191906136aa565b60405180910390a1565b6130958282611adb565b6130d85780826040517fe2517d3f0000000000000000000000000000000000000000000000000000000081526004016130cf929190614936565b60405180910390fd5b5050565b6130e4611789565b61311a576040517f8dfc202b00000000000000000000000000000000000000000000000000000000815260040160405180910390fd5b565b600082825260208201905092915050565b7f5573652066756e644a61636b706f740000000000000000000000000000000000600082015250565b6000613163600f8361311c565b915061316e8261312d565b602082019050919050565b6000602082019050818103600083015261319281613156565b9050919050565b6000819050919050565b6131ac81613199565b82525050565b60006020820190506131c760008301846131a3565b92915050565b6000604051905090565b600080fd5b600080fd5b60007fffffffff0000000000000000000000000000000000000000000000000000000082169050919050565b613216816131e1565b811461322157600080fd5b50565b6000813590506132338161320d565b92915050565b60006020828403121561324f5761324e6131d7565b5b600061325d84828501613224565b91505092915050565b60008115159050919050565b61327b81613266565b82525050565b60006020820190506132966000830184613272565b92915050565b60006080820190506132b160008301876131a3565b6132be60208301866131a3565b6132cb60408301856131a3565b6132d860608301846131a3565b95945050505050565b6132ea81613199565b81146132f557600080fd5b50565b600081359050613307816132e1565b92915050565b60008060008060808587031215613327576133266131d7565b5b6000613335878288016132f8565b9450506020613346878288016132f8565b9350506040613357878288016132f8565b9250506060613368878288016132f8565b91505092959194509250565b600073ffffffffffffffffffffffffffffffffffffffff82169050919050565b600061339f82613374565b9050919050565b6133af81613394565b81146133ba57600080fd5b50565b6000813590506133cc816133a6565b92915050565b6000602082840312156133e8576133e76131d7565b5b60006133f6848285016133bd565b91505092915050565b6000819050919050565b613412816133ff565b811461341d57600080fd5b50565b60008135905061342f81613409565b92915050565b60006020828403121561344b5761344a6131d7565b5b600061345984828501613420565b91505092915050565b61346b816133ff565b82525050565b60006020820190506134866000830184613462565b92915050565b600080604083850312156134a3576134a26131d7565b5b60006134b1858286016133bd565b92505060206134c2858286016132f8565b9150509250929050565b600080604083850312156134e3576134e26131d7565b5b60006134f185828601613420565b9250506020613502858286016133bd565b9150509250929050565b600080fd5b600080fd5b6000601f19601f8301169050919050565b7f4e487b7100000000000000000000000000000000000000000000000000000000600052604160045260246000fd5b61355f82613516565b810181811067ffffffffffffffff8211171561357e5761357d613527565b5b80604052505050565b60006135916131cd565b905061359d8282613556565b919050565b600067ffffffffffffffff8211156135bd576135bc613527565b5b6135c682613516565b9050602081019050919050565b82818337600083830152505050565b60006135f56135f0846135a2565b613587565b90508281526020810184848401111561361157613610613511565b5b61361c8482856135d3565b509392505050565b600082601f8301126136395761363861350c565b5b81356136498482602086016135e2565b91505092915050565b600060208284031215613668576136676131d7565b5b600082013567ffffffffffffffff811115613686576136856131dc565b5b61369284828501613624565b91505092915050565b6136a481613394565b82525050565b60006020820190506136bf600083018461369b565b92915050565b6000819050919050565b60006136ea6136e56136e084613374565b6136c5565b613374565b9050919050565b60006136fc826136cf565b9050919050565b600061370e826136f1565b9050919050565b61371e81613703565b82525050565b60006020820190506137396000830184613715565b92915050565b60008060408385031215613756576137556131d7565b5b600061376485828601613420565b925050602061377585828601613420565b9150509250929050565b600060208284031215613795576137946131d7565b5b60006137a3848285016132f8565b91505092915050565b600080604083850312156137c3576137c26131d7565b5b60006137d1858286016132f8565b92505060206137e2858286016132f8565b9150509250929050565b600080600060608486031215613805576138046131d7565b5b6000613813868287016133bd565b9350506020613824868287016133bd565b9250506040613835868287016132f8565b9150509250925092565b600061384a826136f1565b9050919050565b61385a8161383f565b82525050565b60006020820190506138756000830184613851565b92915050565b7f4e487b7100000000000000000000000000000000000000000000000000000000600052601160045260246000fd5b60006138b582613199565b91507fffffffffffffffffffffffffffffffffffffffffffffffffffffffffffffffff82036138e7576138e661387b565b5b600182019050919050565b60006138fd82613199565b915061390883613199565b92508282039050818111156139205761391f61387b565b5b92915050565b7f4e45575f48494e54000000000000000000000000000000000000000000000000600082015250565b600061395c60088361311c565b915061396782613926565b602082019050919050565b7f4e65772068696e7420617661696c61626c652100000000000000000000000000600082015250565b60006139a860138361311c565b91506139b382613972565b602082019050919050565b600060408201905081810360008301526139d78161394f565b905081810360208301526139ea8161399b565b9050919050565b60006139fc82613199565b9150613a0783613199565b9250828201905080821115613a1f57613a1e61387b565b5b92915050565b7f4d7573742073756d20746f203130300000000000000000000000000000000000600082015250565b6000613a5b600f8361311c565b9150613a6682613a25565b602082019050919050565b60006020820190508181036000830152613a8a81613a4e565b9050919050565b6000606082019050613aa6600083018661369b565b613ab3602083018561369b565b613ac060408301846131a3565b949350505050565b613ad181613266565b8114613adc57600080fd5b50565b600081519050613aee81613ac8565b92915050565b600060208284031215613b0a57613b096131d7565b5b6000613b1884828501613adf565b91505092915050565b7f5472616e73666572206661696c65640000000000000000000000000000000000600082015250565b6000613b57600f8361311c565b9150613b6282613b21565b602082019050919050565b60006020820190508181036000830152613b8681613b4a565b9050919050565b600081519050919050565b600081905092915050565b60005b83811015613bc1578082015181840152602081019050613ba6565b60008484015250505050565b6000613bd882613b8d565b613be28185613b98565b9350613bf2818560208601613ba3565b80840191505092915050565b6000819050919050565b613c19613c14826133ff565b613bfe565b82525050565b6000613c2b8285613bcd565b9150613c378284613c08565b6020820191508190509392505050565b6000613c5282613199565b9150613c5d83613199565b9250828202613c6b81613199565b91508282048414831517613c8257613c8161387b565b5b5092915050565b7f4e487b7100000000000000000000000000000000000000000000000000000000600052601260045260246000fd5b6000613cc382613199565b9150613cce83613199565b925082613cde57613cdd613c89565b5b828204905092915050565b7f496e73756666696369656e74205320666f72207061796f757400000000000000600082015250565b6000613d1f60198361311c565b9150613d2a82613ce9565b602082019050919050565b60006020820190508181036000830152613d4e81613d12565b9050919050565b600081905092915050565b50565b6000613d70600083613d55565b9150613d7b82613d60565b600082019050919050565b6000613d9182613d63565b9150819050919050565b7f5061796f7574206661696c656400000000000000000000000000000000000000600082015250565b6000613dd1600d8361311c565b9150613ddc82613d9b565b602082019050919050565b60006020820190508181036000830152613e0081613dc4565b9050919050565b6000613e1282613b8d565b613e1c818561311c565b9350613e2c818560208601613ba3565b613e3581613516565b840191505092915050565b6000604082019050613e5560008301856131a3565b8181036020830152613e678184613e07565b90509392505050565b6000613e7b82613199565b9150613e8683613199565b925082613e9657613e95613c89565b5b828206905092915050565b7f5765206861766520612077696e6e657221200000000000000000000000000000600082015250565b6000613ed7601283613b98565b9150613ee282613ea1565b601282019050919050565b7f206a75737420776f6e2000000000000000000000000000000000000000000000600082015250565b6000613f23600a83613b98565b9150613f2e82613eed565b600a82019050919050565b7f2e00000000000000000000000000000000000000000000000000000000000000600082015250565b6000613f6f600183613b98565b9150613f7a82613f39565b600182019050919050565b7f2053206279206775657373696e6720746865207365637265743a200000000000600082015250565b6000613fbb601b83613b98565b9150613fc682613f85565b601b82019050919050565b6000613fdc82613eca565b9150613fe88287613bcd565b9150613ff382613f16565b9150613fff8286613bcd565b915061400a82613f62565b91506140168285613bcd565b915061402182613fae565b915061402d8284613bcd565b915081905095945050505050565b7f4a41434b504f545f574f4e000000000000000000000000000000000000000000600082015250565b6000614071600b8361311c565b915061407c8261403b565b602082019050919050565b600060408201905081810360008301526140a081614064565b905081810360208301526140b48184613e07565b905092915050565b600060408201905081810360008301526140d68185613e07565b90506140e56020830184613272565b9392505050565b7f496e76616c696420616464726573730000000000000000000000000000000000600082015250565b6000614122600f8361311c565b915061412d826140ec565b602082019050919050565b6000602082019050818103600083015261415181614115565b9050919050565b7f496e76616c6964206167656e7420616464726573730000000000000000000000600082015250565b600061418e60158361311c565b915061419982614158565b602082019050919050565b600060208201905081810360008301526141bd81614181565b9050919050565b7f556e617574686f72697a65640000000000000000000000000000000000000000600082015250565b60006141fa600c8361311c565b9150614205826141c4565b602082019050919050565b60006020820190508181036000830152614229816141ed565b9050919050565b6000602082019050818103600083015261424a8184613e07565b905092915050565b7f4d7573742073656e64205320746f2066756e64206a61636b706f740000000000600082015250565b6000614288601b8361311c565b915061429382614252565b602082019050919050565b600060208201905081810360008301526142b78161427b565b9050919050565b7f4a41434b504f545f46554e444544000000000000000000000000000000000000600082015250565b60006142f4600e8361311c565b91506142ff826142be565b602082019050919050565b7f4a61636b706f742066756e646564210000000000000000000000000000000000600082015250565b6000614340600f8361311c565b915061434b8261430a565b602082019050919050565b6000604082019050818103600083015261436f816142e7565b9050818103602083015261438281614333565b9050919050565b7f4e6f2068696e747320617661696c61626c650000000000000000000000000000600082015250565b60006143bf60128361311c565b91506143ca82614389565b602082019050919050565b600060208201905081810360008301526143ee816143b2565b9050919050565b7f4e45575f53454352455400000000000000000000000000000000000000000000600082015250565b600061442b600a8361311c565b9150614436826143f5565b602082019050919050565b7f4e65772073656372657420736574210000000000000000000000000000000000600082015250565b6000614477600f8361311c565b915061448282614441565b602082019050919050565b600060408201905081810360008301526144a68161441e565b905081810360208301526144b98161446a565b9050919050565b7f496e76616c696420726563697069656e74000000000000000000000000000000600082015250565b60006144f660118361311c565b9150614501826144c0565b602082019050919050565b60006020820190508181036000830152614525816144e9565b9050919050565b7f496e76616c696420616d6f756e74000000000000000000000000000000000000600082015250565b6000614562600e8361311c565b915061456d8261452c565b602082019050919050565b6000602082019050818103600083015261459181614555565b9050919050565b7f496e73756666696369656e7420532062616c616e636500000000000000000000600082015250565b60006145ce60168361311c565b91506145d982614598565b602082019050919050565b600060208201905081810360008301526145fd816145c1565b9050919050565b7f53207472616e73666572206661696c6564000000000000000000000000000000600082015250565b600061463a60118361311c565b915061464582614604565b602082019050919050565b600060208201905081810360008301526146698161462d565b9050919050565b7f4f6e6c792067616d6520746f6b656e2063616e2062652077697468647261776e600082015250565b60006146a660208361311c565b91506146b182614670565b602082019050919050565b600060208201905081810360008301526146d581614699565b9050919050565b60006040820190506146f1600083018561369b565b6146fe60208301846131a3565b9392505050565b7f454d455247454e43595f5749544844524157414c000000000000000000000000600082015250565b600061473b60148361311c565b915061474682614705565b602082019050919050565b7f456d657267656e63792066756e6473207769746864726177616c20657865637560008201527f7465642062792061646d696e0000000000000000000000000000000000000000602082015250565b60006147ad602c8361311c565b91506147b882614751565b604082019050919050565b600060408201905081810360008301526147dc8161472e565b905081810360208301526147ef816147a0565b9050919050565b60008160601b9050919050565b600061480e826147f6565b9050919050565b600061482082614803565b9050919050565b61483861483382613394565b614815565b82525050565b600061484a8284614827565b60148201915081905092915050565b7f4e487b7100000000000000000000000000000000000000000000000000000000600052603260045260246000fd5b600081519050614897816132e1565b92915050565b6000602082840312156148b3576148b26131d7565b5b60006148c184828501614888565b91505092915050565b7f4d61726b6574696e67207472616e73666572206661696c656400000000000000600082015250565b600061490060198361311c565b915061490b826148ca565b602082019050919050565b6000602082019050818103600083015261492f816148f3565b9050919050565b600060408201905061494b600083018561369b565b6149586020830184613462565b939250505056fea26469706673582212209dc8e84f74bb80e9c1772c8177fe6e15d687b26e70149b190aaf9650fbaef2ea64736f6c634300081c0033",
  "linkReferences": {},
  "deployedLinkReferences": {}
}