{
  "_format": "hh-sol-artifact-1",
  "contractName": "Token100x",
  "sourceName": "contracts/100xToken.sol",
  "abi": [
    {
      "inputs": [],
      "stateMutability": "nonpayable",
      "type": "constructor"
    },
    {
      "inputs": [
        {
          "internalType": "address",
          "name": "spender",
          "type": "address"
        },
        {
          "internalType": "uint256",
          "name": "allowance",
          "type": "uint256"
        },
        {
          "internalType": "uint256",
          "name": "needed",
          "type": "uint256"
        }
      ],
      "name": "ERC20InsufficientAllowance",
      "type": "error"
    },
    {
      "inputs": [
        {
          "internalType": "address",
          "name": "sender",
          "type": "address"
        },
        {
          "internalType": "uint256",
          "name": "balance",
          "type": "uint256"
        },
        {
          "internalType": "uint256",
          "name": "needed",
          "type": "uint256"
        }
      ],
      "name": "ERC20InsufficientBalance",
      "type": "error"
    },
    {
      "inputs": [
        {
          "internalType": "address",
          "name": "approver",
          "type": "address"
        }
      ],
      "name": "ERC20InvalidApprover",
      "type": "error"
    },
    {
      "inputs": [
        {
          "internalType": "address",
          "name": "receiver",
          "type": "address"
        }
      ],
      "name": "ERC20InvalidReceiver",
      "type": "error"
    },
    {
      "inputs": [
        {
          "internalType": "address",
          "name": "sender",
          "type": "address"
        }
      ],
      "name": "ERC20InvalidSender",
      "type": "error"
    },
    {
      "inputs": [
        {
          "internalType": "address",
          "name": "spender",
          "type": "address"
        }
      ],
      "name": "ERC20InvalidSpender",
      "type": "error"
    },
    {
      "anonymous": false,
      "inputs": [
        {
          "indexed": true,
          "internalType": "address",
          "name": "owner",
          "type": "address"
        },
        {
          "indexed": true,
          "internalType": "address",
          "name": "spender",
          "type": "address"
        },
        {
          "indexed": false,
          "internalType": "uint256",
          "name": "value",
          "type": "uint256"
        }
      ],
      "name": "Approval",
      "type": "event"
    },
    {
      "anonymous": false,
      "inputs": [
        {
          "indexed": true,
          "internalType": "address",
          "name": "from",
          "type": "address"
        },
        {
          "indexed": true,
          "internalType": "address",
          "name": "to",
          "type": "address"
        },
        {
          "indexed": false,
          "internalType": "uint256",
          "name": "value",
          "type": "uint256"
        }
      ],
      "name": "Transfer",
      "type": "event"
    },
    {
      "inputs": [
        {
          "internalType": "address",
          "name": "owner",
          "type": "address"
        },
        {
          "internalType": "address",
          "name": "spender",
          "type": "address"
        }
      ],
      "name": "allowance",
      "outputs": [
        {
          "internalType": "uint256",
          "name": "",
          "type": "uint256"
        }
      ],
      "stateMutability": "view",
      "type": "function"
    },
    {
      "inputs": [
        {
          "internalType": "address",
          "name": "spender",
          "type": "address"
        },
        {
          "internalType": "uint256",
          "name": "value",
          "type": "uint256"
        }
      ],
      "name": "approve",
      "outputs": [
        {
          "internalType": "bool",
          "name": "",
          "type": "bool"
        }
      ],
      "stateMutability": "nonpayable",
      "type": "function"
    },
    {
      "inputs": [
        {
          "internalType": "address",
          "name": "account",
          "type": "address"
        }
      ],
      "name": "balanceOf",
      "outputs": [
        {
          "internalType": "uint256",
          "name": "",
          "type": "uint256"
        }
      ],
      "stateMutability": "view",
      "type": "function"
    },
    {
      "inputs": [
        {
          "internalType": "uint256",
          "name": "amount",
          "type": "uint256"
        }
      ],
      "name": "burn",
      "outputs": [],
      "stateMutability": "nonpayable",
      "type": "function"
    },
    {
      "inputs": [],
      "name": "decimals",
      "outputs": [
        {
          "internalType": "uint8",
          "name": "",
          "type": "uint8"
        }
      ],
      "stateMutability": "pure",
      "type": "function"
    },
    {
      "inputs": [],
      "name": "name",
      "outputs": [
        {
          "internalType": "string",
          "name": "",
          "type": "string"
        }
      ],
      "stateMutability": "view",
      "type": "function"
    },
    {
      "inputs": [],
      "name": "symbol",
      "outputs": [
        {
          "internalType": "string",
          "name": "",
          "type": "string"
        }
      ],
      "stateMutability": "view",
      "type": "function"
    },
    {
      "inputs": [],
      "name": "totalSupply",
      "outputs": [
        {
          "internalType": "uint256",
          "name": "",
          "type": "uint256"
        }
      ],
      "stateMutability": "view",
      "type": "function"
    },
    {
      "inputs": [
        {
          "internalType": "address",
          "name": "to",
          "type": "address"
        },
        {
          "internalType": "uint256",
          "name": "value",
          "type": "uint256"
        }
      ],
      "name": "transfer",
      "outputs": [
        {
          "internalType": "bool",
          "name": "",
          "type": "bool"
        }
      ],
      "stateMutability": "nonpayable",
      "type": "function"
    },
    {
      "inputs": [
        {
          "internalType": "address",
          "name": "from",
          "type": "address"
        },
        {
          "internalType": "address",
          "name": "to",
          "type": "address"
        },
        {
          "internalType": "uint256",
          "name": "value",
          "type": "uint256"
        }
      ],
      "name": "transferFrom",
      "outputs": [
        {
          "internalType": "bool",
          "name": "",
          "type": "bool"
        }
      ],
      "stateMutability": "nonpayable",
      "type": "function"
    }
  ],
  "bytecode": "0x608060405234801561001057600080fd5b506040518060400160405280600c81526020017f31303078204a61636b706f7400000000000000000000000000000000000000008152506040518060400160405280600481526020017f3130307800000000000000000000000000000000000000000000000000000000815250816003908161008c91906105b8565b50806004908161009c91906105b8565b5050506100b63366038d7ea4c680006100bb60201b60201c565b6107aa565b600073ffffffffffffffffffffffffffffffffffffffff168273ffffffffffffffffffffffffffffffffffffffff160361012d5760006040517fec442f0500000000000000000000000000000000000000000000000000000000815260040161012491906106cb565b60405180910390fd5b61013f6000838361014360201b60201c565b5050565b600073ffffffffffffffffffffffffffffffffffffffff168373ffffffffffffffffffffffffffffffffffffffff16036101955780600260008282546101899190610715565b92505081905550610268565b60008060008573ffffffffffffffffffffffffffffffffffffffff1673ffffffffffffffffffffffffffffffffffffffff16815260200190815260200160002054905081811015610221578381836040517fe450d38c00000000000000000000000000000000000000000000000000000000815260040161021893929190610758565b60405180910390fd5b8181036000808673ffffffffffffffffffffffffffffffffffffffff1673ffffffffffffffffffffffffffffffffffffffff16815260200190815260200160002081905550505b600073ffffffffffffffffffffffffffffffffffffffff168273ffffffffffffffffffffffffffffffffffffffff16036102b157806002600082825403925050819055506102fe565b806000808473ffffffffffffffffffffffffffffffffffffffff1673ffffffffffffffffffffffffffffffffffffffff168152602001908152602001600020600082825401925050819055505b8173ffffffffffffffffffffffffffffffffffffffff168373ffffffffffffffffffffffffffffffffffffffff167fddf252ad1be2c89b69c2b068fc378daa952ba7f163c4a11628f55a4df523b3ef8360405161035b919061078f565b60405180910390a3505050565b600081519050919050565b7f4e487b7100000000000000000000000000000000000000000000000000000000600052604160045260246000fd5b7f4e487b7100000000000000000000000000000000000000000000000000000000600052602260045260246000fd5b600060028204905060018216806103e957607f821691505b6020821081036103fc576103fb6103a2565b5b50919050565b60008190508160005260206000209050919050565b60006020601f8301049050919050565b600082821b905092915050565b6000600883026104647fffffffffffffffffffffffffffffffffffffffffffffffffffffffffffffffff82610427565b61046e8683610427565b95508019841693508086168417925050509392505050565b6000819050919050565b6000819050919050565b60006104b56104b06104ab84610486565b610490565b610486565b9050919050565b6000819050919050565b6104cf8361049a565b6104e36104db826104bc565b848454610434565b825550505050565b600090565b6104f86104eb565b6105038184846104c6565b505050565b5b818110156105275761051c6000826104f0565b600181019050610509565b5050565b601f82111561056c5761053d81610402565b61054684610417565b81016020851015610555578190505b61056961056185610417565b830182610508565b50505b505050565b600082821c905092915050565b600061058f60001984600802610571565b1980831691505092915050565b60006105a8838361057e565b9150826002028217905092915050565b6105c182610368565b67ffffffffffffffff8111156105da576105d9610373565b5b6105e482546103d1565b6105ef82828561052b565b600060209050601f8311600181146106225760008415610610578287015190505b61061a858261059c565b865550610682565b601f19841661063086610402565b60005b8281101561065857848901518255600182019150602085019450602081019050610633565b868310156106755784890151610671601f89168261057e565b8355505b6001600288020188555050505b505050505050565b600073ffffffffffffffffffffffffffffffffffffffff82169050919050565b60006106b58261068a565b9050919050565b6106c5816106aa565b82525050565b60006020820190506106e060008301846106bc565b92915050565b7f4e487b7100000000000000000000000000000000000000000000000000000000600052601160045260246000fd5b600061072082610486565b915061072b83610486565b9250828201905080821115610743576107426106e6565b5b92915050565b61075281610486565b82525050565b600060608201905061076d60008301866106bc565b61077a6020830185610749565b6107876040830184610749565b949350505050565b60006020820190506107a46000830184610749565b92915050565b610f38806107b96000396000f3fe608060405234801561001057600080fd5b506004361061009e5760003560e01c806342966c681161006657806342966c681461015d57806370a082311461017957806395d89b41146101a9578063a9059cbb146101c7578063dd62ed3e146101f75761009e565b806306fdde03146100a3578063095ea7b3146100c157806318160ddd146100f157806323b872dd1461010f578063313ce5671461013f575b600080fd5b6100ab610227565b6040516100b89190610b5f565b60405180910390f35b6100db60048036038101906100d69190610c1a565b6102b9565b6040516100e89190610c75565b60405180910390f35b6100f96102dc565b6040516101069190610c9f565b60405180910390f35b61012960048036038101906101249190610cba565b6102e6565b6040516101369190610c75565b60405180910390f35b610147610315565b6040516101549190610d29565b60405180910390f35b61017760048036038101906101729190610d44565b61031e565b005b610193600480360381019061018e9190610d71565b61032b565b6040516101a09190610c9f565b60405180910390f35b6101b1610373565b6040516101be9190610b5f565b60405180910390f35b6101e160048036038101906101dc9190610c1a565b610405565b6040516101ee9190610c75565b60405180910390f35b610211600480360381019061020c9190610d9e565b610428565b60405161021e9190610c9f565b60405180910390f35b60606003805461023690610e0d565b80601f016020809104026020016040519081016040528092919081815260200182805461026290610e0d565b80156102af5780601f10610284576101008083540402835291602001916102af565b820191906000526020600020905b81548152906001019060200180831161029257829003601f168201915b5050505050905090565b6000806102c46104af565b90506102d18185856104b7565b600191505092915050565b6000600254905090565b6000806102f16104af565b90506102fe8582856104c9565b61030985858561055d565b60019150509392505050565b60006006905090565b6103283382610651565b50565b60008060008373ffffffffffffffffffffffffffffffffffffffff1673ffffffffffffffffffffffffffffffffffffffff168152602001908152602001600020549050919050565b60606004805461038290610e0d565b80601f01602080910402602001604051908101604052809291908181526020018280546103ae90610e0d565b80156103fb5780601f106103d0576101008083540402835291602001916103fb565b820191906000526020600020905b8154815290600101906020018083116103de57829003601f168201915b5050505050905090565b6000806104106104af565b905061041d81858561055d565b600191505092915050565b6000600160008473ffffffffffffffffffffffffffffffffffffffff1673ffffffffffffffffffffffffffffffffffffffff16815260200190815260200160002060008373ffffffffffffffffffffffffffffffffffffffff1673ffffffffffffffffffffffffffffffffffffffff16815260200190815260200160002054905092915050565b600033905090565b6104c483838360016106d3565b505050565b60006104d58484610428565b90507fffffffffffffffffffffffffffffffffffffffffffffffffffffffffffffffff81146105575781811015610547578281836040517ffb8f41b200000000000000000000000000000000000000000000000000000000815260040161053e93929190610e4d565b60405180910390fd5b610556848484840360006106d3565b5b50505050565b600073ffffffffffffffffffffffffffffffffffffffff168373ffffffffffffffffffffffffffffffffffffffff16036105cf5760006040517f96c6fd1e0000000000000000000000000000000000000000000000000000000081526004016105c69190610e84565b60405180910390fd5b600073ffffffffffffffffffffffffffffffffffffffff168273ffffffffffffffffffffffffffffffffffffffff16036106415760006040517fec442f050000000000000000000000000000000000000000000000000000000081526004016106389190610e84565b60405180910390fd5b61064c8383836108aa565b505050565b600073ffffffffffffffffffffffffffffffffffffffff168273ffffffffffffffffffffffffffffffffffffffff16036106c35760006040517f96c6fd1e0000000000000000000000000000000000000000000000000000000081526004016106ba9190610e84565b60405180910390fd5b6106cf826000836108aa565b5050565b600073ffffffffffffffffffffffffffffffffffffffff168473ffffffffffffffffffffffffffffffffffffffff16036107455760006040517fe602df0500000000000000000000000000000000000000000000000000000000815260040161073c9190610e84565b60405180910390fd5b600073ffffffffffffffffffffffffffffffffffffffff168373ffffffffffffffffffffffffffffffffffffffff16036107b75760006040517f94280d620000000000000000000000000000000000000000000000000000000081526004016107ae9190610e84565b60405180910390fd5b81600160008673ffffffffffffffffffffffffffffffffffffffff1673ffffffffffffffffffffffffffffffffffffffff16815260200190815260200160002060008573ffffffffffffffffffffffffffffffffffffffff1673ffffffffffffffffffffffffffffffffffffffff1681526020019081526020016000208190555080156108a4578273ffffffffffffffffffffffffffffffffffffffff168473ffffffffffffffffffffffffffffffffffffffff167f8c5be1e5ebec7d5bd14f71427d1e84f3dd0314c0f7b2291e5b200ac8c7c3b9258460405161089b9190610c9f565b60405180910390a35b50505050565b600073ffffffffffffffffffffffffffffffffffffffff168373ffffffffffffffffffffffffffffffffffffffff16036108fc5780600260008282546108f09190610ece565b925050819055506109cf565b60008060008573ffffffffffffffffffffffffffffffffffffffff1673ffffffffffffffffffffffffffffffffffffffff16815260200190815260200160002054905081811015610988578381836040517fe450d38c00000000000000000000000000000000000000000000000000000000815260040161097f93929190610e4d565b60405180910390fd5b8181036000808673ffffffffffffffffffffffffffffffffffffffff1673ffffffffffffffffffffffffffffffffffffffff16815260200190815260200160002081905550505b600073ffffffffffffffffffffffffffffffffffffffff168273ffffffffffffffffffffffffffffffffffffffff1603610a185780600260008282540392505081905550610a65565b806000808473ffffffffffffffffffffffffffffffffffffffff1673ffffffffffffffffffffffffffffffffffffffff168152602001908152602001600020600082825401925050819055505b8173ffffffffffffffffffffffffffffffffffffffff168373ffffffffffffffffffffffffffffffffffffffff167fddf252ad1be2c89b69c2b068fc378daa952ba7f163c4a11628f55a4df523b3ef83604051610ac29190610c9f565b60405180910390a3505050565b600081519050919050565b600082825260208201905092915050565b60005b83811015610b09578082015181840152602081019050610aee565b60008484015250505050565b6000601f19601f8301169050919050565b6000610b3182610acf565b610b3b8185610ada565b9350610b4b818560208601610aeb565b610b5481610b15565b840191505092915050565b60006020820190508181036000830152610b798184610b26565b905092915050565b600080fd5b600073ffffffffffffffffffffffffffffffffffffffff82169050919050565b6000610bb182610b86565b9050919050565b610bc181610ba6565b8114610bcc57600080fd5b50565b600081359050610bde81610bb8565b92915050565b6000819050919050565b610bf781610be4565b8114610c0257600080fd5b50565b600081359050610c1481610bee565b92915050565b60008060408385031215610c3157610c30610b81565b5b6000610c3f85828601610bcf565b9250506020610c5085828601610c05565b9150509250929050565b60008115159050919050565b610c6f81610c5a565b82525050565b6000602082019050610c8a6000830184610c66565b92915050565b610c9981610be4565b82525050565b6000602082019050610cb46000830184610c90565b92915050565b600080600060608486031215610cd357610cd2610b81565b5b6000610ce186828701610bcf565b9350506020610cf286828701610bcf565b9250506040610d0386828701610c05565b9150509250925092565b600060ff82169050919050565b610d2381610d0d565b82525050565b6000602082019050610d3e6000830184610d1a565b92915050565b600060208284031215610d5a57610d59610b81565b5b6000610d6884828501610c05565b91505092915050565b600060208284031215610d8757610d86610b81565b5b6000610d9584828501610bcf565b91505092915050565b60008060408385031215610db557610db4610b81565b5b6000610dc385828601610bcf565b9250506020610dd485828601610bcf565b9150509250929050565b7f4e487b7100000000000000000000000000000000000000000000000000000000600052602260045260246000fd5b60006002820490506001821680610e2557607f821691505b602082108103610e3857610e37610dde565b5b50919050565b610e4781610ba6565b82525050565b6000606082019050610e626000830186610e3e565b610e6f6020830185610c90565b610e7c6040830184610c90565b949350505050565b6000602082019050610e996000830184610e3e565b92915050565b7f4e487b7100000000000000000000000000000000000000000000000000000000600052601160045260246000fd5b6000610ed982610be4565b9150610ee483610be4565b9250828201905080821115610efc57610efb610e9f565b5b9291505056fea2646970667358221220c1b76a2cad248f4b7f99f85822e147e4ff52e621050b6fdbb7607a0047fe0e1064736f6c634300081c0033",
  "linkReferences": {},
  "deployedLinkReferences": {}
}